:020000040000FA
:0400000015EF00F008
:100008005D829EAA0CD0AFCF01F00D0E0118D8A4C6
:1000180004D0010E0001A76F02D001C0A6F05D92C6
:060028001100F6EF12F0DA
:100F0000003C6C3636CF0750B98488083CABAA2A1F
:100F1000BEA3858832DA0FC93F83F9223F00000063
:100F20003F0000404B179ACC373F04B6BA9FAA2A1D
:100F30003D000000BFDB0FC940E4CB9640DB0F490A
:100F400040DB0FC93F0055C082F056C083F057C048
:100F500084F058C085F082C098F083C099F084C0B6
:100F60009AF085C09BF098C059F099C05AF09AC089
:100F70005BF09BC05CF0200E05D0D8905C325B32F9
:100F80005A325932E82EF9D759C08EF05AC08FF034
:100F900000019B9FDB0E985D0F0E9959490E9A59DF
:100FA0003F0E9B59D8B022D0800E9A5D390E9B59C6
:100FB000D8B009D055C055F056C056F057C057F0BC
:100FC00058C058F0120055C04BF056C04CF057C0F6
:100FD0004DF058C04EF057EC0FF04BC055F04CC0E0
:100FE00056F04DC057F04EC058F01200D20E985D2A
:100FF000530E99597B0E9A59400E9B59D8B0CAD0BE
:10100000E40E985DCB0E9959160E9A59400E9B59D5
:10101000D8B068D08E518F11D8B437D0DB0E1F6E88
:101020000F0E206EC90E216E3F0E226E55C01BF0B2
:1010300056C01CF057C01DF058C01EF0D1EC0DF08A
:101040001BC090F01CC091F01DC092F01EC093F028
:1010500090C02BF091C02CF092C02DF093C02EF0D8
:1010600070EC10F02BC047F02CC048F02DC049F0B8
:101070002EC04AF0DFEC12F047C055F048C056F0E1
:1010800049C057F04AC058F0120055C01BF056C076
:101090001CF057C01DF058C01EF0DB0E1F6E0F0E67
:1010A000206EC90E216EBF0E226ED1EC0DF01BC05A
:1010B00090F01CC091F01DC092F01EC093F090C043
:1010C0002BF091C02CF092C02DF093C02EF070EC5C
:1010D00010F02BC055F02CC056F02DC057F02EC08C
:1010E00058F012008E518F11D8A41DD0DB0E1F6E48
:1010F0000F0E206E490E216EC00E226E55C01BF0E1
:1011000056C01CF057C01DF058C01EF0D1EC0DF0B9
:101110001BC047F01CC048F01DC049F01EC04AF07B
:10112000DFEC12F01CD0DB0E1F6E0F0E206E490E8E
:10113000216E400E226E55C01BF056C01CF057C0E9
:101140001DF058C01EF0D1EC0DF01BC047F01CC0C4
:1011500048F01DC049F01EC04AF0DFEC12F047C055
:1011600086F048C087F049C088F04AC089F086C040
:101170004BF087C04CF088C04DF089C04EF057EC62
:101180000FF04BC055F04CC056F04DC057F04EC05C
:1011900058F01200D60E985D310E9959E20E9A5908
:1011A000400E9B59D8B078D0E00E985DED0E99595D
:1011B000AF0E9A59400E9B59D8B02AD08E518F113C
:1011C000D8B413D055C01BF056C01CF057C01DF04A
:1011D00058C01EF0E40E1F6ECB0E206E960E216ED0
:1011E000400E226ED1EC0DF062D7E40E1F6ECB0ED6
:1011F000206E960E216EC00E226E55C01BF056C09A
:101200001CF057C01DF058C01EF0D1EC0DF018D7DF
:101210008E518F11D8A413D055C01BF056C01CF0AE
:1012200057C01DF058C01EF0DB0E1F6E0F0E206E53
:10123000C90E216EC00E226ED1EC0DF012D055C039
:101240001BF056C01CF057C01DF058C01EF0DB0E3E
:101250001F6E0F0E206EC90E216E400E226ED1EC55
:101260000DF01BC08AF01CC08BF01DC08CF01EC09E
:101270008DF08AC04BF08BC04CF08CC04DF08DC00F
:101280004EF057EC0FF04BC055F04CC056F04DC02F
:1012900057F04EC058F01200800E9A5D7F0E9B5999
:1012A000D8A01BD055C02BF056C02CF057C02DF045
:1012B00058C02EF055C02FF056C030F057C031F056
:1012C00058C032F0A2EC12F02BC055F02CC056F0F2
:1012D0002DC057F02EC058F0120055C04BF056C02C
:1012E0004CF057C04DF058C04EF0940E4F6E000EAB
:1012F000506E0BEC0AF04BC07EF04CC07FF000014A
:10130000000E7FBFFF0E806F816F60D094C04BF0E6
:1013100095C04CF096C04DF097C04EF057EC0FF0D2
:101320004BC055F04CC056F04DC057F04EC058F071
:10133000120094C02BF095C02CF096C02DF097C0F1
:101340002EF070EC10F02BC055F02CC056F02DC0D4
:1013500057F02EC058F0120094C047F095C048F0E6
:1013600096C049F097C04AF0DFEC12F047C04BF04E
:1013700048C04CF049C04DF04AC04EF057EC0FF059
:101380004BC055F04CC056F04DC057F04EC058F011
:10139000120094C02BF095C02CF096C02DF097C091
:1013A0002EF070EC10F02BC047F02CC048F02DC090
:1013B00049F02EC04AF0DFEC12F047C055F048C0AB
:1013C00056F049C057F04AC058F01200030E7E157F
:1013D000596E000E7F155A6E000E80155B6E000E62
:1013E00081155C6E5C50000AD8B410D0D2D75A5028
:1013F000000AD8A4CED75950000AD8B487D7010A1A
:10140000D8B497D7030AD8B4A7D7C3D75B50000A7C
:10141000D8B4EDD7BED7A2C06AF0A3C06BF0A4C009
:101420006CF0A5C06DF04BC06AF04CC06BF04DC0C5
:101430006CF04EC06DF06AC051F06BC052F06CC0E1
:1014400053F06DC054F0200E05D0D8905432533272
:1014500052325132E82EF9D751C068F052C069F0CB
:10146000FF0E00016A15646FFF0E6B15656FFF0EAE
:101470006C15666F7F0E6D15676F800E665D7F0E53
:101480006759D8A023D04BC02BF04CC02CF04DC0D6
:101490002DF04EC02EF04BC02FF04CC030F04DC0A0
:1014A00031F04EC032F0A2EC12F04FC0D9FF50C064
:1014B000DAFF2BC0DEFF2CC0DEFF2DC0DEFF2EC00A
:1014C000DEFF000E4C6E000E4B6E1200DB0E645DF4
:1014D0000F0E6559C90E66594D0E6759D8B0E8D040
:1014E0004BC002F04CC003F04DC004F04EC005F0FC
:1014F000C5EC12F002C076F003C077F004C078F0BB
:1015000005C079F0000E1F6E000E206E000E216ED9
:101510003F0E226E830E066EF90E076E220E086EC7
:101520003F0E096E76C002F077C003F078C004F079
:1015300079C005F028EC0CF002C01BF003C01CF0D1
:1015400004C01DF005C01EF0D1EC0DF01BC02BF047
:101550001CC02CF01DC02DF01EC02EF00FEC12F0A0
:101560002BC07AF02CC07BF02DC07CF02EC07DF01B
:101570007AC002F07BC003F07CC004F07DC005F0AF
:10158000010E6FEC11F002C072F003C073F004C0E2
:1015900074F005C075F0DA0E066E0F0E076EC90EF8
:1015A000086E3F0E096E72C002F073C003F074C083
:1015B00004F075C005F028EC0CF002C02FF003C059
:1015C00030F004C031F005C032F076C02BF077C0A7
:1015D0002CF078C02DF079C02EF0A2EC12F02BC0C8
:1015E0006EF02CC06FF02DC070F02EC071F06EC088
:1015F0002BF06FC02CF070C02DF071C02EF0A30E38
:10160000066E850E076E880E086E320E096E72C069
:1016100002F073C003F074C004F075C005F028EC4C
:101620000CF002C02FF003C030F004C031F005C050
:1016300032F0A2EC12F04FC0D9FF50C0DAFF2BC03D
:10164000DEFF2CC0DEFF2DC0DEFF2EC0DEFF00015E
:1016500068516911D8B427D04FC0D9FF50C0DAFF04
:10166000DECF47F0DECF48F0DECF49F0DECF4AF0E4
:10167000DFEC12F04FC0D9FF50C0DAFF47C0DEFFE9
:1016800048C0DEFF49C0DEFF4AC0DEFF7AC051F02D
:101690007BC052F0511E521E514A522A51C04BF08B
:1016A00052C04CF012007AC04BF07BC04CF01200DC
:1016B0004BC002F04CC003F04DC004F04EC005F02A
:1016C000C5EC12F002C076F003C077F004C078F0E9
:1016D00005C079F0000E1F6E000E206E000E216E08
:1016E0003F0E226E830E066EF90E076E220E086EF6
:1016F0003F0E096E76C002F077C003F078C004F0A8
:1017000079C005F028EC0CF002C01BF003C01CF0FF
:1017100004C01DF005C01EF0D1EC0DF01BC02BF075
:101720001CC02CF01DC02DF01EC02EF00FEC12F0CE
:101730002BC07AF02CC07BF02DC07CF02EC07DF049
:101740007AC002F07BC003F07CC004F07DC005F0DD
:10175000010E6FEC11F002C072F003C073F004C010
:1017600074F005C075F0DA0E066E0F0E076EC90E26
:10177000086E3F0E096E72C002F073C003F074C0B1
:1017800004F075C005F028EC0CF002C02FF003C087
:1017900030F004C031F005C032F076C02BF077C0D5
:1017A0002CF078C02DF079C02EF0A2EC12F02BC0F6
:1017B0006EF02CC06FF02DC070F02EC071F06EC0B6
:1017C0002BF06FC02CF070C02DF071C02EF0A30E66
:1017D000066E850E076E880E086E320E096E72C098
:1017E00002F073C003F074C004F075C005F028EC7B
:1017F0000CF002C02FF003C030F004C031F005C07F
:1018000032F0A2EC12F02BC060F02CC061F02DC0C1
:1018100062F02EC063F0000168516911D8B40BD09A
:1018200060C047F061C048F062C049F063C04AF050
:10183000DFEC12F01FD74FC0D9FF50C0DAFF60C0F5
:10184000DEFF61C0DEFF62C0DEFF63C0DEFF2BD7BC
:101850000550800B0E6E05500524146E04BE1480D6
:101860001450D8B40DD01428D8A408D0000E026E9D
:10187000000E036E000E046E000E056E048E08D07E
:10188000000E026E000E036E000E046E000E056E5A
:101890000950800B0E1A09500924136E08BE1380DC
:1018A0001350D8B40DD01328D8A408D0000E066E5B
:1018B000000E076E000E086E000E096E088E08D02E
:1018C000000E066E000E076E000E086E000E096E0A
:1018D0001350D8B403D01450D8A409D0000E026E0F
:1018E000000E036E000E046E000E056E120008500E
:1018F0000202F3CF19F0F4CF1AF019500F6E106AEC
:10190000116A126A1A50156E166A176A186A075019
:101910000302F3CF19F0F4CF1AF019500F26000E7E
:101920001022112212221A501526000E16221722FA
:10193000182206500402F3CF19F0F4CF1AF0195010
:101940000F26000E1022112212221A501526000E08
:1019500016221722182211C012F010C011F00FC069
:1019600010F00F6A06500302F3CF19F0F4CF1AF00B
:1019700019500F261A501022000E1122000E1222AA
:1019800007500202F3CF19F0F4CF1AF019500F26C6
:101990001A501022000E1122000E122211C012F055
:1019A00010C011F00FC010F00F6A06500202F3CF02
:1019B00019F0F4CF1AF019500F261A501022000E09
:1019C0001122000E122208500302F3CF19F0F4CFB7
:1019D0001AF0195015261A501622000E1722000E62
:1019E000182207500402F3CF19F0F4CF1AF019505F
:1019F00015261A501622000E1722000E1822085023
:101A00000402F3CF19F0F4CF1AF019500A6E1A50ED
:101A10000B6E0C6A0D6A0CC00DF00BC00CF00AC006
:101A20000BF00A6A0A5015260B5016220C5017228A
:101A30000D5018220FC00AF010C00BF011C00CF0AE
:101A400012C00DF0190E05D0D8900D320C320B32A9
:101A50000A32E82EF9D70A5015260B5016220C50E0
:101A600017220D50182211C012F010C011F00FC033
:101A700010F00F6A135014C00AF00B6A0A26000E09
:101A80000B22820E0A24196EFF0E0B201A6E0FD045
:101A9000D890153616361736183612BE1580D890DF
:101AA0000F361036113612361906D8A01A0617AEA0
:101AB000EFD7000E136E12AE17D0FF0E0F140A6E82
:101AC000FF0E10140B6EFF0E11140C6E7F0E12140D
:101AD0000D6E0A500B100C100D10D8B403D0010E6F
:101AE000136E02D015B0FBD71350D8B41FD0010E1F
:101AF0001526000E16221722182218A017D015C07E
:101B00000AF016C00BF017C00CF018C00DF00D3421
:101B10000D320C320B320A320AC015F00BC016F02F
:101B20000CC017F00DC018F0194A1A2A1ABE0DD0B1
:101B30001A5003E11928D8A008D0000E156E000E27
:101B4000166E800E176E7F0E20D01ABE05D01A506A
:101B50000EE11904D8B00BD0000E156E000E166EF3
:101B6000000E176E000E186E000E0E6E0FD019C00C
:101B700014F0FF0E1516FF0E16167F0E1716000E28
:101B8000181614B0178ED8901430186E0E50181204
:101B900015C002F016C003F017C004F018C005F01D
:101BA00012001E50800B276E1E501E24296E1DBE73
:101BB00029802950D8B40DD02928D8A408D0000EE7
:101BC0001B6E000E1C6E000E1D6E000E1E6E1D8E16
:101BD00006D0000E1B6E000E1C6E000E1D6E000E59
:101BE0001E6E2250800B286E27502818D8A4278CF0
:101BF00022502224286E21BE28802850D8B40DD02F
:101C00002828D8A408D0000E1F6E000E206E000EEB
:101C1000216E000E226E218E06D0000E1F6E000E69
:101C2000206E000E216E000E226E2950285CD8B066
:101C300022D027AC02D0800E271A29C02AF028C053
:101C400029F02AC028F01BC02AF01FC01BF02AC0B0
:101C50001FF01CC02AF020C01CF02AC020F01DC0BC
:101C60002AF021C01DF02AC021F01EC02AF022C097
:101C70001EF02AC022F0000E2A6E295028C023F040
:101C8000246A235E000E245A24BE2CD0245004E182
:101C90001A0E235CD8A026D01B501C101D101E103D
:101CA000D8B402D0010E01D0000E2A6E000E1B6EB9
:101CB000000E1C6E000E1D6E000E1E6E28C029F058
:101CC00015D02AA005D0D8902A3001092A6E02D05A
:101CD000D8902A321BB02A8E1E341E321D321C327E
:101CE0001B32292A2850295CD8A0EBD727BC28D042
:101CF0002950D8A409D0000E1B6E000E1C6E000ED9
:101D00001D6E000E1E6E12001F501B2620501C223E
:101D100021501D2222501E221EA071D02AA005D0C3
:101D2000D8902A3001092A6E02D0D8902A321BB0EE
:101D30002A8E1E341E321D321C321B32292A5FD0DD
:101D40001F501B5C20501C5821501D581E50800AEB
:101D5000236E2250800A2358D8B025D01B501F5C18
:101D6000236E1C502058246E1D502158256E1E5085
:101D70002258266EFF0E23241B6EFF0E24201C6E9D
:101D8000FF0E25201D6EFF0E26201E6E800E271AC8
:101D90002A6C2A50D8A40FD0010E1B26000E1C223C
:101DA0001D221E2208D01F501B5E20501C5A21509D
:101DB0001D5A22501E5A1B501C101D101E10D8A454
:101DC0001CD02A50D8A419D0000E1B6E000E1C6E19
:101DD000000E1D6E000E1E6E1200D8901B361C36B3
:101DE0001D361E362ABE1B802AA002D0D88001D004
:101DF000D8902A362950D8A429061DAEEED7000E59
:101E0000286E2AAE0BD02AC023F07F0E2316D8B43A
:101E100003D0010E286E02D01BB0FBD72850D8B4D7
:101E200020D0010E1B26000E1C221D221E221EA0E9
:101E300018D01BC023F01CC024F01DC025F01EC00C
:101E400026F02634263225322432233223C01BF0DA
:101E500024C01CF025C01DF026C01EF02928D8A4DF
:101E6000292A2928D8B403D02950D8A40DD0000E8F
:101E70001B6E000E1C6E000E1D6E000E1E6E295095
:101E8000D8A402D0000E276E29A002D01D8E01D04A
:101E90001D9ED89029301E6E27BE1E8E1BC01BF0C3
:101EA0001CC01CF01DC01DF01EC01EF012004BC057
:101EB00002F04CC003F04DC004F04EC005F04BC022
:101EC00006F04CC007F04DC008F04EC009F028ECF9
:101ED0000CF002C078F003C079F004C07AF005C0BD
:101EE0007BF078C002F079C003F07AC004F07BC0C8
:101EF00005F078C006F079C007F07AC008F07BC022
:101F000009F028EC0CF002C064F003C065F004C0D6
:101F100066F005C067F03C0E066E6C0E076E360E5E
:101F2000086E360E096E78C002F079C003F07AC0F0
:101F300004F07BC005F028EC0CF002C01BF003C0DD
:101F40001CF004C01DF005C01EF0CF0E1F6E070E62
:101F5000206E500E216EB90E226ED1EC0DF01BC01A
:101F600060F01CC061F01DC062F01EC063F078C05C
:101F700002F079C003F07AC004F07BC005F04BC0DA
:101F800006F04CC007F04DC008F04EC009F028EC38
:101F90000CF002C074F003C075F004C076F005C008
:101FA00077F0AB0E1F6EAA0E206E2A0E216EBE0EAB
:101FB000226E840E066E880E076E080E086E3C0EAA
:101FC000096E78C002F079C003F07AC004F07BC0DB
:101FD00005F028EC0CF002C01BF003C01CF004C09C
:101FE0001DF005C01EF0D1EC0DF01BC068F01CC048
:101FF00069F01DC06AF01EC06BF064C006F065C0D9
:1020000007F066C008F067C009F074C002F075C040
:1020100003F076C004F077C005F028EC0CF002C0A5
:102020006CF003C06DF004C06EF005C06FF04BC0E3
:102030001FF04CC020F04DC021F04EC022F074C003
:1020400006F075C007F076C008F077C009F068C0E8
:1020500002F069C003F06AC004F06BC005F028EC20
:102060000CF002C01BF003C01CF004C01DF005C042
:102070001EF0D1EC0DF01BC070F01CC071F01DC043
:1020800072F01EC073F070C01BF071C01CF072C003
:102090001DF073C01EF060C006F061C007F062C0A2
:1020A00008F063C009F06CC002F06DC003F06EC0B0
:1020B00004F06FC005F028EC0CF002C01FF003C064
:1020C00020F004C021F005C022F0D1EC0DF01BC0BF
:1020D0004BF01CC04CF01DC04DF01EC04EF0120065
:1020E0002BC002F02CC003F02DC004F02EC005F070
:1020F0002BC006F02CC007F02DC008F02EC009F050
:1021000028EC0CF002C043F003C044F004C045F0DA
:1021100005C046F043C002F044C003F045C004F0DF
:1021200046C005F043C006F044C007F045C008F0C3
:1021300046C009F028EC0CF002C03FF003C040F0AC
:1021400004C041F005C042F0170E066E9A0E076EED
:10215000CC0E086E370E096E43C002F044C003F087
:1021600045C004F046C005F028EC0CF002C01BF09E
:1021700003C01CF004C01DF005C01EF03F0E1F6E12
:10218000040E206EB60E216EBA0E226ED1EC0DF04A
:102190001BC02FF01CC030F01DC031F01EC032F04B
:1021A000000E1F6E000E206E800E216E3F0E226EFE
:1021B000000E066E000E076E000E086EBF0E096E52
:1021C00043C002F044C003F045C004F046C005F02F
:1021D00028EC0CF002C01BF003C01CF004C01DF082
:1021E00005C01EF0D1EC0DF01BC033F01CC034F064
:1021F0001DC035F01EC036F043C006F044C007F0E5
:1022000045C008F046C009F03FC002F040C003F0EE
:1022100041C004F042C005F028EC0CF002C037F0D9
:1022200003C038F004C039F005C03AF09F0E066EC6
:10223000AA0E076E2A0E086E3D0E096E3FC002F010
:1022400040C003F041C004F042C005F028EC0CF09F
:1022500002C01FF003C020F004C021F005C022F02E
:1022600033C01BF034C01CF035C01DF036C01EF06A
:10227000D1EC0DF01BC03BF01CC03CF01DC03DF08C
:102280001EC03EF03BC01BF03CC01CF03DC01DF02A
:102290003EC01EF02FC006F030C007F031C008F07D
:1022A00032C009F037C002F038C003F039C004F082
:1022B0003AC005F028EC0CF002C01FF003C020F07B
:1022C00004C021F005C022F0D1EC0DF01BC02BF0B2
:1022D0001CC02CF01DC02DF01EC02EF012000A6E86
:1022E0000A50D8A405AE1AD002C006F003C007F009
:1022F00004C008F005C009F0061E071E081E091ECE
:10230000062A000E07220822092206C00CF007C088
:102310000DF008C00EF009C00FF008D002C00CF09C
:1023200003C00DF004C00EF005C00FF00250031002
:1023300004100510D8A409D0000E026E000E036E22
:10234000000E046E000E056E1200960E0B6E06D087
:102350000B2AD8900F320E320D320C32000E0C14B4
:10236000066E000E0D14076E000E0E14086EFE0EA3
:102370000F14096E0650071008100910D8B40DD0BC
:10238000E7D70B2A010E0C26000E0D220E220F227B
:10239000D8900F320E320D320C32000E0C14066E35
:1023A000000E0D14076E000E0E14086EFF0E0F14B3
:1023B000096E0650071008100910D8B407D0E1D7ED
:1023C0000B06D8900C360D360E360F360EBE03D0E7
:1023D000020E0B60F5D70BA00E9ED8900B320BC0EF
:1023E00006F0076A086A096A06C009F0086A076AFF
:1023F000066A06500C1207500D1208500E120950B2
:102400000F120A50D8A405AE01D00F8E0CC002F0F6
:102410000DC003F00EC004F00FC005F012002D3403
:102420002E34346E3450D8A409D0000E2B6E000E1A
:102430002C6E000E2D6E000E2E6E12002BC02FF093
:102440002CC030F02DC031F02EC032F0200E05D05F
:10245000D8903232313230322F32E82EF9D72F5025
:10246000336E2D8EFF0E2B16FF0E2C16FF0E2D1623
:10247000000E2E16960E345E34AE0DD03450800A07
:10248000970FD8A0D2D7D8902E322D322C322B32A3
:10249000343EF9D70DD01F0E346407D0C6D7D8907C
:1024A0002B362C362D362E3634063450D8A4F7D79A
:1024B0003350D8B408D02E1E2D1E2C1E2B6C000EAF
:1024C0002C222D222E222BC02BF02CC02CF02DC024
:1024D0002DF02EC02EF0120014EC13F0480EAE6E4C
:1024E000000E556E000E566EC00E576E400E586EA2
:1024F000A3EC07F00001A705D8A4FCD7000EA76F36
:102500000CD02AEC13F0F6D727EC13F0F3D724EC19
:1025100013F0F0D721EC13F0EDD7A6519C6F9D6B13
:102520009D51000AD8A4E6D79C51610AD8B4F2D7CD
:10253000050AD8B4ECD7170AD8B4E6D7040AD8B439
:10254000E0D7D8D7000E2F1A000E301A000E311A1D
:10255000800E321A2BC01BF02CC01CF02DC01DF0B9
:102560002EC01EF02FC01FF030C020F031C021F06F
:1025700032C022F0D1EC0DF01BC02BF01CC02CF0AF
:102580001DC02DF01EC02EF012009EC006F09FC090
:1025900007F0A0C008F0A1C009F002C006F003C017
:1025A00007F004C008F005C009F0099E06C002F05B
:1025B00007C003F008C004F009C005F0120047503E
:1025C000481049104A10D8B408D0000E471A000E1F
:1025D000481A000E491A800E4A1A47C047F048C0F0
:1025E00048F049C049F04AC04AF0120000EE9EF09F
:1025F0000A0EEE6AE806FDE15D905D9200016CEF67
:1026000012F0948E949C220EAD6E900EAC6E7E965F
:102610004D0EB06E12000F0148691F0E496F939A5C
:1026200093989396939412000BEC13F001EC13F033
:102630001BEC13F01200D09EF28EF28C9E9A9D8AB3
:102640001200818681941200819681841200819A01
:0A26500081881200818A819812002F
:020000040001F9
:08FFF800AAF7FDFFF3F9FFFB7E
:00000001FF
