:020000040000FA
:0400000057EF00F0C6
:100008005B82D9CF01F0DACF02F09EAA18D0AFCF29
:1000180003F0500E0318D8A406D0010E0001996F02
:10002800000E5A6E3AD003C0AEFFBA0E5A24D96EEB
:10003800DA6A000EDA2203C0DFFF5A2A2ED09EACFD
:100048000BD09E9CC3CF94F0C4CF95F0000E000156
:10005800936F010E926F21D098A419D09894000143
:10006800904B912B0F0124696A0E236F0001F35105
:10007800901913E1F4519119D8A40FD0000E916F83
:10008800000E906F000E8F6F010E8E6F06D0F2A2D9
:1000980004D0F292010E0001986F02C0DAFF01C08D
:0A00A800D9FF5B92110048EF12F03F
:090F000000253034752563000062
:100F0A001550800B1E6E15501524246E14BE2480B5
:100F1A002450D8B40DD02428D8A408D0000E126EBC
:100F2A00000E136E000E146E000E156E148E08D08D
:100F3A00000E126E000E136E000E146E000E156E69
:100F4A001950800B1E1A19501924236E18BE2380BB
:100F5A002350D8B40DD02328D8A408D0000E166E7A
:100F6A00000E176E000E186E000E196E188E08D03D
:100F7A00000E166E000E176E000E186E000E196E19
:100F8A002350D8B403D02450D8A409D0000E126E2E
:100F9A00000E136E000E146E000E156E120018501D
:100FAA001202F3CF29F0F4CF2AF029501F6E206ADB
:100FBA00216A226A2A50256E266A276A286A1750E9
:100FCA001302F3CF29F0F4CF2AF029501F26000E7E
:100FDA002022212222222A502526000E26222722DA
:100FEA00282216501402F3CF29F0F4CF2AF0295000
:100FFA001F26000E2022212222222A502526000EF8
:10100A0026222722282221C022F020C021F01FC038
:10101A0020F01F6A16501302F3CF29F0F4CF2AF0FA
:10102A0029501F262A502022000E2122000E222299
:10103A0017501202F3CF29F0F4CF2AF029501F26B5
:10104A002A502022000E2122000E222221C022F044
:10105A0020C021F01FC020F01F6A16501202F3CFE1
:10106A0029F0F4CF2AF029501F262A502022000EF8
:10107A002122000E222218501302F3CF29F0F4CFB6
:10108A002AF0295025262A502622000E2722000E51
:10109A00282217501402F3CF29F0F4CF2AF029504E
:1010AA0025262A502622000E2722000E2822185012
:1010BA001402F3CF29F0F4CF2AF029501A6E2A50DD
:1010CA001B6E1C6A1D6A1CC01DF01BC01CF01AC0D6
:1010DA001BF01A6A1A5025261B5026221C5027225A
:1010EA001D5028221FC01AF020C01BF021C01CF07E
:1010FA0022C01DF0190E05D0D8901D321C321B32A9
:10110A001A32E82EF9D71A5025261B5026221C50CF
:10111A0027221D50282221C022F020C021F01FC002
:10112A0020F01F6A235024C01AF01B6A1A26000EE8
:10113A001B22820E1A24296EFF0E1B202A6E0FD044
:10114A00D890253626362736283622BE2580D890CE
:10115A001F362036213622362906D8A02A0627AE7F
:10116A00EFD7000E236E22AE17D0FF0E1F141A6E91
:10117A00FF0E20141B6EFF0E21141C6E7F0E22140C
:10118A001D6E1A501B101C101D10D8B403D0010E6E
:10119A00236E02D025B0FBD72350D8B41FD0010E3E
:1011AA002526000E26222722282228A017D025C06D
:1011BA001AF026C01BF027C01CF028C01DF01D34F1
:1011CA001D321C321B321A321AC025F01BC026F0FF
:1011DA001CC027F01DC028F0294A2A2A2ABE0DD091
:1011EA002A5003E12928D8A008D0000E256E000E47
:1011FA00266E800E276E7F0E20D02ABE05D02A507A
:10120A000EE12904D8B00BD0000E256E000E266E12
:10121A00000E276E000E286E000E1E6E0FD029C01B
:10122A0024F0FF0E2516FF0E26167F0E2716000E37
:10123A00281624B0278ED8902430286E1E502812E3
:10124A0025C012F026C013F027C014F028C015F0EC
:10125A00120041C0D9FF42C0DAFFDECFF6FFDDCF70
:10126A00F7FF000EF86E0800F550250AD8A47DD1C4
:10127A0041C0D9FF42C0DAFFDE2A000EDD22000E8D
:10128A00596E000E586E58C08CF059C08DF000018E
:10129A008A698B69000E536E000E19D000018C8189
:1012AA0041C0D9FF42C0DAFFDE2A000EDD2234D067
:1012BA0000018C83F5D700018C85F2D700018C8759
:1012CA00EFD700018C89ECD7000E536E010E526ED7
:1012DA0023D041C0D9FF42C0DAFFDECFF6FFDDCF0F
:1012EA00F7FF000EF86E0800F550456E466A465044
:1012FA00000AD8A4E9D74550200AD8B4DFD7030A90
:10130A00D8B4DFD7080AD8B4D6D7060AD8B4C6D70D
:10131A001D0AD8B4CDD7D8D752505310D8B4D9D77C
:10132A0000018CB18C9341C0D9FF42C0DAFFDECFF5
:10133A00F6FFDDCFF7FF000EF86E0800F5502A0A17
:10134A00D8A423D041C0D9FF42C0DAFFDE2A000E5A
:10135A00DD2243C0D9FF44C0DAFFDFCF45F0020ED9
:10136A00DE26DFCF46F0000EDD2245C0D9FF46C09B
:10137A00DAFFDECF58F0DDCF59F059AE41D08C817B
:10138A00586C591ED8B0592A3BD041C0D9FF42C027
:10139A00DAFFDECF0BF0DDCF0CF034EC0DF00BC032
:1013AA0058F00CC059F007D041C0D9FF42C0DAFF4B
:1013BA00DE2A000EDD22D00E456EFF0E466E41C0BB
:1013CA00D9FF42C0DAFFDECFF6FFDDCFF7FF000E0E
:1013DA00F86E0800F550476E486A45504726465051
:1013EA004822485006E10A0E475CD8B002D0010EE6
:1013FA0001D0000E546E556A54505510D8A4D4D753
:10140A0041C0D9FF42C0DAFFDECFF6FFDDCFF7FFDA
:10141A00000EF86E0800F550630AD8A426D041C021
:10142A00D9FF42C0DAFFDE2A000EDD2243C0D9FF0F
:10143A0044C0DAFFDFCF45F0020EDE26DFCF46F0EA
:10144A00000EDD2245C0D9FF46C0DAFFDF50516EDB
:10145A003FC01FF040C020F051C021F002EC12F052
:10146A001FC03FF020C040F0120041C0D9FF42C067
:10147A00DAFFDECFF6FFDDCFF7FF000EF86E0800C9
:10148A00F550750AD8A440D041C0D9FF42C0DAFF4E
:10149A00DE2A000EDD2243C0D9FF44C0DAFFDFCFC7
:1014AA0045F0020EDE26DFCF46F0000EDD2245C0F3
:1014BA00D9FF46C0DAFFDECF47F0DDCF48F047C09C
:1014CA0049F048C04AF04B6A4C6A4D6A4E6A4F6A04
:1014DA00506A3FC01FF040C020F049C021F04AC006
:1014EA0022F04BC023F04CC024F04DC025F04EC072
:1014FA0026F04FC027F050C028F05CEC0CF01FC05B
:10150A003FF020C040F0120041C0D9FF42C0DAFFCC
:10151A00DECFF6FFDDCFF7FF000EF86E0800F550BC
:10152A00250AD8A416D041C0D9FF42C0DAFFDE2A64
:10153A00000EDD22000E056E250E046E3FC006F079
:10154A0040C007F0DAEC10F0000E406E010E3F6E5C
:10155A00120041C0D9FF42C0DAFFDE2A000EDD22A6
:10156A00000E406E000E3F6E120041C0D9FF42C00D
:10157A00DAFFDECFF6FFDDCFF7FF000EF86E0800C8
:10158A00F550046E056A3FC006F040C007F0DAEC79
:10159A0010F041C0D9FF42C0DAFFDE2A000EDD2278
:1015AA00D3D72E50800B376E2E502E24396E2DBE77
:1015BA0039803950D8B40DD03928D8A408D0000EB3
:1015CA002B6E000E2C6E000E2D6E000E2E6E2D8EC2
:1015DA0006D0000E2B6E000E2C6E000E2D6E000E25
:1015EA002E6E3250800B386E37503818D8A4378C8C
:1015FA0032503224386E31BE38803850D8B40DD0CB
:10160A003828D8A408D0000E2F6E000E306E000EB7
:10161A00316E000E326E318E06D0000E2F6E000E25
:10162A00306E000E316E000E326E3950385CD8B012
:10163A0022D037AC02D0800E371A39C03AF038C0FF
:10164A0039F03AC038F02BC03AF02FC02BF03AC02C
:10165A002FF02CC03AF030C02CF03AC030F02DC038
:10166A003AF031C02DF03AC031F02EC03AF032C013
:10167A002EF03AC032F0000E3A6E395038C033F0CC
:10168A00346A335E000E345A34BE2CD0345004E12E
:10169A001A0E335CD8A026D02B502C102D102E10E9
:1016AA00D8B402D0010E01D0000E3A6E000E2B6E95
:1016BA00000E2C6E000E2D6E000E2E6E38C039F004
:1016CA0015D03AA005D0D8903A3001093A6E02D026
:1016DA00D8903A322BB03A8E2E342E322D322C320A
:1016EA002B32392A3850395CD8A0EBD737BC28D0EE
:1016FA003950D8A409D0000E2B6E000E2C6E000EA5
:10170A002D6E000E2E6E12002F502B2630502C22DA
:10171A0031502D2232502E222EA071D03AA005D05F
:10172A00D8903A3001093A6E02D0D8903A322BB0AA
:10173A003A8E2E342E322D322C322B32392A5FD069
:10174A002F502B5C30502C5831502D582E50800A77
:10175A00336E3250800A3358D8B025D02B502F5CC4
:10176A00336E2C503058346E2D503158356E2E5001
:10177A003258366EFF0E33242B6EFF0E34202C6E39
:10178A00FF0E35202D6EFF0E36202E6E800E371A74
:10179A003A6C3A50D8A40FD0010E2B26000E2C22F8
:1017AA002D222E2208D02F502B5E30502C5A315029
:1017BA002D5A32502E5A2B502C102D102E10D8A4E0
:1017CA001CD03A50D8A419D0000E2B6E000E2C6EE5
:1017DA00000E2D6E000E2E6E1200D8902B362C366F
:1017EA002D362E363ABE2B803AA002D0D88001D0B0
:1017FA00D8903A363950D8A439062DAEEED7000E15
:10180A00386E3AAE0BD03AC033F07F0E3316D8B4E6
:10181A0003D0010E386E02D02BB0FBD73850D8B4A3
:10182A0020D0010E2B26000E2C222D222E222EA095
:10183A0018D02BC033F02CC034F02DC035F02EC098
:10184A0036F03634363235323432333233C02BF056
:10185A0034C02CF035C02DF036C02EF03928D8A46B
:10186A00392A3928D8B403D03950D8A40DD0000E5B
:10187A002B6E000E2C6E000E2D6E000E2E6E395041
:10188A00D8A402D0000E376E39A002D02D8E01D016
:10189A002D9ED89039302E6E37BE2E8E2BC02BF04F
:1018AA002CC02CF02DC02DF02EC02EF012000001FD
:1018BA008BAF8C938BBF05D08B5108E18A05D8B0CA
:1018CA0005D0000E326E010E316E04D08AC031F09E
:1018DA008BC032F058C033F059C034F021C035F013
:1018EA0022C036F023C037F024C038F025C039F0C2
:1018FA0026C03AF027C03BF028C03CF0000E3E6EEE
:10190A001F0E3D6E000EB96F76D03D06D8A03E067A
:10191A009A0E3D24D96E000E3E20DA6E35C004F0D0
:10192A0036C005F037C006F038C007F039C008F0F5
:10193A003AC009F03BC00AF03CC00BF00A0E0C6E2C
:10194A00000E0D6E000E0E6E000E0F6E000E106E63
:10195A00000E116E000E126E000E136E83EC10F064
:10196A0004C029F005C02AF006C02BF007C02CF0ED
:10197A0008C02DF009C02EF00AC02FF00BC030F0BD
:10198A002950300FDF6E3106D8A032063306D8A0B0
:10199A00340635C004F036C005F037C006F038C04A
:1019AA0007F039C008F03AC009F03BC00AF03CC061
:1019BA000BF00A0E0C6E000E0D6E000E0E6E000E6F
:1019CA000F6E000E106E000E116E000E126E000EDB
:1019DA00136E5DEC0FF004C035F005C036F006C09A
:1019EA0037F007C038F008C039F009C03AF00AC029
:1019FA003BF00BC03CF03D503E10D8B41BD03550E4
:101A0A0036103710381039103A103B103C10D8A451
:101A1A007CD732BE05D0325002E13104D8B075D736
:101A2A0034BE08D0345003E13304D8A003D00001F7
:101A3A008CB36BD71FC014F020C015F09A0E3D244A
:101A4A00166E000E3E20176E33C018F034C019F01F
:101A5A002AEC11F014C01FF015C020F01200000E7D
:101A6A00196E000E186E000E126E000E116E02D064
:101A7A000B4A0C2A010E176E0BC0F6FF0CC0F7FFBB
:101A8A00000EF86E0800F550200AD8B41AD0F70EE6
:101A9A000D6EFF0E0E6E0BC0F6FF0CC0F7FF000EA8
:101AAA00F86E0800F5500F6E106A0D500F260E5092
:101ABA001022105004E1050E0F5CD8A002D0000ECF
:101ACA00176E17C013F0146A13501410D8B408D044
:101ADA00CFD7000E126E010E116E0B4A0C2A32D0AD
:101AEA000BC0F6FF0CC0F7FF000EF86E0800F550A9
:101AFA000D6E0E6A0E50000AD8A424D00D502B0A7F
:101B0A00D8B4EBD7060AD8B4E4D71CD018C004F06E
:101B1A0019C005F0000E076E0A0E066EC7EC12F029
:101B2A000BC0F6FF0CC0F7FF000EF86E0800F55068
:101B3A00045E000E055A300E0424186E000E0520AD
:101B4A00196ECBD7D00E0D6EFF0E0E6E0BC0F6FFC0
:101B5A000CC0F7FF000EF86E0800F5500F6E106A01
:101B6A000D500F260E501022105006E10A0E0F5C7F
:101B7A00D8B002D0010E01D0000E156E166A1550AB
:101B8A001610D8A4C3D711501210D8A40DD018C05B
:101B9A000DF019C00EF00D1E0E1E0D4A0E2A0DC0B4
:101BAA000BF00EC00CF0120018C00BF019C00CF0AC
:101BBA0012000C6E0C50D8A407AE1AD004C008F05C
:101BCA0005C009F006C00AF007C00BF0081E091E7E
:101BDA000A1E0B1E082A000E09220A220B2208C01E
:101BEA000EF009C00FF00AC010F00BC011F008D0B7
:101BFA0004C00EF005C00FF006C010F007C011F0C7
:101C0A000450051006100710D8A409D0000E046E5F
:101C1A00000E056E000E066E000E076E1200960E7E
:101C2A000D6E06D00D2AD890113210320F320E32B4
:101C3A00000E0E14086E000E0F14096E000E10141A
:101C4A000A6EFE0E11140B6E085009100A100B10C2
:101C5A00D8B40DD0E7D70D2A010E0E26000E0F229A
:101C6A0010221122D890113210320F320E32000E89
:101C7A000E14086E000E0F14096E000E10140A6E70
:101C8A00FF0E11140B6E085009100A100B10D8B46D
:101C9A0007D0E1D70D06D8900E360F36103611361A
:101CAA0010BE03D0020E0D60F5D70DA0109ED8907D
:101CBA000D320DC008F0096A0A6A0B6A08C00BF0F7
:101CCA000A6A096A086A08500E1209500F120A5065
:101CDA0010120B5011120C50D8A407AE01D0118E5D
:101CEA000EC004F00FC005F010C006F011C007F0D6
:101CFA001200436EA60E166E9B0E176E440E186ED9
:101D0A003B0E196E4350046E056A066A076A010E95
:101D1A00DEEC0DF004C012F005C013F006C014F09A
:101D2A0007C015F085EC07F012C02BF013C02CF099
:101D3A0014C02DF015C02EF09A0E2F6E990E306E2B
:101D4A00190E316E3F0E326ED6EC0AF02BC03BF004
:101D5A002CC03CF02DC03DF02EC03EF0000E166E99
:101D6A00000E176E800E186E400E196E3BC012F0F0
:101D7A003CC013F03DC014F03EC015F085EC07F0EE
:101D8A0012C03FF013C040F014C041F015C042F039
:101D9A00000E166E000E176EFA0E186E420E196EAF
:101DAA003FC012F040C013F041C014F042C015F019
:101DBA0085EC07F012C02BF013C02CF014C02DF0E4
:101DCA0015C02EF026EC10F02BC096F02CC097F020
:101DDA00120020EEDEF0130EDE6AE806FDE20F0EB8
:101DEA000001F26FEAEC12F00F012281000199055D
:101DFA00D8A408D0000E996FBA0E446E000E456E34
:101E0A00C4EC0FF0000192059311D8A42CD0000E57
:101E1A00936F000E926FDE0ECA6F000ECB6F010E2B
:101E2A00CC6F0F0ECD6F94C0CEF095C0CFF0000EE0
:101E3A00D16F0D0ED06FD9EC11F0DE0E046E000ECC
:101E4A00056E040E066E9AEC12F01F0E0001DD6F8D
:101E5A00710EDC6F1E0EE82EFED7DC2FFCD7DD2FAD
:101E6A00FAD700F0C28200018E058F11D8A416D0CD
:101E7A00000E8F6F000E8E6F83A80CD08398F3C06C
:101E8A00F2F0F251C808F36F000ED8A0E82A000851
:101E9A00F46F04D08388F2C0F3F0F46B9805D8A4E9
:101EAA00A5D7000E986F4B0EAE6E18EC13F09ED7A6
:101EBA0020EE14F0070EDE6AE806FDE20C500D1063
:101ECA000E100F101010111012101310D8B446D0A3
:101EDA00010E1C6E0AD0D8900C360D360E360F360F
:101EEA0010361136123613361C2A13AEF4D7D89090
:101EFA001436153616361736183619361A361B366C
:101F0A000C50045C0D5005580E5006580F500758D7
:101F1A00105008581150095812500A5813500B58AB
:101F2A00D8A011D00C50045E0D50055A0E50065A16
:101F3A000F50075A1050085A1150095A12500A5A8B
:101F4A0013500B5A1480D8901332123211321032B5
:101F5A000F320E320D320C321C2EC9D714C004F0C7
:101F6A0015C005F016C006F017C007F018C008F033
:101F7A0019C009F01AC00AF01BC00BF0120020EEBB
:101F8A00C4F0130EDE6AE806FDE23ED0B40E77EC2A
:101F9A0011F01200000E77EC11F0120018EC13F099
:101FAA00120020EE01F04450D9264550DA22DF50C3
:101FBA00466E4650640DF3CF47F0F4CF48F020EE5A
:101FCA0002F04450D9264550DA22DF50496E495072
:101FDA000A0DF3504726F450482220EE03F04450ED
:101FEA00D9264550DA22DF504A6E4A504726000E5B
:101FFA004822300E47240001D86FEB0E4820D96FD3
:10200A00D8517EEC0EF0120044C0D9FF45C0DAFF69
:10201A00DF50466E476A4750000AD8A4120046505D
:10202A00460AD8B4BED7270AD8B4B0D7020AD8B459
:10203A00B5D7070AD8B4AED7170AD8B41200040A1B
:10204A0012002D342E34346E3450D8A409D0000E28
:10205A002B6E000E2C6E000E2D6E000E2E6E1200D0
:10206A002BC02FF02CC030F02DC031F02EC032F032
:10207A00200E05D0D8903232313230322F32E82E4B
:10208A00F9D72F50336E2D8EFF0E2B16FF0E2C16FE
:10209A00FF0E2D16000E2E16960E345E34AE0DD09F
:1020AA003450800A970FD8A0D2D7D8902E322D322A
:1020BA002C322B32343EF9D70DD01F0E346407D0A0
:1020CA00C6D7D8902B362C362D362E3634063450B9
:1020DA00D8A4F7D73350D8B408D02E1E2D1E2C1EE4
:1020EA002B6C000E2C222D222E222BC02BF02CC062
:1020FA002CF02DC02DF02EC02EF012000C500D1019
:10210A000E100F101010111012101310D8B43CD06A
:10211A00010E146E0AD0D8900C360D360E360F36D4
:10212A001036113612361336142A13AEF4D70C5061
:10213A00045C0D5005580E5006580F5007581050A1
:10214A0008581150095812500A5813500B58D8A061
:10215A0010D00C50045E0D50055A0E50065A0F50FE
:10216A00075A1050085A1150095A12500A5A135055
:10217A000B5AD89013321232113210320F320E32F9
:10218A000D320C32142ED3D704C004F005C005F06A
:10219A0006C006F007C007F008C008F009C009F039
:1021AA000AC00AF00BC00BF0120006500710D8B490
:1021BA0004D006500710D8A404D004502EEC13F013
:1021CA00120020EE04F00650D9260750DA22DE501B
:1021DA00DE10D8B416D020EE04F00650D9260750E7
:1021EA00DA2210EE02F00650E1260750E222DE5013
:1021FA00E65CE650800A0C6EDE50800A0C58D8B0B5
:10220A00120020EE02F00650D9260750DA22DECF5D
:10221A0008F0DDCF09F006C0D9FF07C0DAFFDECF2C
:10222A000AF0DDCF0BF008500A24D96E09500B20B2
:10223A00DA6E04C0DFFF20EE02F00650D9260750FE
:10224A00DA22DE2A000EDD22120000018CA10AD059
:10225A0016C00DF017C00EF014C00FF015C010F024
:10226A0066EC12F019BE05D018C01DF019C01EF098
:10227A0004D0000E1E6E000E1D6E000E1C6E000EA7
:10228A001B6E0CD0000E056E200E046E14C006F0F4
:10229A0015C007F0DAEC10F01B4A1C2A1D501B5C13
:1022AA001C50800A1A6E1E50800A1A58D8A0EAD703
:1022BA0000018CB10AD016C00DF017C00EF014C080
:1022CA000FF015C010F066EC12F016C004F017C03B
:1022DA0005F0B2EC12F01D500424146E1E500520B5
:1022EA00156E1200066E0F0E076E07D00F0E03D082
:1022FA00170E01D0050E076E11D00650046E056A3E
:10230A000550000AD8A40AD00450000AD8B4F0D75D
:10231A005A0AD8B4EBD7EE0AD8B4ECD783B806D0A9
:10232A0007C0F3F00001F46B83880AD00750C8088D
:10233A000001F36F000ED8A0E82A0008F46F839812
:10234A00000E916F000E906F0F0122811200C6C01D
:10235A0056F0C7C057F0000E0001896F000E886F53
:10236A0013D0C4C03FF0C5C040F0560E416E000EF7
:10237A00426EC8C043F0C9C044F02EEC09F03F5089
:10238A00000188274050892356C0F6FF57C0F7FF3F
:10239A00000EF86E0800F5500009D8A4E2D788C0EC
:1023AA00C4F089C0C5F01200CE0E0001D46F000E31
:1023BA00D56FCAC0D6F0CBC0D7F0000ED96F000EC9
:1023CA00D86F000EDB6F000EDA6FD60EC46F000EE8
:1023DA00C56FCCC0C6F0CDC0C7F0D40EC86F000E12
:1023EA00C96FACEC11F00001D851CA25D96ED95188
:1023FA00CB21DA6E000EDF6E120058505910D8A4A5
:10240A0005D058C022F059C023F006D0FF0E582438
:10241A00226EFF0E5920236E21C09AF0000E000191
:10242A009B6F1FC014F020C015F09A0E166E000E96
:10243A00176E22C018F023C019F02AEC11F014C04C
:10244A001FF015C020F01200010E0A6E200E0418AB
:10245A000510D8B414D0F70E066EFF0E076E04C02E
:10246A0008F005C009F0065008260750092209504D
:10247A0004E1050E085CD8A002D0000E0A6E0AC05C
:10248A0004F0056A1200580EF66E260EF76E000E5C
:10249A00F86E00EEF3F010EE04F00900F5CFEEFF4F
:1024AA00E550E150FAE100EE60F0640EEE6AE806EB
:1024BA00FDE15A6A596A586A5B905B920001EEEF35
:1024CA000EF0000E136E000E126E0BD011C004F047
:1024DA00056A0FC006F010C007F0DAEC10F0124AD5
:1024EA00132A12500D24D96E13500E20DA6EDF50C3
:1024FA00116E1150D8B41200E9D7D00E066EFF0E35
:10250A00076E04C008F005C009F0065008260750F7
:10251A000922095006E10A0E085CD8B002D0010E61
:10252A0001D0000E046E056A1200000E086E10D06B
:10253A0008500424D96E000E0520DA6EDF50AE6E04
:10254A002F0E076EC00EE82EFED7072EFCD7082ADC
:10255A000650085CD8B01200EBD704C006F005C0DC
:10256A0007F002D0044A052A04C0D9FF05C0DAFFE1
:10257A00DF50D8A4F7D70650045C046E07500558FC
:10258A00056E120004500602F3CF08F0F4CF09F0EA
:10259A0004500702F350092605500602F350092693
:1025AA0008C004F009C005F012009398939E0F0129
:1025BA000951F00B0C09096F3F0E5117020ECA6E32
:1025CA007C0ECB6E000ECC6E120026EC13F0DAEC09
:1025DA0012F0F7EC12F01FEC13F00EEC13F003EC10
:1025EA0013F01200948E949C220EAD6E900EAC6E77
:1025FA007E964D0EB06E9E9A9D8A1200959883988B
:10260A00320E0F01226F24696A0E236F9184989407
:10261A00120096840F01489F1D0EC26EB60EC16E3F
:10262A009E9C9D9C1200CF0E0F010917000E0A6F87
:10263A00CA9412009380F28EF28CF19CF292F28884
:10264A0012007F0E0F01486F1F0E496F1200B9006A
:04265A00C2011200A7
:020000040001F9
:08FFF800AAF7FDFFF3F9FFFB7E
:00000001FF
