:020000040000FA
:04000000A0EF00F07D
:100008005582D9CF29F0DACF2AF09EAA18D0AFCFDF
:100018002BF0500E2B18D8A406D0010E0101216F29
:10002800000E426E83D02BC0AEFF440E4224D96E20
:10003800DA6A000EDA222BC0DFFF422A77D098A4B2
:1000480016D09894412A0F0124696A0E236F4150F3
:10005800276E286A4E50271869E14F502818D8A4EF
:1000680065D0000E416E010E0101206F5FD0F2A233
:1000780005D0F292010E01011F6F58D0A4AA56D0E4
:100088003E04D8A435D0010E01011E6F34C017F00C
:1000980035C018F036C019F037C01AF0000E046EDB
:1000A8000A0E036EAACF01F0026A4CEC1EF001C0E2
:1000B80009F002C00AF0000E0ABEFF0E0B6E0C6EAD
:1000C800010E74EC19F009C01BF00AC01CF00BC03B
:1000D8001DF00CC01EF0F6EC12F017C034F018C07A
:1000E80035F019C036F01AC037F0000E3E6E1ED03B
:1000F800000E046E0A0E036EAA50026E016A4CECE2
:100108001EF001C009F002C00AF0000E0ABEFF0E80
:100118000B6E0C6E010E74EC19F009C034F00AC0B5
:1001280035F00BC036F00CC037F03E2A2AC0DAFF93
:0C01380029C0D9FF55921100AEEF1FF056
:100F0000004E6F20707565646F206573717569762A
:100F1000617220656C20667565676F21206C6C615D
:100F20006D652061206C6F7320626F6D6265726FFA
:100F3000730056656C6F63696461642066696A61F9
:100F4000646120616C3A2025303375256300566555
:100F5000686963756C6F20656E2072657665727363
:100F60006121004D6F746F72657320656E63656EED
:100F70006469646F7321002530332E316620636D00
:100F800000476972616E646F00494E46004E414EE3
:0D0F900000696E66006E616E006C66000008
:100F9E00000E0001C66F000EC56FA1C0D7F0A2C033
:100FAE00D8F0A3C0D9F0A4C0DAF0DAAF16D0000E94
:100FBE00C66F010EC56FD7C060F0D8C061F0D9C042
:100FCE0062F0DAC063F0B7EC21F060C0D7F061C018
:100FDE00D8F062C0D9F063C0DAF0000E0001DE6F07
:100FEE00000EDD6F38C0CAF039C0CBF0C551C61146
:100FFE00D8A402D03CA413D0C551C611D8A404D095
:10100E00000EB06F2B0E03D0000EB06F2D0EAF6F13
:10101E00AFC022F1DD4BDE2BCA07D8A0CB07D7C05D
:10102E0060F0D8C061F0D9C062F0DAC063F05AEC5B
:10103E001BF0000160056111D8A44CD0BF0EA66F45
:10104E00FF0EA76FA551A86FA96BA651A827A75190
:10105E00A923A95106E11A0EA85DD8B002D0010E3F
:10106E0001D0000EB16FB26BB151B211D8B40DD028
:10107E00220EDD25606F010EDE21616F890E626F1B
:10108E000F0E636F6FEC20F00CD0220EDD25606F1B
:10109E00010EDE21616F910E626F0F0E636F6FECAA
:1010AE0020F00001FD0ECA27FF0ECB239FC070F06B
:1010BE00A0C071F0220E0001726F010E736FCAC0D4
:1010CE0074F0CBC075F075EC1DF070C09FF071C060
:1010DE00A0F01200D7C060F0D8C061F0D9C062F0A5
:1010EE00DAC063F05AEC1BF0000160516111D8A414
:1010FE0034D0BF0EA66FFF0EA76FA551A86FA96BB8
:10110E00A651A827A751A923A95106E11A0EA85D39
:10111E00D8B002D0010E01D0000EB36FB46BB35134
:10112E00B411D8B40DD0220EDD25606F010EDE2174
:10113E00616F8D0E626F0F0E636F6FEC20F0B1D783
:10114E00220EDD25606F010EDE21616F950E626F3E
:10115E000F0E636F6FEC20F0A4D7000EDF6F000E42
:10116E00E06F800EE16F3F0EE26F000EDC6F000E3F
:10117E00DB6FD7C060F0D8C061F0D9C062F0DAC0C2
:10118E0063F0000E646F000E656F000E666F000E4A
:10119E00676FC3EC1DF00001D8A01ED078D0DFC061
:1011AE006EF0E0C06FF0E1C070F0E2C071F0000EC2
:1011BE00726F000E736F200E746F410E756FC5EC5B
:1011CE000FF06EC0DFF06FC0E0F070C0E1F071C0E4
:1011DE00E2F00001DB4BDC2BD7C087F0D8C088F0E3
:1011EE00D9C089F0DAC08AF0000E726F000E736FEC
:1011FE00200E746F410E756FDFC06EF0E0C06FF0A1
:10120E00E1C070F0E2C071F0C5EC0FF06EC08BF073
:10121E006FC08CF070C08DF071C08EF089EC1AF03A
:10122E000001D8A01FD0BBD7DFC060F0E0C061F0D6
:10123E00E1C062F0E2C063F0000E646F000E656FF5
:10124E00200E666F410E676F7CEC14F060C0DFF00D
:10125E0061C0E0F062C0E1F063C0E2F00001DB07C4
:10126E00D8A0DC07D7C087F0D8C088F0D9C089F0E5
:10127E00DAC08AF0DFC08BF0E0C08CF0E1C08DF0F8
:10128E00E2C08EF089EC1AF00001D8A0CDD7A5C02F
:10129E0066F0676BC3EC20F000016651CC6FCCC0DA
:1012AE00C9F0670ECC19D8A419D03A503B10D8A467
:1012BE0004D0000E3B6E010E3A6E3BBE05D03B5085
:1012CE0008E13A04D8B005D0000EC86F060EC76FFD
:1012DE0008D03AC0C7F03BC0C8F003D03BAEF9D738
:1012EE00F3D7670ECC19D8A422D0DCAF06D0FC0EF3
:1012FE00DB5DFF0EDC59D8A018D0FF0EA66FFF0ED7
:10130E00A76FC7C0A8F0C8C0A9F0A651A827A751BB
:10131E00A923DB51A85DA951800AAA6FDC51800A6E
:10132E00AA59D8A002D0660E01D0650EC96FC7C0EB
:10133E00BFF0C8C0C0F0670ECC19D8A405D0660E99
:10134E00C919D8B4DCAF02D0BF4BC02B660EC91979
:10135E00D8A416D0DCAF0CD0000EDF6F000EE06FFD
:10136E00800EE16F3F0EE26F000EDC6F000EDB6F42
:10137E00670ECC19D8B404D0DB51BF27DC51C02383
:10138E00000ED66F000ED56FD7C0CDF0D8C0CEF000
:10139E00D9C0CFF0DAC0D0F0DFC0ABF0E0C0ACF017
:1013AE00E1C0ADF0E2C0AEF07CD0CDC060F0CEC0FA
:1013BE0061F0CFC062F0D0C063F0DFC064F0E0C077
:1013CE0065F0E1C066F0E2C067F07CEC14F060C03E
:1013DE0079F061C07AF062C07BF063C07CF0C1EC42
:1013EE0015F079C0D1F07AC0D2F07BC0D3F07CC0BA
:1013FE00D4F0D1C087F0D2C088F0D3C089F0D4C069
:10140E008AF0C1EC1BF087C0C3F088C0C4F0CDC019
:10141E0097F0CEC098F0CFC099F0D0C09AF0DFC050
:10142E0072F0E0C073F0E1C074F0E2C075F0D1C0AC
:10143E006EF0D2C06FF0D3C070F0D4C071F0C5ECB6
:10144E000FF06EC09BF06FC09CF070C09DF071C02D
:10145E009EF0EAEC20F097C0CDF098C0CEF099C087
:10146E00CFF09AC0D0F0DFC060F0E0C061F0E1C014
:10147E0062F0E2C063F0000E0001646F000E656F53
:10148E00200E666F410E676F7CEC14F060C0DFF0CB
:10149E0061C0E0F062C0E1F063C0E2F00001D54B44
:1014AE00D62BBF51D55DD651800AA66FC051800A8A
:1014BE00A659D8A07AD7DFC06EF0E0C06FF0E1C0B9
:1014CE0070F0E2C071F0000E726F000E736FA00E1E
:1014DE00746F400E756FC5EC0FF06EC0D1F06FC01B
:1014EE00D2F070C0D3F071C0D4F0CDC087F0CEC0B2
:1014FE0088F0CFC089F0D0C08AF0D1C08BF0D2C0B6
:10150E008CF0D3C08DF0D4C08EF089EC1AF00001AF
:10151E00D8A016D0CDC060F0CEC061F0CFC062F0C2
:10152E00D0C063F0D1C064F0D2C065F0D3C066F015
:10153E00D4C067F0C3EC1DF00001D8B0C3B108D021
:10154E00000ED16F000ED26F000ED36F000ED46F4F
:10155E00D7C087F0D8C088F0D9C089F0DAC08AF039
:10156E00D1C08BF0D2C08CF0D3C08DF0D4C08EF031
:10157E006FEC11F087C0CDF088C0CEF089C0CFF0EF
:10158E008AC0D0F0ABC0DFF0ACC0E0F0ADC0E1F08F
:10159E00AEC0E2F0650E0001C919D8B405D0DBC0AB
:1015AE00C1F0DCC0C2F004D0000EC26F000EC16FDD
:1015BE00000EBE6F000EBD6F000EBC6F000EBB6F37
:1015CE00000ED66F000ED56FC8D0CDC060F0CEC065
:1015DE0061F0CFC062F0D0C063F0DFC064F0E0C055
:1015EE0065F0E1C066F0E2C067F07CEC14F060C01C
:1015FE0079F061C07AF062C07BF063C07CF0C1EC20
:10160E0015F079C0D1F07AC0D2F07BC0D3F07CC097
:10161E00D4F0D1C087F0D2C088F0D3C089F0D4C046
:10162E008AF0C1EC1BF087C0C3F088C0C4F03CB890
:10163E000DD00001C351C411D8A408D0670ECC1927
:10164E00D8B4C2AF03D0BB4BBC2B3AD00001BD51B6
:10165E00BE11D8B4C2AF22D0220EDD25D96E010E36
:10166E00DE21DA6E2E0EDF6EDD4BDE2BCA07D8A022
:10167E00CB07000EBE6F010EBD6F10D0220EDD2502
:10168E00D96E010EDE21DA6E300EDF6EDD4BDE2BF3
:10169E00CA07D8A0CB07BB07D8A0BC07BB51BC114B
:1016AE00D8A4ECD7220EDD25D96E010EDE21DA6E1E
:1016BE00C351300FDF6EDD4BDE2BCA07D8A0CB0730
:1016CE00CDC097F0CEC098F0CFC099F0D0C09AF0B0
:1016DE00DFC072F0E0C073F0E1C074F0E2C075F0EC
:1016EE00D1C06EF0D2C06FF0D3C070F0D4C071F024
:1016FE00C5EC0FF06EC09BF06FC09CF070C09DF0FB
:10170E0071C09EF0EAEC20F097C0CDF098C0CEF0FC
:10171E0099C0CFF09AC0D0F0DFC060F0E0C061F0A9
:10172E00E1C062F0E2C063F0000E0001646F000ED3
:10173E00656F200E666F410E676F7CEC14F060C013
:10174E00DFF061C0E0F062C0E1F063C0E2F00001E2
:10175E00C107D8A0C207D54BD62BBF51D55DD651E8
:10176E00800AA66FC051800AA659D8B008D0DEBF35
:10177E002CD7DE5104E14B0EDD5DD8A026D7BD512E
:10178E00BE11D8B43CA80AD0220EDD25D96E010EAA
:10179E00DE21DA6E2E0EDF6EDD4BDE2B220EDD2508
:1017AE00D96E010EDE21DA6E000EDF6E650EC919DE
:1017BE00D8A47CD4000ED66F4F0ED56F220ED52531
:1017CE00D96E010ED621DA6E000EDF6E000EC66FD8
:1017DE00000EC56FDCAF08D0000EC66F010EC56FD0
:1017EE00DB6DDC1FD8B0DC2B000EC86F020EC76F8E
:1017FE002CD0D507D8A0D607220ED525D96E010E2E
:10180E00D621DA6EDBC060F0DCC061F0000E636FD3
:10181E000A0E626F07EC1FF000016051300FDF6E91
:10182E00DBC060F0DCC061F0000E636F0A0E626F09
:10183E0009EC1EF060C0DBF061C0DCF00001C707F0
:10184E00D8A0C807CA07D8A0CB07DB51DC11D8A493
:10185E00D0D7C8BF05D0C851CCE1C705D8B0C9D7BD
:10186E00D507D8A0D607C551C611D8A404D0000EEE
:10187E00B66F2B0E03D0000EB66F2D0EB56F220E67
:10188E00D525D96E010ED621DA6EB5C0DFFFCA0797
:10189E00D8A0CB07D507D8A0D607BF0EA66FFF0ED0
:1018AE00A76FA551A86FA96BA651A827A751A92369
:1018BE00A95106E11A0EA85DD8B002D0010E01D0D2
:1018CE00000EB96FBA6BB951BA11D8A404D0000E7C
:1018DE00B86F650E03D0000EB86F450EB76F220EAF
:1018EE00D525D96E010ED621DA6EB7C0DFFFCA0735
:1018FE00D8A0CB07220EDD25606F010EDE21616FB1
:10190E00220ED525626F010ED621636F6FEC20F08B
:10191E005DEF08F0E5C0D9FFE6C0DAFFDECFF6FFD7
:10192E00DDCFF7FF000EF86E0800F550250AD8A49B
:10193E0008D3E5C0D9FFE6C0DAFFDE2A000EDD22AD
:10194E00000E396E000E386E38C03CF039C03DF0D6
:10195E003A683B68000E01017B6F000E15D03C808B
:10196E00E5C0D9FFE6C0DAFFDE2A000EDD2232D056
:10197E003C82F6D73C84F4D73C86F2D73C88F0D72D
:10198E00000E01017B6F010E7A6F24D0E5C0D9FFE6
:10199E00E6C0DAFFDECFF6FFDDCFF7FF000EF86E02
:1019AE000800F5500001E96FEA6BEA51000AD8A46D
:1019BE00E7D7E951200AD8B4DFD7030AD8B4DED767
:1019CE00080AD8B4D7D7060AD8B4C9D71D0AD8B4CE
:1019DE00CFD7D6D701017A517B11D8B4D7D73CB027
:1019EE003C92E5C0D9FFE6C0DAFFDECFF6FFDDCFD1
:1019FE00F7FF000EF86E0800F5502A0AD8A423D07F
:101A0E00E5C0D9FFE6C0DAFFDE2A000EDD22E7C010
:101A1E00D9FFE8C0DAFFDFCFE9F0020EDE26DFCF16
:101A2E00EAF0000EDD22E9C0D9FFEAC0DAFFDECF10
:101A3E0038F0DDCF39F039AE43D03C80386C391EEA
:101A4E00D8B0392A3DD0E5C0D9FFE6C0DAFFDECFE7
:101A5E0067F0DDCF68F026EC18F067C038F068C08C
:101A6E0039F007D0E5C0D9FFE6C0DAFFDE2A000E56
:101A7E00DD22D00E0001E96FFF0EEA6FE5C0D9FF3F
:101A8E00E6C0DAFFDECFF6FFDDCFF7FF000EF86E11
:101A9E000800F550EB6FEC6BE951EB27EA51EC23A4
:101AAE00EC5106E10A0EEB5DD8B002D0010E01D06A
:101ABE00000E01017C6F7D6B7C517D11D8A4D2D7B5
:101ACE00E5C0D9FFE6C0DAFFDECFF6FFDDCFF7FFC8
:101ADE00000EF86E0800F5502E0AD8A473D0000E32
:101AEE003B6E000E3A6EE5C0D9FFE6C0DAFFDE2A85
:101AFE00000EDD22E5C0D9FFE6C0DAFFDECFF6FF2D
:101B0E00DDCFF7FF000EF86E0800F5502A0AD8A4B4
:101B1E001CD0E5C0D9FFE6C0DAFFDE2A000EDD22BA
:101B2E00E7C0D9FFE8C0DAFFDFCFE9F0020EDE260C
:101B3E00DFCFEAF0000EDD22E9C0D9FFEAC0DAFFFE
:101B4E00DECF3AF0DDCF3BF03DD0E5C0D9FFE6C0A9
:101B5E00DAFFDECF67F0DDCF68F026EC18F067C055
:101B6E003AF068C03BF007D0E5C0D9FFE6C0DAFF17
:101B7E00DE2A000EDD22D00E0001E96FFF0EEA6FA5
:101B8E00E5C0D9FFE6C0DAFFDECFF6FFDDCFF7FF07
:101B9E00000EF86E0800F550EB6FEC6BE951EB2779
:101BAE00EA51EC23EC5106E10A0EEB5DD8B002D0FF
:101BBE00010E01D0000E01017E6F7F6B7E517F11F1
:101BCE00D8A4D2D7E5C0D9FFE6C0DAFFDECFF6FF44
:101BDE00DDCFF7FF000EF86E0800F5500001666FBE
:101BEE00676BC3EC20F0000166510101866F8651D0
:101BFE00D8B43DD0E5C0D9FFE6C0DAFFDECFE9F0BC
:101C0E00DDCFEAF0010E0001E927000EEA23E9C05C
:101C1E00F6FFEAC0F7FF000EF86E0800F550666F8B
:101C2E00676BC3EC20F0000166510101876F87518D
:101C3E00D8B41DD0E5C0D9FFE6C0DAFFDECFE9F09B
:101C4E00DDCFEAF0020E0001E927000EEA23E9C01B
:101C5E00F6FFEAC0F7FF000EF86E0800F550666F4B
:101C6E00676BC3EC20F0000166510101886FE5C07F
:101C7E00D9FFE6C0DAFFDECFF6FFDDCFF7FF000EAD
:101C8E00F86E0800F550630AD8A426D0E5C0D9FF37
:101C9E00E6C0DAFFDE2A000EDD22E7C0D9FFE8C07B
:101CAE00DAFFDFCFE9F0020EDE26DFCFEAF0000E1C
:101CBE00DD22E9C0D9FFEAC0DAFFDF50896FE3C049
:101CCE007BF0E4C07CF089C17DF09AEC20F07BC003
:101CDE00E3F07CC0E4F01200660E8619D8A441D061
:101CEE00E5C0D9FFE6C0DAFFDECFF6FFDDCFF7FFA6
:101CFE00000EF86E0800F5CF89F1E5C0D9FFE6C0F9
:101D0E00DAFFDE2A000EDD22E7C0D9FFE8C0DAFFD7
:101D1E00DFCFE9F0040EDE26DFCFEAF0000EDD2283
:101D2E00E9C0D9FFEAC0DAFFDECF82F1DECF83F160
:101D3E00DECF84F1DECF85F1E3C09FF0E4C0A0F0EA
:101D4E0082C1A1F083C1A2F084C1A3F085C1A4F029
:101D5E0089C1A5F0CFEC07F09FC0E3F0A0C0E4F07E
:101D6E001200860E0001606F010E616F990E626F98
:101D7E000F0E636F000E656F020E646F77EC1CF032
:101D8E00000160516111D8A45AD0E5C0D9FFE6C058
:101D9E00DAFFDECFE9F0DDCFEAF0010EE927000E23
:101DAE00EA23E9C0F6FFEAC0F7FF000EF86E08005E
:101DBE00F5CF89F1BF0EE96FFF0EEA6FE5C0D9FFCF
:101DCE00E6C0DAFFDECFF6FFDDCFF7FF000EF86ECE
:101DDE000800F550EB6FEC6BE951EB27EA51EC2361
:101DEE00EC5106E11A0EEB5DD8B002D0010E01D017
:101DFE00000E0101806F816B80518111E7C0D9FF08
:101E0E00E8C0DAFFDFCFE9F0040EDE26DFCFEAF01E
:101E1E00000EDD22E9C0D9FFEAC0DAFFDECF82F183
:101E2E00DECF83F1DECF84F1DECF85F1020EE5C089
:101E3E00D9FFE6C0DAFFDE26000EDD227DD7E5C033
:101E4E00D9FFE6C0DAFFDECFF6FFDDCFF7FF000EDB
:101E5E00F86E0800F550750AD8A441D0E5C0D9FF38
:101E6E00E6C0DAFFDE2A000EDD22E7C0D9FFE8C0A9
:101E7E00DAFFDFCFE9F0020EDE26DFCFEAF0000E4A
:101E8E00DD22E9C0D9FFEAC0DAFFDECFEBF0DDCF0D
:101E9E00ECF0EBC072F1ECC073F10101746B756B79
:101EAE00766B776B786B796BE3C07BF0E4C07CF07C
:101EBE0072C17DF073C17EF074C17FF075C180F088
:101ECE0076C181F077C182F078C183F079C184F058
:101EDE009EEC16F07BC0E3F07CC0E4F01200E5C08F
:101EEE00D9FFE6C0DAFFDECFF6FFDDCFF7FF000E3B
:101EFE00F86E0800F550250AD8A417D0E5C0D9FF12
:101F0E00E6C0DAFFDE2A000EDD22000E616F250E1E
:101F1E00606FE3C062F0E4C063F024EC1DF0000ECD
:101F2E000001E46F010EE36F1200E5C0D9FFE6C0B9
:101F3E00DAFFDE2A000EDD22000EE46F000EE36FE4
:101F4E001200E5C0D9FFE6C0DAFFDECFF6FFDDCF27
:101F5E00F7FF000EF86E0800F5500001606F616B20
:101F6E00E3C062F0E4C063F024EC1DF0E5C0D9FFDD
:101F7E00E6C0DAFFDE2A000EDD22D1D70001715154
:101F8E00800B7A6F71517125806F70BF8081805187
:101F9E00D8B40DD08029D8A408D0000E6E6F000ED4
:101FAE006F6F000E706F000E716F708F08D0000E85
:101FBE006E6F000E6F6F000E706F000E716F7551A9
:101FCE00800B7A1B755175257B6F74BF7B817B519E
:101FDE00D8B40DD07B29D8A408D0000E726F000E95
:101FEE00736F000E746F000E756F748F08D0000E35
:101FFE00726F000E736F000E746F000E756F7B5153
:10200E00D8B403D08051D8A409D0000E6E6F000E44
:10201E006F6F000E706F000E716F120074516E03B1
:10202E00F3CF85F0F4CF86F085517C6F7D6B7E6BA0
:10203E007F6B8651816F826B836B846B73516F03E1
:10204E00F3CF85F0F4CF86F085517C27000E7D23EB
:10205E007E237F2386518127000E822383238423B0
:10206E0072517003F3CF85F0F4CF86F085517C2743
:10207E00000E7D237E237F2386518127000E82232F
:10208E00832384237EC07FF07DC07EF07CC07DF0F4
:10209E007C6B72516F03F3CF85F0F4CF86F08551D0
:1020AE007C2786517D23000E7E23000E7F237351E5
:1020BE006E03F3CF85F0F4CF86F085517C278651E1
:1020CE007D23000E7E23000E7F237EC07FF07DC019
:1020DE007EF07CC07DF07C6B72516E03F3CF85F089
:1020EE00F4CF86F085517C2786517D23000E7E230A
:1020FE00000E7F2374516F03F3CF85F0F4CF86F07B
:10210E008551812786518223000E8323000E84235E
:10211E0073517003F3CF85F0F4CF86F0855181278C
:10212E0086518223000E8323000E84237451700384
:10213E00F3CF85F0F4CF86F08551766F8651776FA9
:10214E00786B796B78C079F077C078F076C077F0DD
:10215E00766B76518127775182237851832379517B
:10216E0084237CC076F07DC077F07EC078F07FC08F
:10217E0079F0190E05D0D8907933783377337633DA
:10218E00E82EF9D776518127775182237851832310
:10219E00795184237EC07FF07DC07EF07CC07DF0BF
:1021AE007C6B7B5180C076F0776B7627000E7723A1
:1021BE00820E7625856FFF0E7721866F0FD0D89011
:1021CE0081378237833784377FBF8181D8907C37C0
:1021DE007D377E377F378507D8A0860783AFEFD749
:1021EE00000E7B6F7FAF17D0FF0E7C15766FFF0E44
:1021FE007D15776FFF0E7E15786F7F0E7F15796FC9
:10220E007651771178117911D8B403D0010E7B6F06
:10221E0002D081B1FBD77B51D8B41FD0010E8127DC
:10222E00000E82238323842384A117D081C076F0ED
:10223E0082C077F083C078F084C079F07935793335
:10224E0078337733763376C081F077C082F078C0FA
:10225E0083F079C084F0854B862B86BF0DD08651D6
:10226E0003E18529D8A008D0000E816F000E826F81
:10227E00800E836F7F0E20D086BF05D086510EE173
:10228E008505D8B00BD0000E816F000E826F000E48
:10229E00836F000E846F000E7A6F0FD085C080F0B2
:1022AE00FF0E8117FF0E82177F0E8317000E841705
:1022BE0080B1838FD8908031846F7A51841381C01E
:1022CE006EF082C06FF083C070F084C071F01200A7
:1022DE0000018A51800B936F8A518A25956F89BFB1
:1022EE0095819551D8B40DD09529D8A408D0000E5B
:1022FE00876F000E886F000E896F000E8A6F898FB0
:10230E0006D0000E876F000E886F000E896F000ECC
:10231E008A6F8E51800B946F93519419D8A4938D1C
:10232E008E518E25946F8DBF94819451D8B40DD05B
:10233E009429D8A408D0000E8B6F000E8C6F000E5F
:10234E008D6F000E8E6F8D8F06D0000E8B6F000E70
:10235E008C6F000E8D6F000E8E6F9551945DD8B000
:10236E0022D093AD02D0800E931B95C096F094C0F0
:10237E0095F096C094F087C096F08BC087F096C00B
:10238E008BF088C096F08CC088F096C08CF089C017
:10239E0096F08DC089F096C08DF08AC096F08EC0F2
:1023AE008AF096C08EF0000E966F955194C08FF005
:1023BE00906B8F5F000E905B90BF2CD0905104E11C
:1023CE001A0E8F5DD8A026D08751881189118A11D7
:1023DE00D8B402D0010E01D0000E966F000E876F9A
:1023EE00000E886F000E896F000E8A6F94C095F0F4
:1023FE0015D096A105D0D89096310109966F02D0CE
:10240E00D890963387B1968F8A358A33893388333D
:10241E008733952B9451955DD8A0EBD793BD28D0DB
:10242E009551D8A409D0000E876F000E886F000E4C
:10243E00896F000E8A6F12008B5187278C5188236B
:10244E008D5189238E518A238AA171D096A105D0F0
:10245E00D89096310109966F02D0D890963387B1F5
:10246E00968F8A358A33893388338733952B5FD09D
:10247E008B51875D8C5188598D5189598A51800AAB
:10248E008F6F8E51800A8F59D8B025D087518B5DB2
:10249E008F6F88518C59906F89518D59916F8A51D8
:1024AE008E59926FFF0E8F25876FFF0E9021886FCA
:1024BE00FF0E9121896FFF0E92218A6F800E931B62
:1024CE00966D9651D8A40FD0010E8727000E882343
:1024DE0089238A2308D08B51875F8C51885B8D515D
:1024EE00895B8E518A5B8751881189118A11D8A414
:1024FE001CD09651D8A419D0000E876F000E886F8D
:10250E00000E896F000E8A6F1200D89087378837B9
:10251E0089378A3796BF878196A102D0D88001D09D
:10252E00D89096379551D8A4950789AFEED7000E5F
:10253E00946F96AF0BD096C08FF07F0E8F17D8B4D6
:10254E0003D0010E946F02D087B1FBD79451D8B44B
:10255E0020D0010E8727000E882389238A238AA183
:10256E0018D087C08FF088C090F089C091F08AC0D3
:10257E0092F092359233913390338F338FC087F030
:10258E0090C088F091C089F092C08AF09529D8A4A5
:10259E00952B9529D8B403D09551D8A40DD0000E03
:1025AE00876F000E886F000E896F000E8A6F95512F
:1025BE00D8A402D0000E936F95A102D0898F01D0BE
:1025CE00899FD89095318A6F93BF8A8F87C087F085
:1025DE0088C088F089C089F08AC08AF012001A502B
:1025EE00800B236E1A501A24256E19BE2580255095
:1025FE00D8B40DD02528D8A408D0000E176E000E22
:10260E00186E000E196E000E1A6E198E06D0000E80
:10261E00176E000E186E000E196E000E1A6E1E50FA
:10262E00800B246E23502418D8A4238C1E501E24F5
:10263E00246E1DBE24802450D8B40DD02428D8A4D6
:10264E0008D0000E1B6E000E1C6E000E1D6E000ECE
:10265E001E6E1D8E06D0000E1B6E000E1C6E000E22
:10266E001D6E000E1E6E2550245CD8B022D023ACF9
:10267E0002D0800E231A25C026F024C025F026C0D5
:10268E0024F017C026F01BC017F026C01BF018C090
:10269E0026F01CC018F026C01CF019C026F01DC074
:1026AE0019F026C01DF01AC026F01EC01AF026C062
:1026BE001EF0000E266E255024C01FF0206A1F5EED
:1026CE00000E205A20BE2CD0205004E11A0E1F5CA2
:1026DE00D8A026D01750181019101A10D8B402D03E
:1026EE00010E01D0000E266E000E176E000E186E33
:1026FE00000E196E000E1A6E24C025F015D026A0FD
:10270E0005D0D89026300109266E02D0D8902632F8
:10271E0017B0268E1A341A32193218321732252A69
:10272E002450255CD8A0EBD723BC28D02550D8A4A4
:10273E0009D0000E176E000E186E000E196E000EE8
:10274E001A6E12001B5017261C5018221D501922EB
:10275E001E501A221AA071D026A005D0D89026306D
:10276E000109266E02D0D890263217B0268E1A3462
:10277E001A32193218321732252A5FD01B50175CC5
:10278E001C5018581D5019581A50800A1F6E1E5092
:10279E00800A1F58D8B025D017501B5C1F6E1850DA
:1027AE001C58206E19501D58216E1A501E58226E3C
:1027BE00FF0E1F24176EFF0E2020186EFF0E212015
:1027CE00196EFF0E22201A6E800E231A266C2650CA
:1027DE00D8A40FD0010E1726000E182219221A2285
:1027EE0008D01B50175E1C50185A1D50195A1E50F7
:1027FE001A5A1750181019101A10D8A41CD0265097
:10280E00D8A419D0000E176E000E186E000E196E99
:10281E00000E1A6E1200D8901736183619361A3660
:10282E0026BE178026A002D0D88001D0D89026369A
:10283E002550D8A4250619AEEED7000E246E26AE6E
:10284E000BD026C01FF07F0E1F16D8B403D0010E7A
:10285E00246E02D017B0FBD72450D8B420D0010E6E
:10286E001726000E182219221A221AA018D017C0E5
:10287E001FF018C020F019C021F01AC022F0223427
:10288E002232213220321F321FC017F020C018F022
:10289E0021C019F022C01AF02528D8A4252A2528EF
:1028AE00D8B403D02550D8A40DD0000E176E000E4C
:1028BE00186E000E196E000E1A6E2550D8A402D096
:1028CE00000E236E25A002D0198E01D0199ED8902D
:1028DE0025301A6E23BE1A8E17C017F018C018F0C6
:1028EE0019C019F01AC01AF0120000016351800BC2
:1028FE00706F63516325776F62BF77817751D8B45C
:10290E000DD07729D8A408D0000E606F000E616F2D
:10291E00000E626F000E636F628F06D0000E606F46
:10292E00000E616F000E626F000E636F6751800BB9
:10293E00701B67516725786F66BF78817851D8B460
:10294E000DD07829D8A408D0000E646F000E656FE4
:10295E00000E666F000E676F668F06D0000E646FF6
:10296E00000E656F000E666F000E676F6451651185
:10297E0066116711D8A417D0000E606F000E616F3C
:10298E00000E626F000E636F800E62137F0E631374
:10299E007051631360C060F061C061F062C062F09C
:1029AE0063C063F012007751D8A409D0000E606F97
:1029BE00000E616F000E626F000E636F1200785191
:1029CE0077C068F0696B685F000E695B7F0E6825E3
:1029DE00716F000E6921726F60C06CF061C06DF096
:1029EE0062C06EF063C06FF0000E606F000E616F1C
:1029FE00000E626F000E636F000E736F000E746F29
:102A0E00000E756F000E766F000E786F28D078511D
:102A1E00D8B411D0D8906C376D376E376F37D890D9
:102A2E00603761376237633776BF6081D89073370E
:102A3E0074377537763764516C5D65516D596651D3
:102A4E006E5967516F59D8A009D0768D64516C5F5D
:102A5E0065516D5B66516E5B67516F5B782B190E1E
:102A6E007865D5D76C516D116E116F11D8B411D028
:102A7E0073810FD0D890603761376237633776BF76
:102A8E006081D89073377437753776377107D8A051
:102A9E00720762AFEFD7000E786F76AF17D0FF0ECA
:102AAE007315686FFF0E7415696FFF0E75156A6FDB
:102ABE007F0E76156B6F685169116A116B11D8B460
:102ACE0003D0010E786F02D060B1FBD77851D8B425
:102ADE001FD0010E6027000E61236223632363A1C2
:102AEE0017D060C068F061C069F062C06AF063C060
:102AFE006BF06B356B336A336933683368C060F0E3
:102B0E0069C061F06AC062F06BC063F0714B722BEA
:102B1E0072BF10D0725103E17129D8A00BD0000EF4
:102B2E00726F7169000E606F000E616F000E626F42
:102B3E00000E636F72BF05D0725111E17105D8B0EE
:102B4E000ED0000E726F000E716F000E606F000ED1
:102B5E00616F000E626F000E636F000E706F71C0BA
:102B6E0077F077A102D0628F01D0629FD890773133
:102B7E00636F0ED72CC089F02DC08AF02EC08BF05B
:102B8E002FC08CF079C089F07AC08AF07BC08BF0B0
:102B9E007CC08CF0810E00017D6FFF0E7E6F89C0B0
:102BAE007FF08AC080F08BC081F08CC082F0180E4E
:102BBE0005D0D8908233813380337F33E82EF9D716
:102BCE007F517D25876F000E7E21886F88BF0FD0C5
:102BDE00885104E1170E875DD8A009D079C079F02D
:102BEE007AC07AF07BC07BF07CC07CF0120088BF8C
:102BFE005FD087C07DF0FF0E7E6FFF0E7F6F7F0E62
:102C0E00806F000E816F7D6701D007D081358133D3
:102C1E0080337F337E337D2FF6D77EC083F07FC027
:102C2E0084F080C085F081C086F000018351891543
:102C3E007D6F84518A157E6F85518B157F6F8651FE
:102C4E008C15806F7D517E117F118011D8B4C6D73F
:102C5E0089C07DF08AC07EF08BC07FF08CC080F082
:102C6E00200E05D0D89080337F337E337D33E82E0F
:102C7E00F9D77D517E117F118011D8B408D08351C0
:102C8E00892784518A2385518B2386518C23831D5A
:102C9E007D6F841D7E6F851D7F6F861D806F7D51BC
:102CAE0089177E518A177F518B1780518C1736D01A
:102CBE0089C07DF08AC07EF08BC07FF08CC080F022
:102CCE00200E05D0D89080337F337E337D33E82EAF
:102CDE00F9D77D517E117F118011D8A408D0000E36
:102CEE00896F000E8A6F000E8B6F000E16D0D89073
:102CFE0089357D6F8A357E6F8B357F6F8C35806F12
:102D0E007D517E117F118011D8B408D0000E896FCD
:102D1E00000E8A6F800E8B6FBF0E8C6F89C079F09C
:102D2E008AC07AF08BC07BF08CC07CF012003BAE78
:102D3E003C923BBE05D03B5009E13A04D8B006D0D8
:102D4E00000E00018E6F010E8D6F04D03AC08DF013
:102D5E003BC08EF038C08FF039C090F07DC091F03E
:102D6E007EC092F07FC093F080C094F081C095F049
:102D7E0082C096F083C097F084C098F0000E0001D8
:102D8E009A6F4F0E996F000E0101716F77D09907F0
:102D9E00D8A09A07220E9925D96E010E9A21DA6EC5
:102DAE0091C060F092C061F093C062F094C063F085
:102DBE0095C064F096C065F097C066F098C067F055
:102DCE000A0E686F000E696F000E6A6F000E6B6F51
:102DDE00000E6C6F000E6D6F000E6E6F000E6F6F3B
:102DEE001FEC1CF060C085F061C086F062C087F0F9
:102DFE0063C088F064C089F065C08AF066C08BF04D
:102E0E0067C08CF000018551300FDF6E8D07D8A0A2
:102E1E008E078F07D8A0900791C060F092C061F026
:102E2E0093C062F094C063F095C064F096C065F0F4
:102E3E0097C066F098C067F00A0E686F000E696F53
:102E4E00000E6A6F000E6B6F000E6C6F000E6D6FD2
:102E5E00000E6E6F000E6F6FF2EC1AF060C091F004
:102E6E0061C092F062C093F063C094F064C095F0BC
:102E7E0065C096F066C097F067C098F00001995152
:102E8E009A11D8B41AD0915192119311941195119F
:102E9E00961197119811D8A47AD78EBF05D08E515E
:102EAE0002E18D05D8B073D790BF07D0905103E1E2
:102EBE008F05D8A002D03CB26AD77BC070F07CC020
:102ECE0071F0220E9925726F010E9A21736F8FC0C9
:102EDE0074F090C075F075EC1DF070C07BF071C091
:102EEE007CF0120021EE9AF0130EDE6AE806FDE287
:102EFE00550EA96E84D080EC22F067EC22F0630EA2
:102F0E000001686F0F0E696FCCEC1EF012007BECA7
:102F1E0022F067EC22F04E0E0001686F0F0E696F03
:102F2E00CCEC1EF01200020E12EC20F00101B06F7C
:102F3E00B05178EC1FF01200010E12EC20F00101DE
:102F4E00B06FB05178EC1FF0120057EC22F0120067
:102F5E00010120EE01F09851D9269951DA22DF5065
:102F6E000001F96FF951640DF3CFFAF0F4CFFBF0D5
:102F7E00010120EE02F09851D9269951DA22DF5044
:102F8E000001FC6FFC510A0DF350FA27F450FB239D
:102F9E00010120EE03F09851D9269951DA22DF5023
:102FAE000001FD6FFD51FA27000EFB23300EFA25AE
:102FBE000101AE6FEB0E0001FB210101AF6FAE51AF
:102FCE0014EC1AF075EC22F09A0E0101906F010EBE
:102FDE00916F320E926F0F0E936FAEC194F1AFC11F
:102FEE0095F1000E976F250E966F42EC20F09A0E1B
:102FFE000001686F010E696FCCEC1EF0120098C1D3
:10300E00D9FF99C1DAFFDF500001F96FFA6BFA515F
:10301E00000AD8A41200F951460AD8B499D7270A43
:10302E00D8B481D7020AD8B490D7070AD8B484D7B7
:10303E00170AD8B46CD7040AD8A412005CD7000EB5
:10304E000001756F000E746F000E6E6F000E6D6FC7
:10305E0002D0674B682B010E736F67C0F6FF68C016
:10306E00F7FF000EF86E0800F550200AD8B41AD0FB
:10307E00F70E696FFF0E6A6F67C0F6FF68C0F7FF45
:10308E00000EF86E0800F5506B6F6C6B69516B2774
:10309E006A516C236C5104E1050E6B5DD8A002D011
:1030AE00000E736F73C06FF0706B6F517011D8B4E8
:1030BE0008D0CFD7000E6E6F010E6D6F674B682B69
:1030CE0033D067C0F6FF68C0F7FF000EF86E080039
:1030DE00F550696F6A6B6A51000AD8A425D0695100
:1030EE002B0AD8B4EBD7060AD8B4E4D71DD074C0D7
:1030FE0060F075C061F0000E636F0A0E626FFCEC3B
:10310E0021F067C0F6FF68C0F7FF000EF86E0800EA
:10311E00F5500001605F000E615B300E6025746F2C
:10312E00000E6121756FCAD7D00E696FFF0E6A6FE0
:10313E0067C0F6FF68C0F7FF000EF86E0800F55086
:10314E006B6F6C6B69516B276A516C236C5106E186
:10315E000A0E6B5DD8B002D0010E01D0000E716F59
:10316E00726B71517211D8A4C2D76D516E11D8A461
:10317E000DD074C069F075C06AF0691F6A1F694B83
:10318E006A2B69C067F06AC068F0120074C067F0FD
:10319E0075C068F012000001686F00016851D8A474
:1031AE0063AF1AD060C064F061C065F062C066F0B3
:1031BE0063C067F0641F651F661F671F642B000ED8
:1031CE0065236623672364C06AF065C06BF066C032
:1031DE006CF067C06DF008D060C06AF061C06BF033
:1031EE0062C06CF063C06DF06051611162116311C9
:1031FE00D8A409D0000E606F000E616F000E626FD2
:10320E00000E636F1200960E696F06D0692BD89070
:10321E006D336C336B336A33000E6A15646F000EB8
:10322E006B15656F000E6C15666FFE0E6D15676F74
:10323E006451651166116711D8B40DD0E7D7692BAB
:10324E00010E6A27000E6B236C236D23D8906D330D
:10325E006C336B336A33000E6A15646F000E6B1598
:10326E00656F000E6C15666FFF0E6D15676F6451FE
:10327E00651166116711D8B407D0E1D76907D890E8
:10328E006A376B376C376D376CBF03D0020E6961CE
:10329E00F5D769A16C9FD890693369C064F0656BEE
:1032AE00666B676B64C067F0666B656B646B6451CD
:1032BE006A1365516B1366516C1367516D13685128
:1032CE00D8A463AF01D06D8F6AC060F06BC061F09F
:1032DE006CC062F06DC063F01200116E1150D8A474
:1032EE000CAE1AD009C00DF00AC00EF00BC00FF0D4
:1032FE000CC010F00D1E0E1E0F1E101E0D2A000EFD
:10330E000E220F2210220DC013F00EC014F00FC0AB
:10331E0015F010C016F008D009C013F00AC014F052
:10332E000BC015F00CC016F009500A100B100C1043
:10333E00D8A409D0000E096E000E0A6E000E0B6E98
:10334E00000E0C6E1200960E126E06D0122AD89037
:10335E001632153214321332000E13140D6E000E87
:10336E0014140E6E000E15140F6EFE0E1614106E43
:10337E000D500E100F101010D8B40DD0E7D7122A22
:10338E00010E1326000E142215221622D890163284
:10339E00153214321332000E13140D6E000E141467
:1033AE000E6E000E15140F6EFF0E1614106E0D50CD
:1033BE000E100F101010D8B407D0E1D71206D89007
:1033CE00133614361536163615BE03D0020E12609D
:1033DE00F5D712A0159ED890123212C00DF00E6ABB
:1033EE000F6A106A0DC010F00F6A0E6A0D6A0D504A
:1033FE0013120E5014120F501512105016121150A7
:10340E00D8A40CAE01D0168E13C009F014C00AF069
:10341E0015C00BF016C00CF0120000019F6FA60E27
:10342E000001726F9B0E736FC40E746F3B0E756F3F
:10343E009F51606F616B626B636B010ED2EC18F083
:10344E0060C06EF061C06FF062C070F063C071F06A
:10345E00C5EC0FF06EC087F06FC088F070C089F0B9
:10346E0071C08AF09A0E00018B6F990E8C6F190E37
:10347E008D6F3F0E8E6F6FEC11F087C097F088C086
:10348E0098F089C099F08AC09AF0000E0001726F10
:10349E00000E736F800E746F400E756F97C06EF0D6
:1034AE0098C06FF099C070F09AC071F0C5EC0FF033
:1034BE006EC09BF06FC09CF070C09DF071C09EF00E
:1034CE00000E0001726F000E736FFA0E746F420ED3
:1034DE00756F9BC06EF09CC06FF09DC070F09EC06B
:1034EE0071F0C5EC0FF06EC087F06FC088F070C041
:1034FE0089F071C08AF0C1EC1BF087C050F088C013
:10350E0051F01200000E000187158F6F000E881506
:10351E00906F800E8915916F7F0E8A15926F8F5165
:10352E00901191119211D8A408D0000E876F000E41
:10353E00886F000E896F000E8A6F000E8B158F6FCD
:10354E00000E8C15906F800E8D15916F7F0E8E155F
:10355E00926F8F51901191119211D8A408D0000E34
:10356E008B6F000E8C6F000E8D6F000E8E6F8AAFFC
:10357E0009D0876D881FD8B0882B891FD8B0892BAA
:10358E00800E8A578EAF09D08B6D8C1FD8B08C2BC6
:10359E008D1FD8B08D2B800E8E57000E871B000E00
:1035AE00881B000E891B800E8A1B000E8B1B000EC3
:1035BE008C1B000E8D1B800E8E1B8B51875D8C51CC
:1035CE0088598D5189598E518A59D8B002D0D890C8
:1035DE001200D880120020EE70F0070EDE6AE806A8
:1035EE00FDE20001685169116A116B116C116D11C8
:1035FE006E116F11D8B446D0010E786F0AD0D890E4
:10360E00683769376A376B376C376D376E376F3798
:10361E00782B6FAFF4D7D890703771377237733706
:10362E0074377537763777376851605D69516159F0
:10363E006A5162596B5163596C5164596D51655998
:10364E006E5166596F516759D8A011D06851605F9D
:10365E006951615B6A51625B6B51635B6C51645B78
:10366E006D51655B6E51665B6F51675B7081D89073
:10367E006F336E336D336C336B336A336933683348
:10368E00782FC9D770C060F071C061F072C062F05F
:10369E0073C063F074C064F075C065F076C066F0F8
:1036AE0077C067F0120030C06AF031C06BF032C0E4
:1036BE006CF033C06DF060C06AF061C06BF062C038
:1036CE006CF063C06DF06AC064F06BC065F06CC0E6
:1036DE0066F06DC067F0180E06D00001D890673303
:1036EE00663365336433E82EF8D76451686F696BBF
:1036FE0068516911D8A419D0D8906A35646F6B35AA
:10370E00656F6C35666F6D35676F64516511661147
:10371E006711D8A405D0000E616F020E606F120003
:10372E00000E616F030E606F120068296911D8A434
:10373E001CD06AC064F06BC065F06CC066F06DC0E2
:10374E0067F0090ED8906437653766376737E82E0D
:10375E00F9D76451651166116711D8A402D0010E14
:10376E0001D0000E606F616B1200000E616F040ECF
:10377E00606F1200000189358A35906F9051D8A480
:10378E0009D0000E876F000E886F000E896F000E35
:10379E008A6F120087C08BF088C08CF089C08DF0C4
:1037AE008AC08EF0200E05D0D8908E338D338C3398
:1037BE008B33E82EF9D78B518F6F898FFF0E8717BA
:1037CE00FF0E8817FF0E8917000E8A17960E905F50
:1037DE0090AF0DD09051800A970FD8A0D2D7D89025
:1037EE008A33893388338733903FF9D70DD01F0E34
:1037FE00906507D0C6D7D8908737883789378A37EC
:10380E0090079051D8A4F7D78F51D8B408D08A1FFB
:10381E00891F881F876D000E882389238A2387C0FE
:10382E0087F088C088F089C089F08AC08AF01200BB
:10383E000001685169116A116B116C116D116E11D5
:10384E006F11D8B43CD0010E706F0AD0D890683783
:10385E0069376A376B376C376D376E376F37702B4A
:10386E006FAFF4D76851605D695161596A51625901
:10387E006B5163596C5164596D5165596E5166594E
:10388E006F516759D8A010D06851605F6951615B64
:10389E006A51625B6B51635B6C51645B6D51655B2E
:1038AE006E51665B6F51675BD8906F336E336D33BD
:1038BE006C336B336A3369336833702FD3D760C080
:1038CE0060F061C061F062C062F063C063F064C01A
:1038DE0064F065C065F066C066F067C067F0120000
:1038EE0060C067F061C068F062C069F063C06AF0E2
:1038FE0000016407D8A0650764290FE16529D8A4E3
:10390E000CD0000E616F000E606F1200674B682BBB
:10391E00694B6A2B6407D8A0650767C0D9FF68C0DA
:10392E00DAFFDF50D8B420D069C0F6FF6AC0F7FFC7
:10393E00000EF86E0800F5500009D8B415D0645189
:10394E006511D8B411D067C0D9FF68C0DAFFDF5057
:10395E00666F69C0F6FF6AC0F7FF000EF86E0800CA
:10396E00F5506619D8B4D2D767C0D9FF68C0DAFF50
:10397E00DF50666F69C0F6FF6AC0F7FF000EF86E83
:10398E000800F550665D606F616BD8A0610712008C
:10399E0021EEBFF011EEB1F0050EDBCFE3FFE8062E
:1039AE00FCE221EEB7F0070EDE6AE806FDE233EC2C
:1039BE0022F0B10E0001686F010E696FCCEC1EF0A3
:1039CE0001012105D8A408D0000E216F440E986F76
:1039DE00000E996F79EC17F001012005D8A404D0E0
:1039EE00000E206F69EC21F001011F05D8A405D04F
:1039FE00000E1F6F020E40EC1FF001011E05D8A431
:103A0E00DFD7000E1E6FB70E906F010E916F770EFF
:103A1E00926F0F0E936F34C094F135C095F136C08E
:103A2E0096F137C097F142EC20F0B70E0001686FA7
:103A3E00010E696FCCEC1EF0C3D700016251631109
:103A4E00D8B404D062516311D8A404D060518CEC68
:103A5E0022F0120020EE04F06251D9266351DA22D0
:103A6E00DE50DE10D8B416D020EE04F06251D92606
:103A7E006351DA2210EE02F06251E1266351E22226
:103A8E00DE50E65CE650800A686FDE50800A6859A8
:103A9E00D8B0120020EE02F06251D9266351DA221C
:103AAE00DECF64F0DDCF65F062C0D9FF63C0DAFF10
:103ABE00DECF66F0DDCF67F064516625D96E6551B5
:103ACE006721DA6E60C0DFFF20EE02F06251D92668
:103ADE006351DA22DE2A000EDD2212003CA00AD04B
:103AEE0072C069F073C06AF070C06BF071C06CF098
:103AFE002EEC21F0000175BF05D074C079F075C0B1
:103B0E007AF004D0000E7A6F000E796F000E786F87
:103B1E00000E776F0DD0000E616F200E606F70C0BB
:103B2E0062F071C063F024EC1DF00001774B782B2E
:103B3E007951775D7851800A766F7A51800A76597D
:103B4E00D8A0E9D73CB00AD072C069F073C06AF051
:103B5E0070C06BF071C06CF02EEC21F072C060F092
:103B6E0073C061F0CFEC21F0000179516025706FC8
:103B7E007A516121716F1200000E00016015686F9D
:103B8E00000E6115696F800E62156A6F7F0E6315E8
:103B9E006B6F685169116A116B11D8A408D0000EB1
:103BAE00606F000E616F000E626F000E636F000E8D
:103BBE006415686F000E6515696F800E66156A6F65
:103BCE007F0E67156B6F685169116A116B11D8A45E
:103BDE0008D0000E646F000E656F000E666F000E4B
:103BEE00676F645160190AE16551611907E1665109
:103BFE00621904E167516319D8B402D0D89012004B
:103C0E00D8801200000E0001656F63AF06D0626DA2
:103C1E00631FD8B0632B010E656F61AF06D0606D68
:103C2E00611FD8B0612B010E651B000E676F000E71
:103C3E00666F62516311D8B41CD0010E646F04D04C
:103C4E00D89062376337642B63AFFAD7D890663754
:103C5E0067376251605D63516159D8A005D06251DA
:103C6E00605F6351615B6681D89063336233642F0A
:103C7E00EDD76551D8B404D0666D671FD8B0672BE9
:103C8E0066C060F067C061F01200000E066E04AEF2
:103C9E0006D0036C041ED8B0042A010E066E02AEC6
:103CAE0006D0016C021ED8B0022A010E061A000EB2
:103CBE00086E000E076E03500410D8B41CD0010E0F
:103CCE00056E04D0D89003360436052A04AEFAD712
:103CDE00D890073608360350015C04500258D8A01D
:103CEE0005D00350015E0450025A0780D89004326A
:103CFE000332052EEDD70650D8B404D0076C081E3B
:103D0E00D8B0082A07C001F008C002F0120060C047
:103D1E00F6FF61C0F7FF000EF86E0E0EF76403D0CB
:103D2E000800F55005D0F6CFE1FFF7CFE2FFE750E0
:103D3E000001666F010E676F000E656F000E646FF7
:103D4E001CD067516025626F000E6121636F62C0E7
:103D5E00F6FF63C0F7FF000EF86E0E0EF76403D089
:103D6E000800F55005D0F6CFE1FFF7CFE2FFE750A0
:103D7E000001666F672B644B652B6651D8A4E1D7A3
:103D8E0064C060F065C061F0120068C060F069C088
:103D9E0061F08EEC1EF060C06CF061C06DF0000E34
:103DAE0000016E6F23D06E5168256A6F000E692177
:103DBE006B6F6AC0F6FF6BC0F7FF000EF86E0E0E4B
:103DCE00F76403D00800F55005D0F6CFE1FFF7CF2A
:103DDE00E2FFE750AE6E2F0E00016A6FBF0EE82EA7
:103DEE00FED76A2FFCD700D000016E2B6E516A6F82
:103DFE006B6B6C516A5D6D516B59D8B01200D3D795
:103E0E00000E0001656F61AF06D0606D611FD8B006
:103E1E00612B010E656F63AF04D0626D631FD8B066
:103E2E00632B62516311D8B418D0010E646F04D0A5
:103E3E00D89062376337642B63AFFAD76251605DF7
:103E4E0063516159D8A004D06251605F6351615BC8
:103E5E00D89063336233642FF1D76551D8B404D050
:103E6E00606D611FD8B0612B60C060F061C061F001
:103E7E0012000001A26F57EC22F023D0000E14ECBA
:103E8E001AF07BEC22F067EC22F03D0E0001A16FE0
:103E9E00E10EA06F3F0EE82EFED7A02FFCD7A12F6C
:103EAE00FAD700D080EC22F0810E0001686F0F0E61
:103EBE00696FCCEC1EF0320E14EC1AF04CEC21F0C3
:103ECE0012000001A251A06FA16BA151000AD8A44B
:103EDE001200A051010AD8B41200030AD8A412008D
:103EEE00CDD70001626F0E0E0001636F07D00E0E6C
:103EFE0003D00F0E01D00D0E636F11D06251606FA3
:103F0E00616B6151000AD8A40AD06051000AD8B47E
:103F1E00F0D75A0AD8B4EBD7EE0AD8B4ECD783B898
:103F2E0005D063C04EF04F6A838809D06351C8082C
:103F3E004E6E000ED8A0E82A00084F6E8398000E31
:103F4E00416E000E0101206F0F0122811200110E31
:103F5E00F66E450EF76E000EF86E01EEBFF010EE27
:103F6E0006F00900F5CFEEFFE550E150FAE10A0E3A
:103F7E00F66E450EF76E000EF86E00EE4EF010EE79
:103F8E0007F00900F5CFEEFFE550E150FAE101EE42
:103F9E0000F0720EEE6AE806FDE10001FE6B00EE27
:103FAE002CF0220EEE6AE806FDE1559055920001C6
:103FBE00CFEF1CF08CC1EDF08DC1EEF0000E0101C3
:103FCE001D6F000E1C6F17D08AC1E3F08BC1E4F099
:103FDE00ED0E0001E56F000EE66F8EC1E7F08FC1AA
:103FEE00E8F091EC0CF00001E35101011C270001F7
:103FFE00E45101011D23EDC0F6FFEEC0F7FF000EE8
:10400E00F86E0800F5500009D8A4DED71CC18AF15D
:10401E001DC18BF112000001626F5A0E0001636F19
:10402E0017D06205D8A404D0010E406E000E0ED03B
:10403E00020E406E0AD06205D8B4F8D7000E406E5C
:10404E005A0E04D06205D8B4F9D7B40E636F11D0EE
:10405E004050606F616B6151000AD8A40AD0605164
:10406E00000AD8B4DED7010AD8B4E5D7030AD8B40B
:10407E00E9D763511200940E0001F16F010EF26F39
:10408E0090C1F3F091C1F4F0000EF66F000EF56FD3
:10409E00000EF86F000EF76FF30E01018A6F000E1F
:1040AE008B6F92C18CF193C18DF1F10E8E6F000E5C
:1040BE008F6FE1EC1FF00001F55101019025D96ED3
:1040CE000001F65101019121DA6E000EDF6E120031
:1040DE0062C066F063C067F060C068F061C069F0EE
:1040EE0000016651646F6751656F664B672B64C044
:1040FE00F6FF65C0F7FF000EF86E68C0D9FF69C005
:10410E00DAFF684B692B0E0EF76403D00800F550EA
:10411E0005D0F6CFE1FFF7CFE2FFE750DF6EDF50BD
:10412E00D8B41200DDD738503910D8A405D038C015
:10413E007EF039C07FF007D0FF0E382400017E6F6D
:10414E00FF0E39207F6F7DC022F1000E0101236F1B
:10415E007BC070F07CC071F0220E0001726F010EF8
:10416E00736F7EC074F07FC075F075EC1DF070C07B
:10417E007BF071C07CF01200BF0E0001686FFF0E65
:10418E00696F66C06AF067C06BF068516A27695143
:10419E006B236B5106E11A0E6A5DD8B002D0010E88
:1041AE0001D0000E6C6F6D6B6C516D11D8B406D0D2
:1041BE00200E6611666F6751676F120066C066F05B
:1041CE0067C067F01200000E00019B1B000E9C1BC7
:1041DE00000E9D1B800E9E1B97C087F098C088F026
:1041EE0099C089F09AC08AF09BC08BF09CC08CF06D
:1041FE009DC08DF09EC08EF06FEC11F087C097F0D1
:10420E0088C098F089C099F08AC09AF01200010E09
:10421E000001666F200E60196111D8B414D0F70E2C
:10422E00626FFF0E636F60C064F061C065F0625133
:10423E00642763516523655104E1050E645DD8A0C2
:10424E0002D0000E666F66C060F0616B1200000E49
:10425E0000016F6F000E6E6F0CD06DC060F0616B61
:10426E006BC062F06CC063F024EC1DF000016E4B6D
:10427E006F2B6E516925D96E6F516A21DA6EDF5040
:10428E006D6F6D51D8B41200E8D750C060F0030EB8
:10429E0000016017603B0F01095100016019CF0B3F
:1042AE0060190F01096F50C060F051C061F000013C
:1042BE00D89061336033D8906133603360510F0111
:1042CE000A6F120083A80CD083984EC054F054503D
:1042DE00C8084E6E000ED8A0E82A00084F6E04D013
:1042EE00838854C04EF04F6A1E0E3F18D8A4120099
:1042FE000F0122918398000E3F6E1200BF0E000137
:10430E00626FFF0E636F60C064F061C065F0625152
:10431E00642763516523655106E11A0E645DD8B0BA
:10432E0002D0010E01D0000E606F616B1200D00E34
:10433E000001626FFF0E636F60C064F061C065F0D4
:10434E006251642763516523655106E10A0E645D6F
:10435E00D8B002D0010E01D0000E606F616B12005A
:10436E0000016051611162116311D8B408D0000EC2
:10437E00601B000E611B000E621B800E631B60C073
:10438E0060F061C061F062C062F063C063F0120061
:10439E0060C062F061C063F003D00001604B612B1E
:1043AE0060C0D9FF61C0DAFFDF50D8A4F6D7000194
:1043BE006251605D606F63516159616F12000F0150
:1043CE000951CF0B2009096F700E0A6FCA84040EB3
:1043DE000001616F0C0E606F330EE82EFED7602F5A
:1043EE00FCD7612FFAD700D0120000016051620392
:1043FE00F3CF64F0F4CF65F060516303F35065279B
:10440E0061516203F350652764C060F065C061F0CE
:10441E001200959C958E000E0E01BF6F060ED76F83
:10442E00180EF76F220EA86E900E9C6E7C964D0E97
:10443E00AB6EA49AA38A12009398939E0F01095112
:10444E00F00B0C09096F3F0E5117020ECA6E7C0E4F
:10445E00CB6E000ECC6E12005FEC22F023EC22F03D
:10446E006EEC22F040EC22F04CEC22F010EC22F03C
:10447E001200948E949C220EAD6E900EAC6E7E96B3
:10448E004D0EB06E9E9A9D8A120095988398320EAC
:10449E000F01226F24696A0E236F91849894120083
:1044AE00CF0E0F010917000E0A6F000E436E120099
:1044BE007F0E0F01486F1F0E496F9290929212005D
:1044CE00E6EC21F04CEC21F0010E436E12009380CD
:1044DE00F28EF28CF19CF292F28812004304D8A470
:1044EE0012004CEC21F0120080908092809080821D
:1044FE00120080908092808080921200B900C201DA
:09450E00C2010F484F4C4121008D
:0245180012008F
:020000040001F9
:08FFF800AAF7FDFFF3F9FFFB7E
:00000001FF
