:020000040000FA
:04000000E5EF00F038
:100008005282D9CF27F0DACF28F09EAA16D0AFCFE8
:1000180029F0500E2918D8A406D0010E0001D96F76
:10002800000E406EC8D0420E4024D96EDA6A000E27
:10003800DA2229C0DFFF402ABED098A416D09894AF
:10004800384A392A0F012469E20E236F4E503818B6
:1000580003E14F503918D8A4AED0000E396E000E07
:10006800386E010E0001D86FA6D0A4A613D0A496AE
:10007800364A372AB50E786EE80E361803E1030EB5
:100088003718D8A498D0000E376E000E366E550E6D
:10009800A96E91D098A823D01F0E0F011D6F9898B4
:1000A800010E2E26000E2F22302231222A502E1821
:1000B80009E12B502F187FE12C5030187CE12D508E
:1000C8003118D8A478D0000E2E6E000E2F6E000EB8
:1000D800306E000E316E010E0001D56F6CD0F2A2A9
:1000E80005D0F292010E0001D76F65D0A4AA57D0AF
:1000F8003E04D8A435D0010E0001D66F32C017F0E7
:1001080033C018F034C019F035C01AF0000E046E70
:100118000A0E036EAACF01F0026AE0EC10F001C0EB
:1001280009F002C00AF0000E0ABEFF0E0B6E0C6E3C
:10013800010EBDEC0EF009C01BF00AC01CF00BC08C
:100148001DF00CC01EF020EC0BF017C032F018C0E8
:1001580033F019C034F01AC035F0000E3E6E2BD0C3
:10016800000E046E0A0E036EAA50026E016AE0ECDD
:1001780010F001C009F002C00AF0000E0ABEFF0E1E
:100188000B6E0C6E010EBDEC0EF009C032F00AC009
:1001980033F00BC034F00CC035F03E2A0CD0F0B070
:1001A800F0A609D0F090770E3C18D8A404D0F096A9
:1001B800010E0001DA6F28C0DAFF27C0D9FF52927A
:0601C800110003EF12F02C
:100F000000506F72204661766F722C2063616C69AD
:100F100062726520656C2073656E736F72004D4F51
:100F2000444F2050524F4752414D41444F5220416F
:100F30004354495641444F210052454E44494D4F78
:100F4000532043414D504F53205041504545454556
:100F500021004D69206E6F6D6272652065732043BC
:100F60006861726D616E6465720045534341504122
:100F70004E444F2044454C20465545474F2E2E2E7B
:100F8000005665686963756C6F20656E20726576C2
:100F90006572736121004E6F206D65206465737406
:100FA000727579617321203A2728004D6F746F7232
:100FB000657320656E63656E6469646F73210041BB
:100FC00075746F206672656E61646F2100484F4CC6
:100FD00041212E2E2E00465545474F21000000018D
:100FE0007151800B7A6F71517125806F70BF808154
:100FF0008051D8B40DD08029D8A408D0000E6E6FCF
:10100000000E6F6F000E706F000E716F708F08D042
:10101000000E6E6F000E6F6F000E706F000E716F1E
:101020007551800B7A1B755175257B6F74BF7B8161
:101030007B51D8B40DD07B29D8A408D0000E726F94
:10104000000E736F000E746F000E756F748F08D0F2
:10105000000E726F000E736F000E746F000E756FCE
:101060007B51D8B403D08051D8A409D0000E6E6F44
:10107000000E6F6F000E706F000E716F12007451D2
:101080006E03F3CF85F0F4CF86F085517C6F7D6BD6
:101090007E6B7F6B8651816F826B836B846B735128
:1010A0006F03F3CF85F0F4CF86F085517C27000ED7
:1010B0007D237E237F2386518127000E8223832375
:1010C000842372517003F3CF85F0F4CF86F08551FD
:1010D0007C27000E7D237E237F2386518127000EEF
:1010E0008223832384237EC07FF07DC07EF07CC07A
:1010F0007DF07C6B72516F03F3CF85F0F4CF86F0F7
:1011000085517C2786517D23000E7E23000E7F2390
:1011100073516E03F3CF85F0F4CF86F085517C27B1
:1011200086517D23000E7E23000E7F237EC07FF03C
:101130007DC07EF07CC07DF07C6B72516E03F3CF7E
:1011400085F0F4CF86F085517C2786517D23000EF3
:101150007E23000E7F2374516F03F3CF85F0F4CF0D
:1011600086F08551812786518223000E8323000E4D
:10117000842373517003F3CF85F0F4CF86F085514B
:10118000812786518223000E8323000E842374510D
:101190007003F3CF85F0F4CF86F08551766F8651DA
:1011A000776F786B796B78C079F077C078F076C01C
:1011B00077F0766B7651812777518223785183239C
:1011C000795184237CC076F07DC077F07EC078F0C2
:1011D0007FC079F0190E05D0D89079337833773302
:1011E0007633E82EF9D776518127775182237851CB
:1011F0008323795184237EC07FF07DC07EF07CC044
:101200007DF07C6B7B5180C076F0776B7627000E8B
:101210007723820E7625856FFF0E7721866F0FD09C
:10122000D89081378237833784377FBF8181D890C8
:101230007C377D377E377F378507D8A0860783AF19
:10124000EFD7000E7B6F7FAF17D0FF0E7C15766F48
:10125000FF0E7D15776FFF0E7E15786F7F0E7F1561
:10126000796F7651771178117911D8B403D0010EC6
:101270007B6F02D081B1FBD77B51D8B41FD0010E58
:101280008127000E82238323842384A117D081C069
:1012900076F082C077F083C078F084C079F0793539
:1012A000793378337733763376C081F077C082F044
:1012B00078C083F079C084F0854B862B86BF0DD033
:1012C000865103E18529D8A008D0000E816F000E59
:1012D000826F800E836F7F0E20D086BF05D086512F
:1012E0000EE18505D8B00BD0000E816F000E826F25
:1012F000000E836F000E846F000E7A6F0FD085C0D2
:1013000080F0FF0E8117FF0E82177F0E8317000EED
:10131000841780B1838FD8908031846F7A51841381
:1013200081C06EF082C06FF083C070F084C071F035
:10133000120000018A51800B936F8A518A25956FA4
:1013400089BF95819551D8B40DD09529D8A408D0DE
:10135000000E876F000E886F000E896F000E8A6F77
:10136000898F06D0000E876F000E886F000E896F80
:10137000000E8A6F8E51800B946F93519419D8A4EC
:10138000938D8E518E25946F8DBF94819451D8B4D6
:101390000DD09429D8A408D0000E8B6F000E8C6F4E
:1013A000000E8D6F000E8E6F8D8F06D0000E8B6F2E
:1013B000000E8C6F000E8D6F000E8E6F9551945D38
:1013C000D8B022D093AD02D0800E931B95C096F07A
:1013D00094C095F096C094F087C096F08BC087F0CB
:1013E00096C08BF088C096F08CC088F096C08CF0C8
:1013F00089C096F08DC089F096C08DF08AC096F0B5
:101400008EC08AF096C08EF0000E966F955194C0F3
:101410008FF0906B8F5F000E905B90BF2CD090513F
:1014200004E11A0E8F5DD8A026D08751881189114A
:101430008A11D8B402D0010E01D0000E966F000EB2
:10144000876F000E886F000E896F000E8A6F94C040
:1014500095F015D096A105D0D89096310109966FD8
:1014600002D0D890963387B1968F8A358A338933E4
:1014700088338733952B9451955DD8A0EBD793BDD6
:1014800028D09551D8A409D0000E876F000E886F20
:10149000000E896F000E8A6F12008B5187278C51C6
:1014A00088238D5189238E518A238AA171D096A1D8
:1014B00005D0D89096310109966F02D0D890963316
:1014C00087B1968F8A358A33893388338733952B52
:1014D0005FD08B51875D8C5188598D5189598A51C4
:1014E000800A8F6F8E51800A8F59D8B025D08751CE
:1014F0008B5D8F6F88518C59906F89518D59916F89
:101500008A518E59926FFF0E8F25876FFF0E9021A3
:10151000886FFF0E9121896FFF0E92218A6F800ED6
:10152000931B966D9651D8A40FD0010E8727000EFD
:10153000882389238A2308D08B51875F8C51885B4D
:101540008D51895B8E518A5B8751881189118A116F
:10155000D8A41CD09651D8A419D0000E876F000EC5
:10156000886F000E896F000E8A6F1200D89087373F
:10157000883789378A3796BF878196A102D0D8806D
:1015800001D0D89096379551D8A4950789AFEED75A
:10159000000E946F96AF0BD096C08FF07F0E8F1712
:1015A000D8B403D0010E946F02D087B1FBD7945109
:1015B000D8B420D0010E8727000E882389238A23E0
:1015C0008AA118D087C08FF088C090F089C091F0B0
:1015D0008AC092F092359233913390338F338FC01B
:1015E00087F090C088F091C089F092C08AF0952968
:1015F000D8A4952B9529D8B403D09551D8A40DD053
:10160000000E876F000E886F000E896F000E8A6FC4
:101610009551D8A402D0000E936F95A102D0898F66
:1016200001D0899FD89095318A6F93BF8A8F87C0E8
:1016300087F088C088F089C089F08AC08AF01200DB
:101640001A50800B236E1A501A24256E19BE25805D
:101650002550D8B40DD02528D8A408D0000E176E78
:10166000000E186E000E196E000E1A6E198E06D03E
:10167000000E176E000E186E000E196E000E1A6E18
:101680001E50800B246E23502418D8A4238C1E5087
:101690001E24246E1DBE24802450D8B40DD02428CE
:1016A000D8A408D0000E1B6E000E1C6E000E1D6E1E
:1016B000000E1E6E1D8E06D0000E1B6E000E1C6EE0
:1016C000000E1D6E000E1E6E2550245CD8B022D078
:1016D00023AC02D0800E231A25C026F024C025F0AA
:1016E00026C024F017C026F01BC017F026C01BF040
:1016F00018C026F01CC018F026C01CF019C026F037
:101700001DC019F026C01DF01AC026F01EC01AF028
:1017100026C01EF0000E266E255024C01FF0206A41
:101720001F5E000E205A20BE2CD0205004E11A0E5D
:101730001F5CD8A026D01750181019101A10D8B452
:1017400002D0010E01D0000E266E000E176E000EA4
:10175000186E000E196E000E1A6E24C025F015D0FA
:1017600026A005D0D89026300109266E02D0D89048
:10177000263217B0268E1A341A321932183217321E
:10178000252A2450255CD8A0EBD723BC28D025508F
:10179000D8A409D0000E176E000E186E000E196E38
:1017A000000E1A6E12001B5017261C5018221D50D6
:1017B00019221E501A221AA071D026A005D0D89046
:1017C00026300109266E02D0D890263217B0268E18
:1017D0001A341A32193218321732252A5FD01B50A8
:1017E000175C1C5018581D5019581A50800A1F6E4B
:1017F0001E50800A1F58D8B025D017501B5C1F6E92
:1018000018501C58206E19501D58216E1A501E5821
:10181000226EFF0E1F24176EFF0E2020186EFF0E83
:101820002120196EFF0E22201A6E800E231A266CBC
:101830002650D8A40FD0010E1726000E1822192208
:101840001A2208D01B50175E1C50185A1D50195AE6
:101850001E501A5A1750181019101A10D8A41CD05C
:101860002650D8A419D0000E176E000E186E000E68
:10187000196E000E1A6E1200D890173618361936E7
:101880001A3626BE178026A002D0D88001D0D89064
:1018900026362550D8A4250619AEEED7000E246EA4
:1018A00026AE0BD026C01FF07F0E1F16D8B403D073
:1018B000010E246E02D017B0FBD72450D8B420D02C
:1018C000010E1726000E182219221A221AA018D06B
:1018D00017C01FF018C020F019C021F01AC022F064
:1018E00022342232213220321F321FC017F020C092
:1018F00018F021C019F022C01AF02528D8A4252AF2
:101900002528D8B403D02550D8A40DD0000E176ECA
:10191000000E186E000E196E000E1A6E2550D8A417
:1019200002D0000E236E25A002D0198E01D0199E80
:10193000D89025301A6E23BE1A8E17C017F018C023
:1019400018F019C019F01AC01AF01200DFEC12F0EA
:10195000CD0E0001686F0F0E696FD1EC11F06E0EA5
:101960000001C06F940EBF6FA70EE82EFED7BF2FE9
:10197000FCD7C02FFAD700D0520E0001686F0F0EAF
:10198000696FD1EC11F06E0E0001C06F940EBF6F45
:10199000A70EE82EFED7BF2FFCD7C02FFAD700D056
:1019A000960E0001686F0F0E696FD1EC11F05C0E9E
:1019B0000001C06F510EBF6F600EE82EFED7BF2F23
:1019C000FCD7C02FFAD700F0010E0001686F0F0E90
:1019D000696FD1EC11F07684770E3C18D8A44FD003
:1019E0000001D605D8A420D0000ED66F000E606F7F
:1019F000000E616FB00E626F410E636F32C064F013
:101A000033C065F034C066F035C067F0D2EC0FF03B
:101A10000001D8A009D048EC13F0BF0E0001686F98
:101A20000F0E696FD1EC11F00001DA05D8A414D0C3
:101A3000000EDA6F000E2E6E000E2F6E000E306E4E
:101A4000000E316E010E63EC11F06A0E0001686F3A
:101A50000F0E696FD1EC11F00001D505D8A40FD09D
:101A60000F011B95000E2E6E000E2F6E000E306EB5
:101A7000000E316E000E0001D56F9EEC11F0730E5A
:101A80003C18D8A409D00001D705D8A405D0000E71
:101A9000D76F020E63EC11F00001D905D8A408D06D
:101AA000000ED96F420EA06F000EA16F61EC0DF019
:101AB0000001D805D8A490D7000ED86F5FEC12F0C3
:101AC0008BD720EEA7F0130EDE6AE806FDE2630E68
:101AD0003C6E8ED05EEC13F057EC13F0AB0E0001B1
:101AE000686F0F0E696FD1EC11F0010E87EC12F0E8
:101AF000120050EC13F057EC13F0810E0001686FE8
:101B00000F0E696FD1EC11F0020E87EC12F012008B
:101B1000020E22EC11F060C0BDF061C0BEF0BDC08D
:101B200060F0BEC061F099EC10F01200010E22ECE2
:101B300011F060C0BDF061C0BEF0BDC060F0BEC0BD
:101B400061F099EC10F01200630E3C6E48EC13F05B
:101B5000120020EE01F0A051D926A151DA22DF5067
:101B6000A26FA251640DF3CFA3F0F4CFA4F020EE46
:101B700002F0A051D926A151DA22DF50A56FA5515C
:101B80000A0DF350A327F450A42320EE03F0A05134
:101B9000D926A151DA22DF50A66FA651A327000E45
:101BA000A423300EA325BB6FEB0EA421BC6FBB5149
:101BB0005DEC0FF06CEC13F012001E0E686F0F0E50
:101BC000696FD1EC11F03D0E0001A36FE10EA26F21
:101BD0003F0EE82EFED7A22FFCD7A32FFAD700D0B6
:101BE000390E0001686F0F0E696FD1EC11F0FFD74D
:101BF000A0C0D9FFA1C0DAFFDF500001A26FA36B24
:101C0000A351000AD8A41200A251460AD8B4A1D701
:101C1000270AD8B47DD7020AD8B496D7070AD8B411
:101C200085D7030AD8B4C9D7140AD8B462D7040A2E
:101C3000D8A412004FD70001686F00016851D8A4E2
:101C400063AF1AD060C064F061C065F062C066F036
:101C500063C067F0641F651F661F671F642B000E5B
:101C600065236623672364C06AF065C06BF066C0B5
:101C70006CF067C06DF008D060C06AF061C06BF0B6
:101C800062C06CF063C06DF060516111621163114C
:101C9000D8A409D0000E606F000E616F000E626F55
:101CA000000E636F1200960E696F06D0692BD890F4
:101CB0006D336C336B336A33000E6A15646F000E3C
:101CC0006B15656F000E6C15666FFE0E6D15676FF8
:101CD0006451651166116711D8B40DD0E7D7692B2F
:101CE000010E6A27000E6B236C236D23D8906D3391
:101CF0006C336B336A33000E6A15646F000E6B151C
:101D0000656F000E6C15666FFF0E6D15676F645181
:101D1000651166116711D8B407D0E1D76907D8906B
:101D20006A376B376C376D376CBF03D0020E696151
:101D3000F5D769A16C9FD890693369C064F0656B71
:101D4000666B676B64C067F0666B656B646B645150
:101D50006A1365516B1366516C1367516D136851AB
:101D6000D8A463AF01D06D8F6AC060F06BC061F022
:101D70006CC062F06DC063F01200116E1150D8A4F7
:101D80000CAE1AD009C00DF00AC00EF00BC00FF057
:101D90000CC010F00D1E0E1E0F1E101E0D2A000E80
:101DA0000E220F2210220DC013F00EC014F00FC02F
:101DB00015F010C016F008D009C013F00AC014F0D6
:101DC0000BC015F00CC016F009500A100B100C10C7
:101DD000D8A409D0000E096E000E0A6E000E0B6E1C
:101DE000000E0C6E1200960E126E06D0122AD890BB
:101DF0001632153214321332000E13140D6E000E0B
:101E000014140E6E000E15140F6EFE0E1614106EC6
:101E10000D500E100F101010D8B40DD0E7D7122AA5
:101E2000010E1326000E142215221622D890163207
:101E3000153214321332000E13140D6E000E1414EA
:101E40000E6E000E15140F6EFF0E1614106E0D5050
:101E50000E100F101010D8B407D0E1D71206D8908A
:101E6000133614361536163615BE03D0020E126020
:101E7000F5D712A0159ED890123212C00DF00E6A3E
:101E80000F6A106A0DC010F00F6A0E6A0D6A0D50CD
:101E900013120E5014120F5015121050161211502A
:101EA000D8A40CAE01D0168E13C009F014C00AF0ED
:101EB00015C00BF016C00CF0120000019F6FDBC0C4
:101EC00072F0DCC073F0DDC074F0DEC075F00001AC
:101ED0009F51606F616B626B636B010E1BEC0EF0C8
:101EE00060C06EF061C06FF062C070F063C071F0EE
:101EF000EFEC07F06EC087F06FC088F070C089F01B
:101F000071C08AF0000E00018B6F000E8C6F000E06
:101F10008D6F3F0E8E6F99EC09F087C097F088C0E7
:101F200098F089C099F08AC09AF0000E0001726F93
:101F3000000E736F800E746F400E756F97C06EF059
:101F400098C06FF099C070F09AC071F0EFEC07F094
:101F50006EC09BF06FC09CF070C09DF071C09EF091
:101F6000000E0001726F000E736FFA0E746F420E56
:101F7000756F9BC06EF09CC06FF09DC070F09EC0EE
:101F800071F0EFEC07F06EC087F06FC088F070C0A2
:101F900089F071C08AF03BEC10F087C0DFF088C098
:101FA000E0F01200000E00016015686F000E611570
:101FB000696F800E62156A6F7F0E63156B6F6851D3
:101FC00069116A116B11D8A408D0000E606F000E61
:101FD000616F000E626F000E636F000E6415686F14
:101FE000000E6515696F800E66156A6F7F0E6715A6
:101FF0006B6F685169116A116B11D8A408D0000E7B
:10200000646F000E656F000E666F000E676F63AF42
:1020100009D0606D611FD8B0612B621FD8B0622BF0
:10202000800E635767AF09D0646D651FD8B0652B0C
:10203000661FD8B0662B800E6757000E601B000E1F
:10204000611B000E621B800E631B000E641B000EE2
:10205000651B000E661B800E671B6451605D655139
:1020600061596651625967516359D8B002D0D8900E
:102070001200D8801200000189358A35906F905186
:10208000D8A409D0000E876F000E886F000E896FEC
:10209000000E8A6F120087C08BF088C08CF089C058
:1020A0008DF08AC08EF0200E05D0D8908E338D33FF
:1020B0008C338B33E82EF9D78B518F6F898FFF0EBE
:1020C0008717FF0E8817FF0E8917000E8A17960EC6
:1020D000905F90AF0DD09051800A970FD8A0D2D7C3
:1020E000D8908A33893388338733903FF9D70DD01E
:1020F0001F0E906507D0C6D7D890873788378937A5
:102100008A3790079051D8A4F7D78F51D8B408D008
:102110008A1F891F881F876D000E882389238A23C1
:1021200087C087F088C088F089C089F08AC08AF0AB
:1021300012003D0E0001646F000E396E000E386E05
:10214000000E3B6E000E3A6E0DD0390E646F000E1D
:1021500007D0410E646F010E03D0320E646F020E81
:102160003F6E15D060C062F061C063F06351000A39
:10217000D8A40DD06251000AD8B4EBD7550AD8B410
:10218000E4D70F0AD8B4E1D7EE0AD8B4E6D783B8BB
:1021900005D064C04EF04F6A838809D06451E808C6
:1021A0004E6E000ED8A0E82A03084F6E8398000EEA
:1021B000396E000E386E000ED86F0F0122811200AA
:1021C000000E066E04AE06D0036C041ED8B0042ABE
:1021D000010E066E02AE06D0016C021ED8B0022AB5
:1021E000010E061A000E086E000E076E0350041052
:1021F000D8B41CD0010E056E04D0D8900336043636
:10220000052A04AEFAD7D890073608360350015C89
:1022100004500258D8A005D00350015E0450025A61
:102220000780D89004320332052EEDD70650D8B47B
:1022300004D0076C081ED8B0082A07C001F008C0F7
:1022400002F012000001666F000E0001656F5A0E69
:10225000646F23D06605D8A406D0010E3F6E000E31
:10226000656F000E18D0020E3F6E12D06605D8B40E
:10227000F6D7000E3F6E000E656F5A0E0CD0660545
:10228000D8A406D0000E3F6E000E656F550E03D029
:10229000000E656FB40E646F11D03F50626F636BB8
:1022A0006351000AD8A40AD06251000AD8B4D2D728
:1022B000010AD8B4DBD7030AD8B4E1D764C060F010
:1022C00065C061F012000001A26F48EC13F0630ECC
:1022D0003C6E24D0D60E686F0F0E696FD1EC11F0F2
:1022E000000E0001616FB40E606F99EC10F0000EEB
:1022F0005DEC0FF05EEC13F057EC13F0A00E2A6EBD
:102300000F0E2B6E000E2C6E000E2D6E0F011B8516
:10231000000E3D6E120048EC13F012000001A251B5
:10232000A06FA16BA151000AD8A41200A051010A0C
:10233000D8B4D0D7030AD8A41200EDD7000E0001FC
:10234000DA6F20D0100E2A6E270E2B6E000E2C6E28
:10235000000E2D6E010E22EC11F060C069F061C01C
:102360006AF069C060F06AC061F099EC10F0770E15
:102370003D6E0F011B851200630E3C6E48EC13F09E
:10238000F08612003D50676F686B6851000AD8A450
:1023900012006751000AD8B4D5D7770AD8A4120022
:1023A000EBD768C060F069C061F034EC12F060C037
:1023B0006CF061C06DF0000E00016E6F1AD06E51AE
:1023C00068256A6F000E69216B6F6AC0F6FF6BC0EB
:1023D000F7FF000EF86E0800F5CFAEFF2F0E0001DC
:1023E0006A6FBF0EE82EFED76A2FFCD700D000011F
:1023F0006E2B6E516A6F6B6B6C516A5D6D516B59D0
:10240000D8B01200DCD7EA0EF66E260EF76E000E7C
:10241000F86E00EEDBF010EE06F00900F5CFEEFFEF
:10242000E550E150FAE1E40EF66E260EF76E000E6E
:10243000F86E00EE4CF010EE06F00900F5CFEEFF5E
:10244000E550E150FAE100EEC1F01A0EEE6AE8063E
:10245000FDE100EE2AF0220EEE6AE806FDE1529060
:1024600052920001A6EF0CF060C0F6FF61C0F7FFCA
:10247000000EF86E0800F5CF66F0010E0001676FE0
:10248000000E656F000E646F12D067516025626F99
:10249000000E6121636F62C0F6FF63C0F7FF000E9C
:1024A000F86E0800F5CF66F0672B644B652B66511C
:1024B000D8A4EBD764C060F065C061F01200000ED4
:1024C000396E000E386E83A810D03A4A3B2A8398A2
:1024D0004EC04CF04FC04DF04C50E8084E6E4D5081
:1024E000D8A0E82A03084F6E05D083884CC04EF070
:1024F0004DC04FF01E0E3A183B10D8A412000F0129
:1025000022918398000E3B6E000E3A6E120000017D
:10251000626F12D0A60EDB6F9B0EDC6FC40EDD6FF8
:102520003B0EDE6F1200A60EDB6F9B0EDC6F440EBF
:10253000DD6F3B0EDE6F120000016251606F616B58
:102540006151000AD8A412006051010AD8B4E2D740
:10255000030AD8A41200E7D7DFC060F0030E000121
:102560006017603B0F01095100016019CF0B601922
:102570000F01096FDFC060F0E0C061F00001D8908A
:1025800061336033D8906133603360510F010A6F5B
:1025900012000F010951CF0B2009096F700E0A6F4D
:1025A000CA84040E0001616F0C0E606F330EE82EBA
:1025B000FED7602FFCD7612FFAD700D0120040EC75
:1025C00013F001EC13F011EC13F021EC13F065ECB7
:1025D00013F02DEC13F038EC13F0F0EC12F01200C5
:1025E000959C958E060E0E01D76F180EF76F220E72
:1025F000A86E900E9C6E7C964D0EAB6EA49AA38A2C
:1026000012009398939E0F010951F00B0C09096F6A
:102610003F0E5117020ECA6E7C0ECB6E000ECC6EB2
:102620001200000E0E01BF6F040EE16F93829380C3
:10263000F28EF28CF19CF19AF292F288F086F09090
:102640001200948E949C220EAD6E900EAC6E7E960F
:102650004D0EB06E9E9A9D8A120095988398320E08
:102660000F01226F2469E20E236F91849894120067
:10267000030E0F011B131F0E1D6F989891881200F7
:102680007F0E0F01486F1F0E496F929092921200B9
:10269000CF0E0F010917000E0A6F000E416E1200D7
:1026A000730E3C6E80908092809080821200C9EC04
:1026B00012F0ACEC12F0010E416E1200770E3C6E7F
:1026C00080908092808080921200030E7612B50E68
:1026D000786EA496A38612004104D8A41200ACEC34
:1026E00012F012004100A703C201A69BC43BC20125
:020000040001F9
:08FFF800AAF7FDFFF3F9FFFB7E
:00000001FF
