:020000040000FA
:04000000E9EF00F034
:100008005282D9CF27F0DACF28F09EAA16D0AFCFE8
:1000180029F0500E2918D8A406D0010E0001D96F76
:10002800000E406ECCD0420E4024D96EDA6A000E23
:10003800DA2229C0DFFF402AC2D098A416D09894AB
:10004800384A392A0F012469E20E236F4E503818B6
:1000580003E14F503918D8A4B2D0000E396E000E03
:10006800386E010E0001D86FAAD0A4A617D0A496A6
:10007800364A372AB50E786EE80E361803E1030EB5
:100088003718D8A49CD0000E376E000E366E770E47
:100098003C18D8A494D0550EA96E91D098A823D016
:1000A8001F0E0F011D6F9898010E2E26000E2F228D
:1000B800302231222A502E1809E12B502F187FE1C7
:1000C8002C5030187CE12D503118D8A478D0000E6F
:1000D8002E6E000E2F6E000E306E000E316E010E69
:1000E8000001D56F6CD0F2A205D0F292010E00018A
:1000F800D76F65D0A4AA57D03E04D8A435D0010E36
:100108000001D66F32C017F033C018F034C019F0B0
:1001180035C01AF0000E046E0A0E036EAACF01F065
:10012800026A74EC11F001C009F002C00AF0000E76
:100138000ABEFF0E0B6E0C6E010EB2EC0EF009C07B
:100148001BF00AC01CF00BC01DF00CC01EF018EC10
:100158000BF017C032F018C033F019C034F01AC0D1
:1001680035F0000E3E6E2BD0000E046E0A0E036EA4
:10017800AA50026E016A74EC11F001C009F002C0C5
:100188000AF0000E0ABEFF0E0B6E0C6E010EB2ECEA
:100198000EF009C032F00AC033F00BC034F00CC0C6
:1001A80035F03E2A0CD0F0B0F0A609D0F090770ECA
:1001B8003C18D8A404D0F096010E0001DA6F28C0CC
:0E01C800DAFF27C0D9FF5292110029EF12F082
:100F000000506F72204661766F722C2063616C69AD
:100F100062726520656C2073656E736F72004D4F51
:100F2000444F2050524F4752414D41444F5220416F
:100F30004354495641444F21004D69206E6F6D6204
:100F4000726520657320436861726D616E646572BD
:100F5000004553434150414E444F2044454C2046A8
:100F60005545474F2E2E2E00554C545241534F4E4F
:100F700049444F20414354495641444F210056654E
:100F8000686963756C6F20656E2072657665727333
:100F90006121004E6F206D652064657374727579F0
:100FA000617321203A2728004D6F746F726573209A
:100FB000656E63656E6469646F732100484F4C41D0
:0D0FC000212E2E2E00465545474F210000E2
:100FCE0000017151800B7A6F71517125806F70BF66
:100FDE0080818051D8B40DD08029D8A408D0000EBD
:100FEE006E6F000E6F6F000E706F000E716F708F50
:100FFE0008D0000E6E6F000E6F6F000E706F000E39
:10100E00716F7551800B7A1B755175257B6F74BF8F
:10101E007B817B51D8B40DD07B29D8A408D0000E8B
:10102E00726F000E736F000E746F000E756F748FFB
:10103E0008D0000E726F000E736F000E746F000EEC
:10104E00756F7B51D8B403D08051D8A409D0000E4F
:10105E006E6F000E6F6F000E706F000E716F1200CC
:10106E0074516E03F3CF85F0F4CF86F085517C6F0B
:10107E007D6B7E6B7F6B8651816F826B836B846B16
:10108E0073516F03F3CF85F0F4CF86F085517C2733
:10109E00000E7D237E237F2386518127000E82231F
:1010AE008323842372517003F3CF85F0F4CF86F03F
:1010BE0085517C27000E7D237E237F238651812739
:1010CE00000E8223832384237EC07FF07DC07EF0BA
:1010DE007CC07DF07C6B72516F03F3CF85F0F4CF43
:1010EE0086F085517C2786517D23000E7E23000ECF
:1010FE007F2373516E03F3CF85F0F4CF86F08551C5
:10110E007C2786517D23000E7E23000E7F237EC01A
:10111E007FF07DC07EF07CC07DF07C6B72516E03E3
:10112E00F3CF85F0F4CF86F085517C2786517D2351
:10113E00000E7E23000E7F2374516F03F3CF85F0D4
:10114E00F4CF86F08551812786518223000E8323AA
:10115E00000E842373517003F3CF85F0F4CF86F025
:10116E008551812786518223000E8323000E84230E
:10117E0074517003F3CF85F0F4CF86F08551766FFE
:10118E008651776F786B796B78C079F077C078F08D
:10119E0076C077F0766B765181277751822378511E
:1011AE008323795184237CC076F07DC077F07EC096
:1011BE0078F07FC079F0190E05D0D8907933783356
:1011CE0077337633E82EF9D77651812777518223FC
:1011DE0078518323795184237EC07FF07DC07EF0C9
:1011EE007CC07DF07C6B7B5180C076F0776B762770
:1011FE00000E7723820E7625856FFF0E7721866F80
:10120E000FD0D89081378237833784377FBF818163
:10121E00D8907C377D377E377F378507D8A08607F5
:10122E0083AFEFD7000E7B6F7FAF17D0FF0E7C150D
:10123E00766FFF0E7D15776FFF0E7E15786F7F0E22
:10124E007F15796F7651771178117911D8B403D053
:10125E00010E7B6F02D081B1FBD77B51D8B41FD06A
:10126E00010E8127000E82238323842384A117D0AD
:10127E0081C076F082C077F083C078F084C079F0B8
:10128E007935793378337733763376C081F077C01A
:10129E0082F078C083F079C084F0854B862B86BFB0
:1012AE000DD0865103E18529D8A008D0000E816F9C
:1012BE00000E826F800E836F7F0E20D086BF05D00A
:1012CE0086510EE18505D8B00BD0000E816F000E51
:1012DE00826F000E836F000E846F000E7A6F0FD038
:1012EE0085C080F0FF0E8117FF0E82177F0E8317C9
:1012FE00000E841780B1838FD8908031846F7A511D
:10130E00841381C06EF082C06FF083C070F084C011
:10131E0071F0120000018A51800B936F8A518A2559
:10132E00956F89BF95819551D8B40DD09529D8A4C4
:10133E0008D0000E876F000E886F000E896F000EAA
:10134E008A6F898F06D0000E876F000E886F000E91
:10135E00896F000E8A6F8E51800B946F9351941982
:10136E00D8A4938D8E518E25946F8DBF94819451F8
:10137E00D8B40DD09429D8A408D0000E8B6F000ECF
:10138E008C6F000E8D6F000E8E6F8D8F06D0000E3F
:10139E008B6F000E8C6F000E8D6F000E8E6F955141
:1013AE00945DD8B022D093AD02D0800E931B95C021
:1013BE0096F094C095F096C094F087C096F08BC0CE
:1013CE0087F096C08BF088C096F08CC088F096C0DF
:1013DE008CF089C096F08DC089F096C08DF08AC0D1
:1013EE0096F08EC08AF096C08EF0000E966F9551D4
:1013FE0094C08FF0906B8F5F000E905B90BF2CD0DF
:10140E00905104E11A0E8F5DD8A026D08751881115
:10141E0089118A11D8B402D0010E01D0000E966F38
:10142E00000E876F000E886F000E896F000E8A6F98
:10143E0094C095F015D096A105D0D890963101099B
:10144E00966F02D0D890963387B1968F8A358A33AD
:10145E00893388338733952B9451955DD8A0EBD77C
:10146E0093BD28D09551D8A409D0000E876F000ED9
:10147E00886F000E896F000E8A6F12008B518727BE
:10148E008C5188238D5189238E518A238AA171D044
:10149E0096A105D0D89096310109966F02D0D890BA
:1014AE00963387B1968F8A358A338933883387335B
:1014BE00952B5FD08B51875D8C5188598D518959F1
:1014CE008A51800A8F6F8E51800A8F59D8B025D0DD
:1014DE0087518B5D8F6F88518C59906F89518D59C3
:1014EE00916F8A518E59926FFF0E8F25876FFF0E67
:1014FE009021886FFF0E9121896FFF0E92218A6FC6
:10150E00800E931B966D9651D8A40FD0010E87278F
:10151E00000E882389238A2308D08B51875F8C5134
:10152E00885B8D51895B8E518A5B87518811891139
:10153E008A11D8A41CD09651D8A419D0000E876F4A
:10154E00000E886F000E896F000E8A6F1200D89001
:10155E008737883789378A3796BF878196A102D019
:10156E00D88001D0D89096379551D8A4950789AFD9
:10157E00EED7000E946F96AF0BD096C08FF07F0E05
:10158E008F17D8B403D0010E946F02D087B1FBD75A
:10159E009451D8B420D0010E8727000E88238923BA
:1015AE008A238AA118D087C08FF088C090F089C096
:1015BE0091F08AC092F092359233913390338F33FB
:1015CE008FC087F090C088F091C089F092C08AF0E9
:1015DE009529D8A4952B9529D8B403D09551D8A484
:1015EE000DD0000E876F000E886F000E896F000EF3
:1015FE008A6F9551D8A402D0000E936F95A102D098
:10160E00898F01D0899FD89095318A6F93BF8A8F29
:10161E0087C087F088C088F089C089F08AC08AF0B8
:10162E0012001A50800B236E1A501A24256E19BE02
:10163E0025802550D8B40DD02528D8A408D0000E6A
:10164E00176E000E186E000E196E000E1A6E198EA1
:10165E0006D0000E176E000E186E000E196E000EDC
:10166E001A6E1E50800B246E23502418D8A4238C7F
:10167E001E501E24246E1DBE24802450D8B40DD0BE
:10168E002428D8A408D0000E1B6E000E1C6E000E6F
:10169E001D6E000E1E6E1D8E06D0000E1B6E000EF1
:1016AE001C6E000E1D6E000E1E6E2550245CD8B0F2
:1016BE0022D023AC02D0800E231A25C026F024C0DF
:1016CE0025F026C024F017C026F01BC017F026C048
:1016DE001BF018C026F01CC018F026C01CF019C054
:1016EE0026F01DC019F026C01DF01AC026F01EC02F
:1016FE001AF026C01EF0000E266E255024C01FF0D4
:10170E00206A1F5E000E205A20BE2CD0205004E10D
:10171E001A0E1F5CD8A026D01750181019101A10C8
:10172E00D8B402D0010E01D0000E266E000E176E38
:10173E00000E186E000E196E000E1A6E24C025F0E3
:10174E0015D026A005D0D89026300109266E02D0DD
:10175E00D890263217B0268E1A341A321932183211
:10176E001732252A2450255CD8A0EBD723BC28D0CD
:10177E002550D8A409D0000E176E000E186E000E5C
:10178E00196E000E1A6E12001B5017261C501822CE
:10179E001D5019221E501A221AA071D026A005D053
:1017AE00D89026300109266E02D0D890263217B076
:1017BE00268E1A341A32193218321732252A5FD071
:1017CE001B50175C1C5018581D5019581A50800A7F
:1017DE001F6E1E50800A1F58D8B025D017501B5CA4
:1017EE001F6E18501C58206E19501D58216E1A501D
:1017FE001E58226EFF0E1F24176EFF0E2020186E2D
:10180E00FF0E2120196EFF0E22201A6E800E231A53
:10181E00266C2650D8A40FD0010E1726000E1822C3
:10182E0019221A2208D01B50175E1C50185A1D5030
:10183E00195A1E501A5A1750181019101A10D8A4E7
:10184E001CD02650D8A419D0000E176E000E186E9C
:10185E00000E196E000E1A6E1200D890173618363A
:10186E0019361A3626BE178026A002D0D88001D08F
:10187E00D89026362550D8A4250619AEEED7000EE0
:10188E00246E26AE0BD026C01FF07F0E1F16D8B4C6
:10189E0003D0010E246E02D017B0FBD72450D8B45B
:1018AE0020D0010E1726000E182219221A221AA075
:1018BE0018D017C01FF018C020F019C021F01AC0A0
:1018CE0022F022342232213220321F321FC017F072
:1018DE0020C018F021C019F022C01AF02528D8A473
:1018EE00252A2528D8B403D02550D8A40DD0000E13
:1018FE00176E000E186E000E196E000E1A6E255021
:10190E00D8A402D0000E236E25A002D0198E01D0CD
:10191E00199ED89025301A6E23BE1A8E17C017F056
:10192E0018C018F019C019F01AC01AF01200E0EC25
:10193E0012F0BC0E0001686F0F0E696FF7EC11F01C
:10194E006E0E0001C06F940EBF6FA70EE82EFED76D
:10195E00BF2FFCD7C02FFAD700D0390E0001686F09
:10196E000F0E696FF7EC11F06E0E0001C06F940E42
:10197E00BF6FA70EE82EFED7BF2FFCD7C02FFAD70A
:10198E0000D0930E0001686F0F0E696FF7EC11F027
:10199E005C0E0001C06F510EBF6F600EE82EFED7B9
:1019AE00BF2FFCD7C02FFAD700F0010E0001686FD1
:1019BE000F0E696FF7EC11F07684770E3C18D8A4F1
:1019CE0050D00001D605D8A421D0000ED66F000E3F
:1019DE00606F000E616FB00E626F410E636F32C0AA
:1019EE0064F033C065F034C066F035C067F0C7EC04
:1019FE000FF00001D8A00AD0030E8EEC10F0680E86
:101A0E000001686F0F0E696FF7EC11F00001DA0537
:101A1E00D8A414D0000EDA6F000E2E6E000E2F6EAC
:101A2E00000E306E000E316E010E8EEC10F0510E67
:101A3E000001686F0F0E696FF7EC11F00001D5050C
:101A4E00D8A40FD00F011B95000E2E6E000E2F6E18
:101A5E00000E306E000E316E000E0001D56FDEEC02
:101A6E0010F0730E3C18D8A41ED00001D705D8A4D0
:101A7E0005D0000ED76F020E8EEC10F00001D505CA
:101A8E00D8A411D00F011B95000E2E6E000E2F6ED6
:101A9E00000E306E000E316E000E0001D56F630E1B
:101AAE003C6E52EC13F00001D905D8A408D0000EFC
:101ABE00D96F420EA06F000EA16F11EC0EF0000157
:101ACE00D805D8A47AD7000ED86F85EC12F075D74A
:101ADE000001686F00016851D8A463AF1AD060C0CE
:101AEE0064F061C065F062C066F063C067F0641FA9
:101AFE00651F661F671F642B000E65236623672311
:101B0E0064C06AF065C06BF066C06CF067C06DF0C3
:101B1E0008D060C06AF061C06BF062C06CF063C048
:101B2E006DF06051611162116311D8A409D0000EDD
:101B3E00606F000E616F000E626F000E636F120019
:101B4E00960E696F06D0692BD8906D336C336B335C
:101B5E006A33000E6A15646F000E6B15656F000E0A
:101B6E006C15666FFE0E6D15676F6451651166110B
:101B7E006711D8B40DD0E7D7692B010E6A27000E76
:101B8E006B236C236D23D8906D336C336B336A33B8
:101B9E00000E6A15646F000E6B15656F000E6C15E6
:101BAE00666FFF0E6D15676F6451651166116711D3
:101BBE00D8B407D0E1D76907D8906A376B376C373E
:101BCE006D376CBF03D0020E6961F5D769A16C9FAA
:101BDE00D890693369C064F0656B666B676B64C0DF
:101BEE0067F0666B656B646B64516A1365516B13BA
:101BFE0066516C1367516D136851D8A463AF01D051
:101C0E006D8F6AC060F06BC061F06CC062F06DC029
:101C1E0063F0120020EEA7F0130EDE6AE806FDE276
:101C2E00630E3C6E75D061EC13F039EC13F0A80E18
:101C3E000001686F0F0E696FF7EC11F012005AEC8D
:101C4E0013F039EC13F07E0E0001686F0F0E696F02
:101C5E00F7EC11F01200020EB6EC11F060C0BDF000
:101C6E0061C0BEF0BDC060F0BEC061F02DEC11F0E1
:101C7E001200010EB6EC11F060C0BDF061C0BEF0F6
:101C8E00BDC060F0BEC061F02DEC11F01200630E0D
:101C9E003C6E52EC13F0F086120020EE01F0A051D3
:101CAE00D926A151DA22DF50A26FA251640DF3CFD3
:101CBE00A3F0F4CFA4F020EE02F0A051D926A1514A
:101CCE00DA22DF50A56FA5510A0DF350A327F45069
:101CDE00A42320EE03F0A051D926A151DA22DF5021
:101CEE00A66FA651A327000EA423300EA325BB6F0B
:101CFE00EB0EA421BC6FBB5152EC0FF06FEC13F046
:101D0E0012001E0E686F0F0E696FF7EC11F0FFD701
:101D1E00A0C0D9FFA1C0DAFFDF500001A26FA36BF4
:101D2E00A351000AD8A41200A251460AD8B4B5D7BE
:101D3E00270AD8B490D7020AD8B4A9D7070AD8B4BC
:101D4E0098D7030AD8B4DDD7140AD8B478D7040AC2
:101D5E00D8A4120068D7116E1150D8A40CAE1AD0A8
:101D6E0009C00DF00AC00EF00BC00FF00CC010F041
:101D7E000D1E0E1E0F1E101E0D2A000E0E220F22FD
:101D8E0010220DC013F00EC014F00FC015F010C0CD
:101D9E0016F008D009C013F00AC014F00BC015F0ED
:101DAE000CC016F009500A100B100C10D8A409D054
:101DBE00000E096E000E0A6E000E0B6E000E0C6EFB
:101DCE001200960E126E06D0122AD89016321532C6
:101DDE0014321332000E13140D6E000E14140E6E08
:101DEE00000E15140F6EFE0E1614106E0D500E1002
:101DFE000F101010D8B40DD0E7D7122A010E1326EB
:101E0E00000E142215221622D890163215321432D4
:101E1E001332000E13140D6E000E14140E6E000EFF
:101E2E0015140F6EFF0E1614106E0D500E100F10AF
:101E3E001010D8B407D0E1D71206D8901336143646
:101E4E001536163615BE03D0020E1260F5D712A047
:101E5E00159ED890123212C00DF00E6A0F6A106ADB
:101E6E000DC010F00F6A0E6A0D6A0D5013120E504F
:101E7E0014120F501512105016121150D8A40CAE89
:101E8E0001D0168E13C009F014C00AF015C00BF065
:101E9E0016C00CF0120000019F6FBC0E0001726F95
:101EAE00740E736F130E746F3C0E756F9F51606FCF
:101EBE00616B626B636B010E6FEC0DF060C06EF0C8
:101ECE0061C06FF062C070F063C071F0E7EC07F0B4
:101EDE006EC087F06FC088F070C089F071C08AF054
:101EEE00CD0E00018B6FCC0E8C6F0C0E8D6F3F0ED6
:101EFE008E6F91EC09F087C097F088C098F089C07A
:101F0E0099F08AC09AF0000E0001726F000E736F86
:101F1E00800E746F400E756F97C06EF098C06FF0A4
:101F2E0099C070F09AC071F0E7EC07F06EC09BF0AC
:101F3E006FC09CF070C09DF071C09EF0000E00014D
:101F4E00726F000E736FC80E746F410E756F9BC06B
:101F5E006EF09CC06FF09DC070F09EC071F0E7EC0B
:101F6E0007F06EC087F06FC088F070C089F071C046
:101F7E008AF030EC10F087C0DFF088C0E0F012007D
:101F8E00000E00016015686F000E6115696F800EFE
:101F9E0062156A6F7F0E63156B6F685169116A1156
:101FAE006B11D8A408D0000E606F000E616F000E8A
:101FBE00626F000E636F000E6415686F000E65157C
:101FCE00696F800E66156A6F7F0E67156B6F6851AD
:101FDE0069116A116B11D8A408D0000E646F000E3F
:101FEE00656F000E666F000E676F63AF09D0606D90
:101FFE00611FD8B0612B621FD8B0622B800E635761
:10200E0067AF09D0646D651FD8B0652B661FD8B059
:10201E00662B800E6757000E601B000E611B000EB4
:10202E00621B800E631B000E641B000E651B000EF0
:10203E00661B800E671B6451605D65516159665168
:10204E00625967516359D8B002D0D8901200D88027
:10205E001200000189358A35906F9051D8A409D0AD
:10206E00000E876F000E886F000E896F000E8A6F4C
:10207E00120087C08BF088C08CF089C08DF08AC0AA
:10208E008EF0200E05D0D8908E338D338C338B335B
:10209E00E82EF9D78B518F6F898FFF0E8717FF0EA2
:1020AE008817FF0E8917000E8A17960E905F90AF55
:1020BE000DD09051800A970FD8A0D2D7D8908A33DE
:1020CE00893388338733903FF9D70DD01F0E906533
:1020DE0007D0C6D7D8908737883789378A37900781
:1020EE009051D8A4F7D78F51D8B408D08A1F891F22
:1020FE00881F876D000E882389238A2387C087F067
:10210E0088C088F089C089F08AC08AF01200000168
:10211E00A26F52EC13F0630E3C6E36D0C50E686F94
:10212E000F0E696FF7EC11F0000E0001616FB40E27
:10213E00606F2DEC11F00A0E52EC0FF061EC13F003
:10214E0039EC13F0A00E2A6E0F0E2B6E000E2C6EB5
:10215E00000E2D6E0F011B85000E3D6E1200A00E9F
:10216E002A6E0F0E2B6E000E2C6E000E2D6E5AEC7C
:10217E0013F00A0E52EC0FF039EC13F00F011B8521
:10218E00120052EC13F012000001A251A06FA16BCD
:10219E00A151000AD8A41200A051010AD8B4BED78A
:1021AE00030AD8B4EED7010AD8A41200D8D7000E6D
:1021BE000001DA6F39D0400E2A6E1F0E2B6E000E04
:1021CE002C6E000E2D6E010EB6EC11F060C069F093
:1021DE0061C06AF069C060F06AC061F02DEC11F068
:1021EE00770E3D6E0F011B851200700E2A6E170EB4
:1021FE002B6E000E2C6E000E2D6E000E616F000EFB
:10220E00606F2DEC11F0610E3D6E0F011B851200FB
:10221E00630E3C6E52EC13F0000E0001616F5A0E0D
:10222E00606F2DEC11F012003D50676F686B6851B6
:10223E00000AD8A412006751000AD8B4BCD7610AAC
:10224E00D8B4E6D7160AD8A41200CFD73D0E000197
:10225E00646F000E396E000E386E000E3B6E000E6F
:10226E003A6E0DD0390E646F000E07D0410E646FBA
:10227E00010E03D0320E646F020E3F6E15D060C099
:10228E0062F061C063F06351000AD8A40DD06251B0
:10229E00000AD8B4EBD7550AD8B4E4D70F0AD8B48D
:1022AE00E1D7EE0AD8B4E6D783B805D064C04EF0B5
:1022BE004F6A838809D06451E8084E6E000ED8A08C
:1022CE00E82A03084F6E8398000E396E000E386EA2
:1022DE00000ED86F0F0122811200000E066E04AEA2
:1022EE0006D0036C041ED8B0042A010E066E02AE90
:1022FE0006D0016C021ED8B0022A010E061A000E7C
:10230E00086E000E076E03500410D8B41CD0010ED8
:10231E00056E04D0D89003360436052A04AEFAD7DB
:10232E00D890073608360350015C04500258D8A0E6
:10233E0005D00350015E0450025A0780D890043233
:10234E000332052EEDD70650D8B404D0076C081E04
:10235E00D8B0082A07C001F008C002F01200000130
:10236E00666F000E0001656F5A0E646F23D066050E
:10237E00D8A406D0010E3F6E000E656F000E18D069
:10238E00020E3F6E12D06605D8B4F6D7000E3F6E21
:10239E00000E656F5A0E0CD06605D8A406D0000E3E
:1023AE003F6E000E656F550E03D0000E656FB40EB6
:1023BE00646F11D03F50626F636B6351000AD8A4F3
:1023CE000AD06251000AD8B4D2D7010AD8B4DBD7EA
:1023DE00030AD8B4E1D764C060F065C061F01200A2
:1023EE0068C060F069C061F05AEC12F060C06CF029
:1023FE0061C06DF0000E00016E6F1AD06E5168252F
:10240E006A6F000E69216B6F6AC0F6FF6BC0F7FF33
:10241E00000EF86E0800F5CFAEFF2F0E00016A6FAA
:10242E00BF0EE82EFED76A2FFCD700D000016E2B10
:10243E006E516A6F6B6B6C516A5D6D516B59D8B092
:10244E001200DCD7F00EF66E260EF76E000EF86E4A
:10245E0000EEDBF010EE06F00900F5CFEEFFE550D2
:10246E00E150FAE1EA0EF66E260EF76E000EF86EE9
:10247E0000EE4CF010EE06F00900F5CFEEFFE55041
:10248E00E150FAE100EEC1F01A0EEE6AE806FDE147
:10249E0000EE2AF0220EEE6AE806FDE1529052920C
:1024AE0000019EEF0CF060C0F6FF61C0F7FF000E5A
:1024BE00F86E0800F5CF66F0010E0001676F000E92
:1024CE00656F000E646F12D067516025626F000E4B
:1024DE006121636F62C0F6FF63C0F7FF000EF86EF6
:1024EE000800F5CF66F0672B644B652B6651D8A4B8
:1024FE00EBD764C060F065C061F01200000E396E5B
:10250E00000E386E83A810D03A4A3B2A83984EC0EC
:10251E004CF04FC04DF04C50E8084E6E4D50D8A0C8
:10252E00E82A03084F6E05D083884CC04EF04DC08C
:10253E004FF01E0E3A183B10D8A412000F01229134
:10254E008398000E3B6E000E3A6E1200DFC060F0F4
:10255E00030E00016017603B0F0109510001601965
:10256E00CF0B60190F01096FDFC060F0E0C061F0A2
:10257E000001D89061336033D8906133603360517D
:10258E000F010A6F12000F010951CF0B2009096FBD
:10259E00160E0A6FCA84040E0001616F0C0E606F76
:1025AE00330EE82EFED7602FFCD7612FFAD700D05E
:1025BE0012004AEC13F002EC13F012EC13F022ECC2
:1025CE0013F068EC13F02EEC13F042EC13F0F1EC78
:1025DE0012F01200959C958E060E0E01D76F180EF6
:1025EE00F76F220EA86E900E9C6E7C964D0EAB6E03
:1025FE00A49AA38A12009398939E0F010951F00B8F
:10260E000C09096F3F0E5117020ECA6E180ECB6ED3
:10261E00000ECC6E1200000E0E01BF6F040EE16FA5
:10262E0093829380F28EF28CF19CF19AF292F28860
:10263E00F086F0901200948E949C220EAD6E900E49
:10264E00AC6E7E964D0EB06E9E9A9D8A1200959837
:10265E008398320E0F01226F2469E20E236F91844C
:10266E00989412004150D8B4CAEC12F0ADEC12F0AE
:10267E00010E416E1200030E0F011B131F0E1D6F74
:10268E009898918812007F0E0F01486F1F0E496FA8
:10269E00929092921200CF0E0F010917000E0A6F40
:1026AE00000E416E1200730E3C6E809080928090F0
:1026BE0080821200770E3C6E809080928080809295
:1026CE001200030E7612B50E786EA496A386120033
:1026DE004104D8A41200ADEC12F012004100A70381
:0826EE005A00BC74133C5A00B1
:020000040001F9
:08FFF800AAF7FDFFF3F9FFFB7E
:00000001FF
