:020000040000FA
:0400000054EF00F0C9
:100008005A82D9CF03F0DACF04F09EAA19D0AFCF25
:1000180005F0500E0518D8A406D0010E0001D16FC6
:10002800000ED46F37D005C0AEFFD50E0001D42521
:10003800D96EDA6A000EDA2205C0DFFFD42B2AD087
:100048009EAC09D09E9CC3CFCAF0C4CFCBF0010EA2
:100058000001D06F1FD098A417D098940001D32B1B
:100068000F0124696A0E236F0001D351016E026AE1
:10007800E55101180FE1E6510218D8A40BD0000E83
:10008800D36F010ECF6F06D0F2A204D0F292010E08
:100098000001CE6F04C0DAFF03C0D9FF5A921100E5
:0400A80012EF19F04A
:100F0000003C6C3636CF0750B98488083CABAA2A1F
:100F1000BEA3858832DA0FC93F83F9223F00000063
:100F20003F0000404B179ACC373F04B6BA9FAA2A1D
:100F30003D000000BFDB0FC940E4CB9640DB0F490A
:100F400040DB0FC93F56656C6F636964616420665E
:100F5000696A61646120616C3A20253033752563CC
:100F6000005665686963756C6F20656E20726576E2
:100F70006572736121004D6F746F72657320656EC9
:100F800063656E6469646F73210046414C5441206F
:100F9000494D504C454D454E544152210046414C1F
:100FA000544120494D504C454D455441522100007B
:100FB000A0C024F1A1C025F1A2C026F1A3C027F151
:100FC00024C13AF125C13BF126C13CF127C13DF1D5
:100FD0003AC14BF03BC14CF03CC14DF03DC14EF02D
:100FE000200E05D0D8904E324D324C324B32E82E86
:100FF000F9D74BC030F14CC031F101013D9FDB0E00
:101000003A5D0F0E3B59490E3C593F0E3D59D8B041
:1010100022D0800E3C5D390E3D59D8B009D0A0C019
:10102000A0F0A1C0A1F0A2C0A2F0A3C0A3F0120042
:10103000A0C07CF0A1C07DF0A2C07EF0A3C07FF074
:1010400033EC11F07CC0A0F07DC0A1F07EC0A2F016
:101050007FC0A3F01200D20E3A5D530E3B597B0EB7
:101060003C59400E3D59D8B0CAD0E40E3A5DCB0E83
:101070003B59160E3C59400E3D59D8B068D03051FE
:101080003111D8B437D0DB0E316E0F0E326EC90E6F
:10109000336E3F0E346EA0C02DF0A1C02EF0A2C062
:1010A0002FF0A3C030F0ADEC0FF02DC032F12EC008
:1010B00033F12FC034F130C035F132C13DF033C1CE
:1010C0003EF034C13FF035C140F04CEC12F03DC071
:1010D00078F03EC079F03FC07AF040C07BF08FECF2
:1010E0001AF078C0A0F079C0A1F07AC0A2F07BC05D
:1010F000A3F01200A0C02DF0A1C02EF0A2C02FF0CE
:10110000A3C030F0DB0E316E0F0E326EC90E336E9F
:10111000BF0E346EADEC0FF02DC032F12EC033F1A6
:101120002FC034F130C035F132C13DF033C13EF053
:1011300034C13FF035C140F04CEC12F03DC0A0F09E
:101140003EC0A1F03FC0A2F040C0A3F01200305159
:101150003111D8A41DD0DB0E316E0F0E326E490E48
:10116000336EC00E346EA0C02DF0A1C02EF0A2C010
:101170002FF0A3C030F0ADEC0FF02DC078F02EC0F2
:1011800079F02FC07AF030C07BF08FEC1AF01CD0D1
:10119000DB0E316E0F0E326E490E336E400E346E22
:1011A000A0C02DF0A1C02EF0A2C02FF0A3C030F03F
:1011B000ADEC0FF02DC078F02EC079F02FC07AF092
:1011C00030C07BF08FEC1AF078C028F179C029F19B
:1011D0007AC02AF17BC02BF128C17CF029C17DF0B7
:1011E0002AC17EF02BC17FF033EC11F07CC0A0F05F
:1011F0007DC0A1F07EC0A2F07FC0A3F01200D60E89
:101200003A5D310E3B59E20E3C59400E3D59D8B083
:1012100078D0E00E3A5DED0E3B59AF0E3C59400ED2
:101220003D59D8B02AD030513111D8B413D0A0C014
:101230002DF0A1C02EF0A2C02FF0A3C030F0E40E1C
:10124000316ECB0E326E960E336E400E346EADECB8
:101250000FF062D7E40E316ECB0E326E960E336E07
:10126000C00E346EA0C02DF0A1C02EF0A2C02FF091
:10127000A3C030F0ADEC0FF018D730513111D8A425
:1012800013D0A0C02DF0A1C02EF0A2C02FF0A3C09B
:1012900030F0DB0E316E0F0E326EC90E336EC00EA3
:1012A000346EADEC0FF012D0A0C02DF0A1C02EF026
:1012B000A2C02FF0A3C030F0DB0E316E0F0E326EE5
:1012C000C90E336E400E346EADEC0FF02DC02CF114
:1012D0002EC02DF12FC02EF130C02FF12CC17CF08B
:1012E0002DC17DF02EC17EF02FC17FF033EC11F0C7
:1012F0007CC0A0F07DC0A1F07EC0A2F07FC0A3F0B2
:101300001200800E3C5D7F0E3D59D8A01BD0A0C0BE
:101310003DF0A1C03EF0A2C03FF0A3C040F0A0C08D
:1013200041F0A1C042F0A2C043F0A3C044F0E5ECFC
:1013300019F03DC0A0F03EC0A1F03FC0A2F040C0F7
:10134000A3F01200A0C07CF0A1C07DF0A2C07EF08E
:10135000A3C07FF0360E0001806F010E816F42EC5A
:101360000AF000017CC020F17DC021F10101000ED6
:1013700021BFFF0E226F236F60D036C17CF037C1D2
:101380007DF038C17EF039C17FF033EC11F07CC0C4
:10139000A0F07DC0A1F07EC0A2F07FC0A3F012003B
:1013A00036C13DF037C13EF038C13FF039C140F0A1
:1013B0004CEC12F03DC0A0F03EC0A1F03FC0A2F046
:1013C00040C0A3F0120036C178F037C179F038C1BF
:1013D0007AF039C17BF08FEC1AF078C07CF079C0DC
:1013E0007DF07AC07EF07BC07FF033EC11F07CC0E2
:1013F000A0F07DC0A1F07EC0A2F07FC0A3F01200DB
:1014000036C13DF037C13EF038C13FF039C140F040
:101410004CEC12F03DC078F03EC079F03FC07AF05D
:1014200040C07BF08FEC1AF078C0A0F079C0A1F03A
:101430007AC0A2F07BC0A3F01200030E20154B6E01
:10144000000E21154C6E000E22154D6E000E231558
:101450004E6E4E50000AD8B410D0D2D74C50000A6D
:10146000D8A4CED74B50000AD8B487D7010AD8B435
:1014700097D7030AD8B4A7D7C3D74D50000AD8B41A
:10148000EDD7BED7C2C08CF0C3C08DF0C4C08EF003
:10149000C5C08FF07CC08CF07DC08DF07EC08EF01A
:1014A0007FC08FF08CC047F08DC048F08EC049F0EF
:1014B0008FC04AF0200E05D0D8904A3249324832C7
:1014C0004732E82EF9D747C08AF048C08BF0FF0EAC
:1014D00000018C15866FFF0E8D15876FFF0E8E1520
:1014E000886F7F0E8F15896F800E885D7F0E8959FA
:1014F000D8A024D07CC03DF07DC03EF07EC03FF03F
:101500007FC040F07CC041F07DC042F07EC043F01F
:101510007FC044F0E5EC19F080C0D9FF81C0DAFF4C
:101520003DC0DEFF3EC0DEFF3FC0DEFF40C0DEFF4D
:10153000000E00017D6F000E7C6F1200DB0E865DD9
:101540000F0E8759C90E88594D0E8959D8B0E9D068
:101550007CC006F07DC007F07EC008F07FC009F0B7
:101560005DEC1AF006C098F007C099F008C09AF038
:1015700009C09BF0000E316E000E326E000E336E0D
:101580003F0E346E830E186EF90E196E220E1A6E0F
:101590003F0E1B6E98C014F099C015F09AC016F05B
:1015A0009BC017F061EC0CF014C02DF015C02EF0AC
:1015B00016C02FF017C030F0ADEC0FF02DC03DF08D
:1015C0002EC03EF02FC03FF030C040F0E1EC16F0EE
:1015D0003DC09CF03EC09DF03FC09EF040C09FF0DB
:1015E0009CC006F09DC007F09EC008F09FC009F0A7
:1015F000010ECDEC14F006C094F007C095F008C0C1
:1016000096F009C097F0DA0E186E0F0E196EC90E1B
:101610001A6E3F0E1B6E94C014F095C015F096C064
:1016200016F097C017F061EC0CF014C041F015C033
:1016300042F016C043F017C044F098C03DF099C086
:101640003EF09AC03FF09BC040F0E5EC19F03DC081
:1016500090F03EC091F03FC092F040C093F090C037
:101660003DF091C03EF092C03FF093C040F0A30E19
:10167000186E850E196E880E1A6E320E1B6E94C08F
:1016800014F095C015F096C016F097C017F061ECF5
:101690000CF014C041F015C042F016C043F017C062
:1016A00044F0E5EC19F080C0D9FF81C0DAFF3DC0FD
:1016B000DEFF3EC0DEFF3FC0DEFF40C0DEFF0001B8
:1016C0008A518B11D8B428D080C0D9FF81C0DAFFED
:1016D000DECF78F0DECF79F0DECF7AF0DECF7BF0B0
:1016E0008FEC1AF080C0D9FF81C0DAFF000178C00A
:1016F000DEFF79C0DEFF7AC0DEFF7BC0DEFF9CC06C
:1017000047F09DC048F0471E481E474A482A47C038
:101710007CF048C07DF012009CC07CF09DC07DF044
:1017200012007CC006F07DC007F07EC008F07FC0CC
:1017300009F05DEC1AF006C098F007C099F008C0F7
:101740009AF009C09BF0000E316E000E326E000E52
:10175000336E3F0E346E830E186EF90E196E220E24
:101760001A6E3F0E1B6E98C014F099C015F09AC007
:1017700016F09BC017F061EC0CF014C02DF015C0F2
:101780002EF016C02FF017C030F0ADEC0FF02DC0CA
:101790003DF02EC03EF02FC03FF030C040F0E1ECF5
:1017A00016F03DC09CF03EC09DF03FC09EF040C092
:1017B0009FF09CC006F09DC007F09EC008F09FC03F
:1017C00009F0010ECDEC14F006C094F007C095F0BE
:1017D00008C096F009C097F0DA0E186E0F0E196E59
:1017E000C90E1A6E3F0E1B6E94C014F095C015F012
:1017F00096C016F097C017F061EC0CF014C041F0E1
:1018000015C042F016C043F017C044F098C03DF038
:1018100099C03EF09AC03FF09BC040F0E5EC19F053
:101820003DC090F03EC091F03FC092F040C093F0B8
:1018300090C03DF091C03EF092C03FF093C040F0A8
:10184000A30E186E850E196E880E1A6E320E1B6E60
:1018500094C014F095C015F096C016F097C017F01C
:1018600061EC0CF014C041F015C042F016C043F01A
:1018700017C044F0E5EC19F03DC082F03EC083F0A3
:101880003FC084F040C085F000018A518B11D8B46C
:101890000BD082C078F083C079F084C07AF085C024
:1018A0007BF08FEC1AF01ED780C0D9FF81C0DAFF21
:1018B00082C0DEFF83C0DEFF84C0DEFF85C0DEFFA6
:1018C0002BD71750800B206E17501724266E16BE8C
:1018D00026802650D8B40DD02628D8A408D0000ED3
:1018E000146E000E156E000E166E000E176E168E1C
:1018F00008D0000E146E000E156E000E166E000E4F
:10190000176E1B50800B201A1B501B24216E1ABE11
:1019100021802150D8B40DD02128D8A408D0000EA1
:10192000186E000E196E000E1A6E000E1B6E1A8EC7
:1019300008D0000E186E000E196E000E1A6E000E02
:101940001B6E2150D8B403D02650D8A409D0000E65
:10195000146E000E156E000E166E000E176E12003D
:101960001A501402F3CF2BF0F4CF2CF02B50226E30
:10197000236A246A256A2C50276E286A296A2A6AF3
:1019800019501502F3CF2BF0F4CF2CF02B50222658
:10199000000E2322242225222C502726000E282246
:1019A00029222A2218501602F3CF2BF0F4CF2CF064
:1019B0002B502226000E2322242225222C502726BB
:1019C000000E282229222A2224C025F023C024F038
:1019D00022C023F0226A18501502F3CF2BF0F4CF67
:1019E0002CF02B5022262C502322000E2422000EF5
:1019F000252219501402F3CF2BF0F4CF2CF02B50EA
:101A000022262C502322000E2422000E252224C040
:101A100025F023C024F022C023F0226A18501402BB
:101A2000F3CF2BF0F4CF2CF02B5022262C50232276
:101A3000000E2422000E25221A501502F3CF2BF09F
:101A4000F4CF2CF02B5027262C502822000E2922D0
:101A5000000E2A2219501602F3CF2BF0F4CF2CF0EF
:101A60002B5027262C502822000E2922000E2A2235
:101A70001A501602F3CF2BF0F4CF2CF02B501C6E23
:101A80002C501D6E1E6A1F6A1EC01FF01DC01EF066
:101A90001CC01DF01C6A1C5027261D5028221E50F9
:101AA00029221F502A2222C01CF023C01DF024C06E
:101AB0001EF025C01FF0190E05D0D8901F321E321F
:101AC0001D321C32E82EF9D71C5027261D50282223
:101AD0001E5029221F502A2224C025F023C024F0A2
:101AE00022C023F0226A215026C01CF01D6A1C2649
:101AF000000E1D22820E1C242B6EFF0E1D202C6E4C
:101B00000FD0D8902736283629362A3625BE27808A
:101B1000D89022362336243625362B06D8A02C061C
:101B200029AEEFD7000E216E25AE17D0FF0E22147E
:101B30001C6EFF0E23141D6EFF0E24141E6E7F0EEE
:101B400025141F6E1C501D101E101F10D8B403D07A
:101B5000010E216E02D027B0FBD72150D8B41FD080
:101B6000010E2726000E282229222A222AA017D079
:101B700027C01CF028C01DF029C01EF02AC01FF08D
:101B80001F341F321E321D321C321CC027F01DC0F4
:101B900028F01EC029F01FC02AF02B4A2C2A2CBE88
:101BA0000DD02C5003E12B28D8A008D0000E276EB2
:101BB000000E286E800E296E7F0E20D02CBE05D020
:101BC0002C500EE12B04D8B00BD0000E276E000E67
:101BD000286E000E296E000E2A6E000E206E0FD0A9
:101BE0002BC026F0FF0E2716FF0E28167F0E291693
:101BF000000E2A1626B0298ED89026302A6E205044
:101C00002A1227C014F028C015F029C016F02AC0E7
:101C100017F0120043C0D9FF44C0DAFFDECFF6FF51
:101C2000DDCFF7FF000EF86E0800F550250AD8A4A6
:101C300078D143C0D9FF44C0DAFFDE2A000EDD228E
:101C4000000E566E000E556E55C057F056C058F037
:101C50000001C869C969000E6A6F000E14D0578070
:101C600043C0D9FF44C0DAFFDE2A000EDD2230D0A7
:101C70005782F6D75784F4D75786F2D75788F0D7CC
:101C8000000E6A6F010E696F23D043C0D9FF44C0B4
:101C9000DAFFDECFF6FFDDCFF7FF000EF86E0800AB
:101CA000F550476E486A4850000AD8A4E9D7475013
:101CB000200AD8B4E1D7030AD8B4E0D7080AD8B4C8
:101CC000D9D7060AD8B4CBD71D0AD8B4D1D7D8D71C
:101CD00069516A11D8B4D9D757B0579243C0D9FFC8
:101CE00044C0DAFFDECFF6FFDDCFF7FF000EF86E5F
:101CF0000800F5502A0AD8A423D043C0D9FF44C015
:101D0000DAFFDE2A000EDD2245C0D9FF46C0DAFF29
:101D1000DFCF47F0020EDE26DFCF48F0000EDD22D7
:101D200047C0D9FF48C0DAFFDECF55F0DDCF56F00F
:101D300056AE42D05780556C561ED8B0562A3CD06D
:101D400043C0D9FF44C0DAFFDECF0DF0DDCF0EF087
:101D500023EC14F00DC055F00EC056F007D043C070
:101D6000D9FF44C0DAFFDE2A000EDD22D00E476E16
:101D7000FF0E486E43C0D9FF44C0DAFFDECFF6FF46
:101D8000DDCFF7FF000EF86E0800F550496E4A6A85
:101D90004750492648504A224A5006E10A0E495CFB
:101DA000D8B002D0010E01D0000E00016B6F6C6B39
:101DB0006B516C11D8A4D3D743C0D9FF44C0DAFF0C
:101DC000DECFF6FFDDCFF7FF000EF86E0800F5500E
:101DD000630AD8A426D043C0D9FF44C0DAFFDE2A64
:101DE000000EDD2245C0D9FF46C0DAFFDFCF47F045
:101DF000020EDE26DFCF48F0000EDD2247C0D9FFFD
:101E000048C0DAFFDF50686F41C021F042C022F0C5
:101E100068C023F0BEEC19F021C041F022C042F0AE
:101E2000120043C0D9FF44C0DAFFDECFF6FFDDCF9A
:101E3000F7FF000EF86E0800F550750AD8A440D0E0
:101E400043C0D9FF44C0DAFFDE2A000EDD2245C0C0
:101E5000D9FF46C0DAFFDFCF47F0020EDE26DFCF24
:101E600048F0000EDD2247C0D9FF48C0DAFFDECFC0
:101E700049F0DDCF4AF049C060F04AC061F0626BC2
:101E8000636B646B656B666B676B41C021F042C02E
:101E900022F060C023F061C024F062C025F063C06E
:101EA00026F064C027F065C028F066C029F067C03E
:101EB0002AF04BEC13F021C041F022C042F0120096
:101EC00043C0D9FF44C0DAFFDECFF6FFDDCFF7FF16
:101ED000000EF86E0800F550250AD8A416D043C0AD
:101EE000D9FF44C0DAFFDE2A000EDD22000E076EA5
:101EF000250E066E41C008F042C009F095EC17F0BF
:101F0000000E426E010E416E120043C0D9FF44C064
:101F1000DAFFDE2A000EDD22000E426E000E416E58
:101F2000120043C0D9FF44C0DAFFDECFF6FFDDCF99
:101F3000F7FF000EF86E0800F550066E076A41C004
:101F400008F042C009F095EC17F043C0D9FF44C037
:101F5000DAFFDE2A000EDD22D3D73050800B396E37
:101F6000305030243B6E2FBE3B803B50D8B40DD058
:101F70003B28D8A408D0000E2D6E000E2E6E000E49
:101F80002F6E000E306E2F8E06D0000E2D6E000EBE
:101F90002E6E000E2F6E000E306E3450800B3A6E97
:101FA00039503A18D8A4398C345034243A6E33BEA0
:101FB0003A803A50D8B40DD03A28D8A408D0000EB0
:101FC000316E000E326E000E336E000E346E338EA4
:101FD00006D0000E316E000E326E000E336E000E13
:101FE000346E3B503A5CD8B022D039AC02D0800E6F
:101FF000391A3BC03CF03AC03BF03CC03AF02DC02F
:102000003CF031C02DF03CC031F02EC03CF032C06D
:102010002EF03CC032F02FC03CF033C02FF03CC05B
:1020200033F030C03CF034C030F03CC034F0000E2F
:102030003C6E3B503AC035F0366A355E000E365A7B
:1020400036BE2CD0365004E11A0E355CD8A026D00E
:102050002D502E102F103010D8B402D0010E01D008
:10206000000E3C6E000E2D6E000E2E6E000E2F6EBA
:10207000000E306E3AC03BF015D03CA005D0D89091
:102080003C3001093C6E02D0D8903C322DB03C8EE1
:10209000303430322F322E322D323B2A3A503B5CD4
:1020A000D8A0EBD739BC28D03B50D8A409D0000E1B
:1020B0002D6E000E2E6E000E2F6E000E306E120072
:1020C00031502D2632502E2233502F2234503022C0
:1020D00030A071D03CA005D0D8903C3001093C6EB6
:1020E00002D0D8903C322DB03C8E303430322F327A
:1020F0002E322D323B2A5FD031502D5C32502E587B
:1021000033502F583050800A356E3450800A35587D
:10211000D8B025D02D50315C356E2E503258366EE9
:102120002F503358376E30503458386EFF0E3524E8
:102130002D6EFF0E36202E6EFF0E37202F6EFF0EF7
:102140003820306E800E391A3C6C3C50D8A40FD029
:10215000010E2D26000E2E222F22302208D03150C3
:102160002D5E32502E5A33502F5A3450305A2D5043
:102170002E102F103010D8A41CD03C50D8A419D049
:10218000000E2D6E000E2E6E000E2F6E000E306EA5
:102190001200D8902D362E362F3630363CBE2D808C
:1021A0003CA002D0D88001D0D8903C363B50D8A477
:1021B0003B062FAEEED7000E3A6E3CAE0BD03CC0C5
:1021C00035F07F0E3516D8B403D0010E3A6E02D02A
:1021D0002DB0FBD73A50D8B420D0010E2D26000EDA
:1021E0002E222F22302230A018D02DC035F02EC044
:1021F00036F02FC037F030C038F03834383237324C
:102200003632353235C02DF036C02EF037C02FF0C3
:1022100038C030F03B28D8A43B2A3B28D8B403D0A0
:102220003B50D8A40DD0000E2D6E000E2E6E000E69
:102230002F6E000E306E3B50D8A402D0000E396EC7
:102240003BA002D02F8E01D02F9ED8903B30306E15
:1022500039BE308E2DC02DF02EC02EF02FC02FF0A5
:1022600030C030F012007CC014F07DC015F07EC08C
:1022700016F07FC017F07CC018F07DC019F07EC04A
:102280001AF07FC01BF061EC0CF014C098F015C080
:1022900099F016C09AF017C09BF098C014F099C03E
:1022A00015F09AC016F09BC017F098C018F099C0AE
:1022B00019F09AC01AF09BC01BF061EC0CF014C02E
:1022C00084F015C085F016C086F017C087F03C0E6C
:1022D000186E6C0E196E360E1A6E360E1B6E98C086
:1022E00014F099C015F09AC016F09BC017F061EC7D
:1022F0000CF014C02DF015C02EF016C02FF017C032
:1023000030F0CF0E316E070E326E500E336EB90EB6
:10231000346EADEC0FF02DC080F02EC081F02FC0D8
:1023200082F030C083F098C014F099C015F09AC0C4
:1023300016F09BC017F07CC018F07DC019F07EC06D
:102340001AF07FC01BF061EC0CF014C094F015C0C3
:1023500095F016C096F017C097F0AB0E316EAA0E2E
:10236000326E2A0E336EBE0E346E840E186E880ED8
:10237000196E080E1A6E3C0E1B6E98C014F099C0B0
:1023800015F09AC016F09BC017F061EC0CF014C069
:102390002DF015C02EF016C02FF017C030F0ADECA8
:1023A0000FF02DC088F02EC089F02FC08AF030C009
:1023B0008BF084C018F085C019F086C01AF087C071
:1023C0001BF094C014F095C015F096C016F097C09D
:1023D00017F061EC0CF014C08CF015C08DF016C035
:1023E0008EF017C08FF07CC031F07DC032F07EC01F
:1023F00033F07FC034F094C018F095C019F096C047
:102400001AF097C01BF088C014F089C015F08AC07C
:1024100016F08BC017F061EC0CF014C02DF015C055
:102420002EF016C02FF017C030F0ADEC0FF02DC01D
:1024300090F02EC091F02FC092F030C093F090C079
:102440002DF091C02EF092C02FF093C030F080C0DC
:1024500018F081C019F082C01AF083C01BF08CC044
:1024600014F08DC015F08EC016F08FC017F061EC1F
:102470000CF014C031F015C032F016C033F017C0A4
:1024800034F0ADEC0FF02DC07CF02EC07DF02FC0ED
:102490007EF030C07FF012003DC014F03EC015F059
:1024A0003FC016F040C017F03DC018F03EC019F014
:1024B0003FC01AF040C01BF061EC0CF014C074F087
:1024C00015C075F016C076F017C077F074C014F020
:1024D00075C015F076C016F077C017F074C018F00C
:1024E00075C019F076C01AF077C01BF061EC0CF0E3
:1024F00014C070F015C071F016C072F017C073F000
:10250000170E186E9A0E196ECC0E1A6E370E1B6EC1
:1025100074C014F075C015F076C016F077C017F0CF
:1025200061EC0CF014C02DF015C02EF016C02FF089
:1025300017C030F03F0E316E040E326EB60E336EA1
:10254000BA0E346EADEC0FF02DC060F02EC061F00D
:102550002FC062F030C063F0000E316E000E326E9C
:10256000800E336E3F0E346E000E186E000E196E24
:10257000000E1A6EBF0E1B6E74C014F075C015F0FD
:1025800076C016F077C017F061EC0CF014C02DF097
:1025900015C02EF016C02FF017C030F0ADEC0FF0C4
:1025A0002DC064F02EC065F02FC066F030C067F01B
:1025B00074C018F075C019F076C01AF077C01BF01F
:1025C00070C014F071C015F072C016F073C017F02F
:1025D00061EC0CF014C068F015C069F016C06AF028
:1025E00017C06BF09F0E186EAA0E196E2A0E1A6E87
:1025F0003D0E1B6E70C014F071C015F072C016F065
:1026000073C017F061EC0CF014C031F015C032F05B
:1026100016C033F017C034F064C02DF065C02EF042
:1026200066C02FF067C030F0ADEC0FF02DC06CF03D
:102630002EC06DF02FC06EF030C06FF06CC02DF06A
:102640006DC02EF06EC02FF06FC030F060C018F07B
:1026500061C019F062C01AF063C01BF068C014F0CA
:1026600069C015F06AC016F06BC017F061EC0CF091
:1026700014C031F015C032F016C033F017C034F07A
:10268000ADEC0FF02DC03DF02EC03EF02FC03FF05E
:1026900030C040F012000001C9AF5792C9BF05D049
:1026A000C95108E1C805D8B005D0000E346E010E3E
:1026B000336E04D0C8C033F0C9C034F055C035F013
:1026C00056C036F023C037F024C038F025C039F0AA
:1026D00026C03AF027C03BF028C03CF029C03DF0AE
:1026E0002AC03EF0000E406E1F0E3F6E000E01012C
:1026F0001F6F76D03F06D8A04006000E3F24D96E4B
:10270000010E4020DA6E37C006F038C007F039C03D
:1027100008F03AC009F03BC00AF03CC00BF03DC0E5
:102720000CF03EC00DF00A0E0E6E000E0F6E000E85
:10273000106E000E116E000E126E000E136E000E63
:10274000146E000E156E3EEC17F006C02BF007C09D
:102750002CF008C02DF009C02EF00AC02FF00BC0DD
:1027600030F00CC031F00DC032F02B50300FDF6E66
:102770003306D8A034063506D8A0360637C006F092
:1027800038C007F039C008F03AC009F03BC00AF081
:102790003CC00BF03DC00CF03EC00DF00A0E0E6EBA
:1027A000000E0F6E000E106E000E116E000E126EF7
:1027B000000E136E000E146E000E156E7AEC16F0FD
:1027C00006C037F007C038F008C039F009C03AF049
:1027D0000AC03BF00BC03CF00CC03DF00DC03EF019
:1027E0003F504010D8B41AD03750381039103A1032
:1027F0003B103C103D103E10D8A47CD734BE05D011
:10280000345002E13304D8B075D736BE07D0365005
:1028100003E13504D8A002D057B26CD721C016F01E
:1028200022C017F0000E3F24186E010E4020196ED2
:1028300035C01AF036C01BF0E5EC17F016C021F0D9
:1028400017C022F01200000E1B6E000E1A6E000E52
:10285000146E000E136E02D00D4A0E2A010E196E70
:102860000DC0F6FF0EC0F7FF000EF86E0800F55021
:10287000200AD8B41AD0F70E0F6EFF0E106E0DC0DE
:10288000F6FF0EC0F7FF000EF86E0800F550116E4F
:10289000126A0F50112610501222125004E1050E38
:1028A000115CD8A002D0000E196E19C015F0166A7E
:1028B00015501610D8B408D0CFD7000E146E010EE4
:1028C000136E0D4A0E2A32D00DC0F6FF0EC0F7FF70
:1028D000000EF86E0800F5500F6E106A1050000AD6
:1028E000D8A424D00F502B0AD8B4EBD7060AD8B4FA
:1028F000E4D71CD01AC006F01BC007F0000E096E0A
:102900000A0E086EE5EC1AF00DC0F6FF0EC0F7FFD8
:10291000000EF86E0800F550065E000E075A300EE5
:1029200006241A6E000E07201B6ECBD7D00E0F6E3A
:10293000FF0E106E0DC0F6FF0EC0F7FF000EF86E12
:102940000800F550116E126A0F5011261050122215
:10295000125006E10A0E115CD8B002D0010E01D06F
:10296000000E176E186A17501810D8A4C3D713504A
:102970001410D8A40DD01AC00FF01BC010F00F1EF9
:10298000101E0F4A102A0FC00DF010C00EF01200DA
:102990001AC00DF01BC00EF012000E6E0E50D8A41F
:1029A00009AE1AD006C00AF007C00BF008C00CF040
:1029B00009C00DF00A1E0B1E0C1E0D1E0A2A000E69
:1029C0000B220C220D220AC010F00BC011F00CC01B
:1029D00012F00DC013F008D006C010F007C011F0BF
:1029E00008C012F009C013F00650071008100910B3
:1029F000D8A409D0000E066E000E076E000E086EF9
:102A0000000E096E1200960E0F6E06D00F2AD89097
:102A10001332123211321032000E10140A6E000EF0
:102A200011140B6E000E12140C6EFE0E13140D6EAC
:102A30000A500B100C100D10D8B40DD0E7D70F2A88
:102A4000010E1026000E112212221322D8901332EA
:102A5000123211321032000E10140A6E000E1114D0
:102A60000B6E000E12140C6EFF0E13140D6E0A5036
:102A70000B100C100D10D8B407D0E1D70F06D8906A
:102A8000103611361236133612BE03D0020E0F6006
:102A9000F5D70FA0129ED8900F320FC00AF00B6A24
:102AA0000C6A0D6A0AC00DF00C6A0B6A0A6A0A50B9
:102AB00010120B5011120C5012120D5013120E5016
:102AC000D8A409AE01D0138E10C006F011C007F0D3
:102AD00012C008F013C009F0120020EE87F0130EA8
:102AE000DE6AE806FDE277D038EC1BF043EC1AF022
:102AF000760E0E6E0F0E0F6EA8EC18F0120031EC71
:102B00001BF043EC1AF0610E0E6E0F0E0F6EA8EC68
:102B100018F01200010E96EC19F000019D6F9D5106
:102B2000DFEC18F01200000E96EC19F000019D6F1A
:102B30009D51DFEC18F012002AEC1BF0120000018E
:102B400020EE01F08551D9268651DA22DF50506EF1
:102B50005050640DF3CF51F0F4CF52F020EE02F05C
:102B60008551D9268651DA22DF50536E53500A0D13
:102B7000F3505126F450522220EE03F08551D9260D
:102B80008651DA22DF50546E54505126000E5222E4
:102B9000300E51249B6FEB0E52209C6F9B510AEC20
:102BA00016F0870E0001736F000E746F450E756F7F
:102BB0000F0E766F9BC077F09CC078F0000E7A6F96
:102BC000250E796F6DEC19F0870E0E6E000E0F6EEC
:102BD000A8EC18F0120085C0D9FF86C0DAFFDF50DC
:102BE000506E516A5150000AD8A412005050460A43
:102BF000D8B4A5D7270AD8B48DD7020AD8B49CD7A1
:102C0000070AD8B490D7170AD8B479D7040AD8A439
:102C100012006AD74F6EA60E186E9B0E196E440EE8
:102C20001A6E3B0E1B6E4F50066E076A086A096AE1
:102C3000010ECDEC14F006C014F007C015F008C06A
:102C400016F009C017F061EC0CF014C02DF015C09F
:102C50002EF016C02FF017C030F09A0E316E990E7C
:102C6000326E190E336E3F0E346EADEC0FF02DC088
:102C700047F02EC048F02FC049F030C04AF0000E97
:102C8000186E000E196E800E1A6E400E1B6E47C035
:102C900014F048C015F049C016F04AC017F061ECB6
:102CA0000CF014C04BF015C04CF016C04DF017C01E
:102CB0004EF0000E186E000E196EFA0E1A6E420ECD
:102CC0001B6E4BC014F04CC015F04DC016F04EC03A
:102CD00017F061EC0CF014C03DF015C03EF016C0CA
:102CE0003FF017C040F0E1EC16F03DC0CCF03EC024
:102CF000CDF0120020EE16F0070EDE6AE806FDE2C7
:102D00000E500F1010101110121013101410151077
:102D1000D8B446D0010E1E6E0AD0D8900E360F36AB
:102D20001036113612361336143615361E2A15AEE5
:102D3000F4D7D89016361736183619361A361B3689
:102D40001C361D360E50065C0F50075810500858A0
:102D50001150095812500A5813500B5814500C585F
:102D600015500D58D8A011D00E50065E0F50075ABE
:102D70001050085A1150095A12500A5A13500B5A3F
:102D800014500C5A15500D5A1680D8901532143222
:102D900013321232113210320F320E321E2EC9D7B8
:102DA00016C006F017C007F018C008F019C009F0E7
:102DB0001AC00AF01BC00BF01CC00CF01DC00DF0B7
:102DC00012003F344034466E4650D8A409D0000E5D
:102DD0003D6E000E3E6E000E3F6E000E406E120005
:102DE0003DC041F03EC042F03FC043F040C044F01F
:102DF000200E05D0D8904432433242324132E82E80
:102E0000F9D74150456E3F8EFF0E3D16FF0E3E1620
:102E1000FF0E3F16000E4016960E465E46AE0DD0D3
:102E20004650800A970FD8A0D2D7D89040323F3270
:102E30003E323D32463EF9D70DD01F0E466407D0D4
:102E4000C6D7D8903D363E363F36403646064650C9
:102E5000D8A4F7D74550D8B408D0401E3F1E3E1E18
:102E60003D6C000E3E223F2240223DC03DF03EC060
:102E70003EF03FC03FF040C040F012000E500F1037
:102E8000101011101210131014101510D8B43CD0DB
:102E9000010E166E0AD0D8900E360F361036113647
:102EA0001236133614361536162A15AEF4D70E50D0
:102EB000065C0F500758105008581150095812500E
:102EC0000A5813500B5814500C5815500D58D8A0D0
:102ED00010D00E50065E0F50075A1050085A11506D
:102EE000095A12500A5A13500B5A14500C5A1550C2
:102EF0000D5AD89015321432133212321132103268
:102F00000F320E32162ED3D706C006F007C007F0D8
:102F100008C008F009C009F00AC00AF00BC00BF0A5
:102F20000CC00CF00DC00DF0120008500910D8B400
:102F300004D008500910D8A404D0065051EC1BF05E
:102F4000120020EE04F00850D9260950DA22DE5093
:102F5000DE10D8B416D020EE04F00850D92609505F
:102F6000DA2210EE02F00850E1260950E222DE508B
:102F7000E65CE650800A0E6EDE50800A0E58D8B02D
:102F8000120020EE02F00850D9260950DA22DECFD6
:102F90000AF0DDCF0BF008C0D9FF09C0DAFFDECFA1
:102FA0000CF0DDCF0DF00A500C24D96E0B500D2023
:102FB000DA6E06C0DFFF20EE02F00850D926095075
:102FC000DA22DE2A000EDD22120057A00AD018C035
:102FD0000FF019C010F016C011F017C012F027EC56
:102FE0001AF01BBE05D01AC01FF01BC020F004D081
:102FF000000E206E000E1F6E000E1E6E000E1D6E67
:103000000CD0000E076E200E066E16C008F017C01A
:1030100009F095EC17F01D4A1E2A1F501D5C1E502A
:10302000800A1C6E2050800A1C58D8A0EAD757B0DE
:103030000AD018C00FF019C010F016C011F017C058
:1030400012F027EC1AF018C006F019C007F0A7EC30
:103050001AF01F500624166E20500720176E12001B
:1030600020EEDFF010EEA4F0050EDBCFE3FFE80664
:10307000FCE214EC1BF0A40E0E6E000E0F6EA8EC1A
:1030800018F0F60E0001A06F370EA16F100EA26FA0
:10309000420EA36FD8EC07F00001D105D8A408D0E8
:1030A000000ED16FD50E856F000E866F6DEC15F09A
:1030B0000001CF05D8A404D0000ECF6FBCEC1AF0ED
:1030C0000001D005D8A402D0000ED06FCE05D8A440
:1030D000E3D7000ECE6FE0D706C0F6FF07C0F7FFBC
:1030E000000EF86E0E0EF76403D00800F55005D000
:1030F000F6CFE1FFF7CFE2FFE7500C6E010E0D6E49
:10310000000E0B6E000E0A6E1BD00D500624086ECA
:10311000000E0720096E08C0F6FF09C0F7FF000E79
:10312000F86E0E0EF76403D00800F55005D0F6CF08
:10313000E1FFF7CFE2FFE7500C6E0D2A0A4A0B2A97
:103140000C50D8A4E2D70AC006F00BC007F012005A
:103150000EC006F00FC007F06CEC18F006C012F0BD
:1031600007C013F0000E146E20D014500E24106E01
:10317000000E0F20116E10C0F6FF11C0F7FF000EF9
:10318000F86E0E0EF76403D00800F55005D0F6CFA8
:10319000E1FFF7CFE2FFE750AE6E2F0E106EC00ECC
:1031A000E82EFED7102EFCD7142A1450106E116A88
:1031B0001250105C13501158D8B01200D6D7086EB8
:1031C0000F0E096E07D00F0E03D0170E01D0050E9B
:1031D000096E11D00850066E076A0750000AD8A47D
:1031E0000AD00650000AD8B4F0D75A0AD8B4EBD7A0
:1031F000EE0AD8B4ECD783B806D009C0E5F00001D8
:10320000E66B83880AD00950C8080001E56F000EFC
:10321000D8A0E82A0008E66F8398000ED36F0F014C
:1032200022811200980EF66E360EF76E000EF86EC2
:1032300000EEDFF010EE0AF00900F5CFEEFFE550EA
:10324000E150FAE1A40EF66E360EF76E000EF86E3F
:103250000900F5CF59F001EE00F0200EEE6AE80605
:10326000FDE100EEAAF0350EEE6AE806FDE1586ACF
:10327000576A566A556A5A905A92000130EF18F010
:103280006FC04BF070C04CF0000E0001C76F000E15
:10329000C66F13D06DC041F06EC042F04B0E436E4E
:1032A000000E446E71C045F072C046F00AEC0EF09C
:1032B00041500001C6274250C7234BC0F6FF4CC007
:1032C000F7FF000EF86E0800F5500009D8A4E2D709
:1032D000C6C06DF0C7C06EF01200770E00017D6FA2
:1032E000000E7E6F73C07FF074C080F0000E826F9E
:1032F000000E816F000E846F000E836F7F0E6D6F66
:10330000000E6E6F75C06FF076C070F07D0E716F3D
:10331000000E726F40EC19F0000181517325D96ED7
:1033200082517421DA6E000EDF6E1200096E000EFB
:10333000086E10D0010ED26FB40E06D00904D8B4B6
:103340001BD0000ED26F5A0E086E16D00904D8B4E6
:10335000F8D712D00001D251066E076A0750000A52
:10336000D8A40AD00650000AD8B4E4D7010AD8B4C9
:10337000E5D7030AD8B4EAD70850120055505610C2
:10338000D8A405D055C024F056C025F006D0FF0EB5
:103390005524246EFF0E5620256E23C000F1000E2A
:1033A0000101016F21C016F022C017F0000E186E47
:1033B000010E196E24C01AF025C01BF0E5EC17F0C1
:1033C00016C021F017C022F01200000E411A000EA4
:1033D000421A000E431A800E441A3DC02DF03EC022
:1033E0002EF03FC02FF040C030F041C031F042C05D
:1033F00032F043C033F044C034F0ADEC0FF02DC0D8
:103400003DF02EC03EF02FC03FF030C040F0120023
:10341000010E0C6E200E06180710D8B414D0F70E4B
:10342000086EFF0E096E06C00AF007C00BF00850C8
:103430000A2609500B220B5004E1050E0A5CD8A0A5
:1034400002D0000E0C6E0CC006F0076A1200000ECF
:10345000156E000E146E0BD013C006F0076A11C073
:1034600008F012C009F095EC17F0144A152A145010
:103470000F24D96E15501020DA6EDF50136E1350E2
:10348000D8B41200E9D7D1EC1AF0CCC008F0030E82
:103490000816083A0F0109510818CF0B0818096FD0
:1034A000CCC008F0CDC009F0D89009320832D890CD
:1034B0000932083208500A6F1200BEC00AF0BFC0BD
:1034C0000BF0C0C00CF0C1C00DF006C00AF007C080
:1034D0000BF008C00CF009C00DF00D9E0AC006F0FC
:1034E0000BC007F00CC008F00DC009F01200D00EA0
:1034F000086EFF0E096E06C00AF007C00BF00850F8
:103500000A2609500B220B5006E10A0E0A5CD8B0BD
:1035100002D0010E01D0000E066E076A12000001F3
:10352000785179117A117B11D8B408D0000E781B2C
:10353000000E791B000E7A1B800E7B1B78C078F082
:1035400079C079F07AC07AF07BC07BF0120006C0B7
:1035500008F007C009F002D0064A072A06C0D9FFC2
:1035600007C0DAFFDF50D8A4F7D70850065C066E14
:1035700009500758076E120083A80DD08398E5C044
:1035800059F05950C8080001E56F000ED8A0E82A8C
:103590000008E66F1200838859C0E5F00001E66B71
:1035A00012000F010951CF0B2009096F700E0A6F2D
:1035B000CA84040E076E0C0E066E340EE82EFED77B
:1035C000062EFCD7072EFAD7120006500802F3CFBA
:1035D0000AF0F4CF0BF006500902F3500B26075007
:1035E0000802F3500B260AC006F00BC007F01200C9
:1035F0009398939E0F010951F00B0C09096F3F0E30
:103600005117020ECA6E7C0ECB6E000ECC6E1200ED
:10361000948E949C220EAD6E900EAC6E7E964D0EE6
:10362000B06E9E9A9D8A120046EC1BF0F8EC1AF0E0
:103630003FEC1BF008EC1BF01FEC1BF01200959800
:103640008398320E0F01226F24696A0E236F9184D2
:1036500098941200CF0E0F010917000E0A6FCA943A
:1036600012009D0E0E6E0F0E0F6EA8EC18F01200D9
:103670008A0E0E6E0F0E0F6EA8EC18F012009380DB
:10368000F28EF28CF19CF292F28812007F0E0F0102
:10369000486F1F0E496F1200484F4C412100B9007E
:0536A000C20112000F41
:020000040001F9
:08FFF800AAF7FDFFF3F9FFFB7E
:00000001FF
