:020000040000FA
:0400000031EF00F0EC
:100008005B82D9CF02F0DACF03F09EAA20D0AFCF1F
:1000180004F0500E0418D8A405D0010E576E000E37
:10002800566E15D0940E5624D96EDA6A000EDA226E
:1000380004C0DFFF562A04C0AEFF4E0E016EEB0E61
:10004800E82EFED7012EFCD700F02D0EAE6E03C0B1
:0E005800DAFF02C0D9FF5B9211002CEF0EF010
:100F000000534552564F202B2B0053544F50202B4B
:100F10002B004150414741444F00465545474F2122
:100F200000001650800B1F6E16501624256E15BE3D
:100F300025802550D8B40DD02528D8A408D0000E7F
:100F4000136E000E146E000E156E000E166E158ECA
:100F500008D0000E136E000E146E000E156E000EFB
:100F6000166E1A50800B1F1A1A501A24246E19BEBE
:100F700024802450D8B40DD02428D8A408D0000E42
:100F8000176E000E186E000E196E000E1A6E198E76
:100F900008D0000E176E000E186E000E196E000EAF
:100FA0001A6E2450D8B403D02550D8A409D0000E0E
:100FB000136E000E146E000E156E000E166E1200EB
:100FC00019501302F3CF2AF0F4CF2BF02A50206EE1
:100FD000216A226A236A2B50266E276A286A296AA8
:100FE00018501402F3CF2AF0F4CF2BF02A50202609
:100FF000000E2122222223222B502626000E2722F9
:101000002822292217501502F3CF2AF0F4CF2BF013
:101010002A502026000E2122222223222B5026266F
:10102000000E27222822292222C023F021C022F0EC
:1010300020C021F0206A17501402F3CF2AF0F4CF19
:101040002BF02A5020262B502122000E2222000EA7
:10105000232218501302F3CF2AF0F4CF2BF02A509A
:1010600020262B502122000E2222000E232222C0F5
:1010700023F021C022F020C021F0206A1750130273
:10108000F3CF2AF0F4CF2BF02A5020262B50212228
:10109000000E2222000E232219501402F3CF2AF050
:1010A000F4CF2BF02A5026262B502722000E282280
:1010B000000E292218501502F3CF2AF0F4CF2BF09E
:1010C0002A5026262B502722000E2822000E2922E5
:1010D00019501502F3CF2AF0F4CF2BF02A501B6ED3
:1010E0002B501C6E1D6A1E6A1DC01EF01CC01DF018
:1010F0001BC01CF01B6A1B5026261C5027221D50AB
:1011000028221E50292220C01BF021C01CF022C022
:101110001DF023C01EF0190E05D0D8901E321D32CE
:101120001C321B32E82EF9D71B5026261C502722D2
:101130001D5028221E50292222C023F021C022F057
:1011400020C021F0206A245025C01BF01C6A1B26F9
:10115000000E1C22820E1B242A6EFF0E1C202B6EFA
:101160000FD0D890263627362836293623BE26803B
:10117000D89020362136223623362A06D8A02B06D0
:1011800028AEEFD7000E246E23AE17D0FF0E20142A
:101190001B6EFF0E21141C6EFF0E22141D6E7F0E9F
:1011A00023141E6E1B501C101D101E10D8B403D02B
:1011B000010E246E02D026B0FBD72450D8B41FD025
:1011C000010E2626000E27222822292229A017D028
:1011D00026C01BF027C01CF028C01DF029C01EF03F
:1011E0001E341E321D321C321B321BC026F01CC0A6
:1011F00027F01DC028F01EC029F02A4A2B2A2BBE3A
:101200000DD02B5003E12A28D8A008D0000E266E5E
:10121000000E276E800E286E7F0E20D02BBE05D0CC
:101220002B500EE12A04D8B00BD0000E266E000E13
:10123000276E000E286E000E296E000E1F6E0FD056
:101240002AC025F0FF0E2616FF0E27167F0E281641
:10125000000E291625B0288ED8902530296E1F50F3
:10126000291226C013F027C014F028C015F029C099
:1012700016F012002F50800B386E2F502F243A6E2C
:101280002EBE3A803A50D8B40DD03A28D8A408D00F
:10129000000E2C6E000E2D6E000E2E6E000E2F6EA8
:1012A0002E8E06D0000E2C6E000E2D6E000E2E6EB1
:1012B000000E2F6E3350800B396E38503918D8A479
:1012C000388C33503324396E32BE39803950D8B41B
:1012D0000DD03928D8A408D0000E306E000E316E23
:1012E000000E326E000E336E328E06D0000E306E5F
:1012F000000E316E000E326E000E336E3A50395CC5
:10130000D8B022D038AC02D0800E381A3AC03BF0A8
:1013100039C03AF03BC039F02CC03BF030C02CF063
:101320003BC030F02DC03BF031C02DF03BC031F060
:101330002EC03BF032C02EF03BC032F02FC03BF04D
:1013400033C02FF03BC033F0000E3B6E3A5039C033
:1013500034F0356A345E000E355A35BE2CD0355027
:1013600004E11A0E345CD8A026D02C502D102E107B
:101370002F10D8B402D0010E01D0000E3B6E000E2B
:101380002C6E000E2D6E000E2E6E000E2F6E39C0CC
:101390003AF015D03BA005D0D8903B3001093B6E08
:1013A00002D0D8903B322CB03B8E2F342F322E32CD
:1013B0002D322C323A2A39503A5CD8A0EBD738BCBF
:1013C00028D03A50D8A409D0000E2C6E000E2D6EF5
:1013D000000E2E6E000E2F6E120030502C26315053
:1013E0002D2232502E2233502F222FA071D03BA01D
:1013F00005D0D8903B3001093B6E02D0D8903B32EB
:101400002CB03B8E2F342F322E322D322C323A2AF2
:101410005FD030502C5C31502D5832502E582F5008
:10142000800A346E3350800A3458D8B025D02C50FE
:10143000305C346E2D503158356E2E503258366E29
:101440002F503358376EFF0E34242C6EFF0E35208C
:101450002D6EFF0E36202E6EFF0E37202F6E800E63
:10146000381A3B6C3B50D8A40FD0010E2C26000E2E
:101470002D222E222F2208D030502C5E31502D5A92
:1014800032502E5A33502F5A2C502D102E102F1010
:10149000D8A41CD03B50D8A419D0000E2C6E000E3E
:1014A0002D6E000E2E6E000E2F6E1200D8902C3670
:1014B0002D362E362F363BBE2C803BA002D0D88056
:1014C00001D0D8903B363A50D8A43A062EAEEED78B
:1014D000000E396E3BAE0BD03BC034F07F0E34169D
:1014E000D8B403D0010E396E02D02CB0FBD73950DE
:1014F000D8B420D0010E2C26000E2D222E222F2211
:101500002FA018D02CC034F02DC035F02EC036F0EE
:101510002FC037F03734373236323532343234C0B8
:101520002CF035C02DF036C02EF037C02FF03A2801
:10153000D8A43A2A3A28D8B403D03A50D8A40DD027
:10154000000E2C6E000E2D6E000E2E6E000E2F6EF5
:101550003A50D8A402D0000E386E3AA002D02E8E97
:1015600001D02E9ED8903A302F6E38BE2F8E2CC0D0
:101570002CF02DC02DF02EC02EF02FC02FF0120019
:101580000D6E0D50D8A408AE1AD005C009F006C0E3
:101590000AF007C00BF008C00CF0091E0A1E0B1E53
:1015A0000C1E092A000E0A220B220C2209C00FF081
:1015B0000AC010F00BC011F00CC012F008D005C02A
:1015C0000FF006C010F007C011F008C012F005506F
:1015D000061007100810D8A409D0000E056E000EE2
:1015E000066E000E076E000E086E1200960E0E6E4E
:1015F00006D00E2AD8901232113210320F32000E5D
:101600000F14096E000E10140A6E000E11140B6EEA
:10161000FE0E12140C6E09500A100B100C10D8B4E8
:101620000DD0E7D70E2A010E0F26000E1022112230
:101630001222D8901232113210320F32000E0F14D3
:10164000096E000E10140A6E000E11140B6EFF0EC0
:1016500012140C6E09500A100B100C10D8B407D0DD
:10166000E1D70E06D8900F3610361136123611BE5D
:1016700003D0020E0E60F5D70EA0119ED8900E3248
:101680000EC009F00A6A0B6A0C6A09C00CF00B6AFA
:101690000A6A096A09500F120A5010120B501112EF
:1016A0000C5012120D50D8A408AE01D0128E0FC0EB
:1016B00005F010C006F011C007F012C008F01200CB
:1016C00020EE9EF0130EDE6AE806FDE263D0000E07
:1016D000E9EC0BF04CEC0EF01200320EE9EC0BF0E2
:1016E000F9D79E0E1C6E000E1D6E010E1E6E0F0EA3
:1016F0001F6E05EC0EF09E0E056E000E066E080EB7
:10170000076EDDEC0DF012009E0E1C6E000E1D6EBD
:101710000A0E1E6E0F0E1F6E05EC0EF09E0E056E6D
:10172000000E066E070E076EDDEC0DF0120020EEC7
:1017300001F04550D9264650DA22DF50476E475017
:10174000640DF3CF48F0F4CF49F020EE02F045509D
:10175000D9264650DA22DF504A6E4A500A0DF3501D
:101760004826F450492220EE03F04550D926465031
:10177000DA22DF504B6E4B504826000E4922300EC5
:1017800048240001B26FEB0E4920B36FB251E9EC6F
:101790000BF0A0D745C0D9FF46C0DAFFDF50476E37
:1017A000486A4850000AD8A412004750460AD8B4E4
:1017B000BED7270AD8B495D7020AD8B4A5D7070A46
:1017C000D8B41200170AD8B488D7040AD8A41200D3
:1017D0007ED7446EA60E176E9B0E186E440E196EC1
:1017E0003B0E1A6E4450056E066A076A086A010EBF
:1017F000C0EC0AF005C013F006C014F007C015F0E5
:1018000008C016F091EC07F013C02CF014C02DF0B6
:1018100015C02EF016C02FF09A0E306E990E316E54
:10182000190E326E3F0E336E3AEC09F02CC03CF0CC
:101830002DC03DF02EC03EF02FC03FF0000E176EC1
:10184000000E186E800E196E400E1A6E3CC013F01A
:101850003DC014F03EC015F03FC016F091EC07F00B
:1018600013C040F014C041F015C042F016C043F060
:10187000000E176E000E186EFA0E196E420E1A6EDA
:1018800040C013F041C014F042C015F043C016F040
:1018900091EC07F013C02CF014C02DF015C02EF001
:1018A00016C02FF0C6EC0CF02CC054F02DC055F033
:1018B000120010C0D9FF11C0DAFFDECFF6FFDDCF76
:1018C000F7FF000EF86E0800F550250AD8A442D0A4
:1018D00010C0D9FF11C0DAFFDE2A000EDD22000E93
:1018E0004F6E000E4E6E4EC052F04FC053F0506817
:1018F000516810C0D9FF11C0DAFFDECFF6FFDDCF8F
:10190000F7FF000EF86E0800F550250AD8A416D08F
:1019100010C0D9FF11C0DAFFDE2A000EDD22000E52
:10192000066E250E056E0EC007F00FC008F023EC02
:101930000DF0000E0F6E010E0E6E120010C0D9FFDA
:1019400011C0DAFFDE2A000EDD22000E0F6E000E3F
:101950000E6E120010C0D9FF11C0DAFFDECFF6FF05
:10196000DDCFF7FF000EF86E0800F550056E066A31
:101970000EC007F00FC008F023EC0DF010C0D9FF27
:1019800011C0DAFFDE2A000EDD22D3D72E342F3429
:10199000356E3550D8A409D0000E2C6E000E2D6E79
:1019A000000E2E6E000E2F6E12002CC030F02DC0D7
:1019B00031F02EC032F02FC033F0200E05D0D89079
:1019C0003332323231323032E82EF9D73050346E81
:1019D0002E8EFF0E2C16FF0E2D16FF0E2E16000E4D
:1019E0002F16960E355E35AE0DD03550800A970F06
:1019F000D8A0D2D7D8902F322E322D322C32353E6D
:101A0000F9D70DD01F0E356407D0C6D7D8902C3625
:101A10002D362E362F3635063550D8A4F7D734500C
:101A2000D8B408D02F1E2E1E2D1E2C6C000E2D2279
:101A30002E222F222CC02CF02DC02DF02EC02EF0E7
:101A40002FC02FF0120007500810D8B404D0075050
:101A50000810D8A404D00550A1EC0EF0120020EE1E
:101A600004F00750D9260850DA22DE50DE10D8B430
:101A700016D020EE04F00750D9260850DA2210EED6
:101A800002F00750E1260850E222DE50E65CE65004
:101A9000800A0D6EDE50800A0D58D8B0120020EE7C
:101AA00002F00750D9260850DA22DECF09F0DDCF48
:101AB0000AF007C0D9FF08C0DAFFDECF0BF0DDCF98
:101AC0000CF009500B24D96E0A500C20DA6E05C0B8
:101AD000DFFF20EE02F00750D9260850DA22DE2A76
:101AE000000EDD22120096EC0EF07AEC0EF08AEC7D
:101AF0000EF09CEC0EF09598480EAE6E000E836EC4
:101B00000F010951CF0B2009096F070E0A6FCA8414
:101B10005704D8A408D0000E576E940E456E000EE0
:101B2000466E60EC0BF083AA0DD05A04D8A40AD0FC
:101B30001A0E056E0F0E066E060E076EDDEC0DF02A
:101B4000000E5A6E83BAE4D75A50D8A4E1D7120EC9
:101B5000056E0F0E066E070E076EDDEC0DF0010E22
:101B60005A6ED6D716C01AF017C01BF0000E4D6E75
:101B7000000E4C6E12D014C00EF015C00FF01A0EED
:101B8000106E000E116E18C012F019C013F059EC4F
:101B90000CF00E504C260F504D221AC0F6FF1BC001
:101BA000F7FF000EF86E0800F5500009D8A4E3D73F
:101BB0004CC014F04DC015F01200000E0A6E20D07B
:101BC0000A500524086E000E0620096E08C0F6FFB4
:101BD00009C0F7FF000EF86E0E0EF76403D0080080
:101BE000F55005D0F6CFE1FFF7CFE2FFE750AE6E3C
:101BF0002F0E086EC00EE82EFED7082EFCD70A2A3C
:101C000007500A5CD8B01200DBD7200E226E000EFF
:101C1000236E1CC024F01DC025F0000E276E000EA0
:101C2000266E000E296E000E286E240E146E000E15
:101C3000156E1EC016F01FC017F0220E186E000E93
:101C4000196EB2EC0DF026501C24D96E27501D20C1
:101C5000DA6E000EDF6E12003E0EF66E1D0EF76E8F
:101C6000000EF86E0900F5CF58F00900F5CF59F0D5
:101C70000900F5CF5AF000EE60F03E0EEE6AE8067D
:101C8000FDE100EE4CF00C0EEE6AE806FDE15B9023
:101C90005B92000173EF0DF066EC0EF054C007F09C
:101CA000030E0716073A0F0109510718CF0B071843
:101CB000096F54C007F055C008F0D89008320732B9
:101CC000D8900832073207500A6F12000F010951ED
:101CD000CF0B2009096F700E0A6FCA84040E066EBE
:101CE0000C0E056E340EE82EFED7052EFCD7062E00
:101CF000FAD712009398939E0F010951F00B0C092B
:101D0000096F3F0E5117020ECA6E7C0ECB6E000E8D
:101D1000CC6E1200948E949C220EAD6E900EAC6E22
:101D20007E964D0EB06E9E9A9D8A12000F014869F4
:101D30001F0E496F958A1200F28EF28C1200C201BA
:011D400001A1
:021D420012008D
:020000040001F9
:08FFF800AAF7FDFFF3F9FFFB7E
:00000001FF
