:020000040000FA
:0400000025EF00F0F8
:100008005782D9CF01F0DACF02F09EAA14D0AFCF31
:1000180003F0630E0318D8A405D0010E546E000E29
:10002800536E09D03F0E5324D96EDA6A000EDA22D5
:1000380003C0DFFF532A02C0DAFF01C0D9FF57927D
:06004800110004EF09F0B5
:100F00000056454C4F4349444144004749524F2005
:100F10002B2B0053544F50202B2B004749524F206E
:100F20002D2D00000FC0D9FF10C0DAFFDECFF6FF75
:100F3000DDCFF7FF000EF86E0800F550250AD8A4A3
:100F400042D00FC0D9FF10C0DAFFDE2A000EDD222A
:100F5000000E4C6E000E4B6E4BC04FF04CC050F06C
:100F60004D684E680FC0D9FF10C0DAFFDECFF6FF24
:100F7000DDCFF7FF000EF86E0800F550250AD8A463
:100F800016D00FC0D9FF10C0DAFFDE2A000EDD2216
:100F9000000E056E250E046E0DC006F00EC007F0A3
:100FA00062EC08F0000E0E6E010E0D6E12000FC006
:100FB000D9FF10C0DAFFDE2A000EDD22000E0E6E11
:100FC000000E0D6E12000FC0D9FF10C0DAFFDECF89
:100FD000F6FFDDCFF7FF000EF86E0800F550046E47
:100FE000056A0DC006F00EC007F062EC08F00FC0F5
:100FF000D9FF10C0DAFFDE2A000EDD22D3D720EEA3
:101000002BF0130EDE6AE806FDE241D083A802D081
:10101000010E01D0000EFF0A296E293A83502918CB
:10102000EF0B2918836E2B0E1B6E000E1C6E0B0E21
:101030001D6E0F0E1E6EDDEC08F02B0E046E000E02
:10104000056E070E066E21EC09F012002B0E1B6ECA
:10105000000E1C6E1B0E1D6E0F0E1E6EDDEC08F0DA
:10106000ECD72B0E1B6E000E1C6E130E1D6E0F0E9A
:101070001E6EDDEC08F0E1D72B0E1B6E000E1C6E11
:10108000010E1D6E0F0E1E6EDDEC08F0D6D73F5020
:10109000296E2A6A2A50000AD8A412002950200A70
:1010A000D8B4DFD7660AD8B4E7D7270AD8B4120075
:1010B000050AD8B41200170AD8B4C8D7040AD8A4AD
:1010C0001200A4D706500710D8B404D00650071059
:1010D000D8A404D0045060EC09F0120020EE04F013
:1010E0000650D9260750DA22DE50DE10D8B416D0CA
:1010F00020EE04F00650D9260750DA2210EE02F056
:101100000650E1260750E222DE50E65CE650800AF7
:101110000C6EDE50800A0C58D8B0120020EE02F09F
:101120000650D9260750DA22DECF08F0DDCF09F0CD
:1011300006C0D9FF07C0DAFFDECF0AF0DDCF0BF023
:1011400008500A24D96E09500B20DA6E04C0DFFF64
:1011500020EE02F00650D9260750DA22DE2A000ED1
:10116000DD22120015C019F016C01AF0000E4A6EEA
:10117000000E496E12D013C00DF014C00EF0190EFF
:101180000F6E000E106E17C011F018C012F092EC26
:1011900007F00D5049260E504A2219C0F6FF1AC01A
:1011A000F7FF000EF86E0800F5500009D8A4E3D749
:1011B00049C013F04AC014F012001F0E216E000E39
:1011C000226E1BC023F01CC024F0000E266E000E01
:1011D000256E000E286E000E276E230E136E000E75
:1011E000146E1DC015F01EC016F0210E176E000EF5
:1011F000186EB2EC08F025501B24D96E26501C2026
:10120000DA6E000EDF6E1200BE0EF66E120EF76E74
:10121000000EF86E0900F5CF55F00900F5CF56F035
:1012200000EE60F0340EEE6AE806FDE100EE3FF0FD
:10123000160EEE6AE806FDE15790579200013AEF6C
:1012400009F0000E086E11D008500424D96E000E6B
:101250000520DA6EDF50AE6E9C0E076ED70EE82EBC
:10126000FED7072EFCD700F0082A0650085CD8B03D
:101270001200EAD757EC09F04BEC09F05CEC09F0EE
:101280009598480EAE6E5404D8A4FDD7000E546E47
:10129000FFEC07F0F8D7948E949C220EAD6E900E62
:1012A000AC6E7E964D0EB06E9E9A9D8A12000F0116
:1012B00048691F0E496F1200F28EF28C1200C201B3
:0212C00012001A
:020000040001F9
:08FFF800AAF7FDFFF3F9FFFB7E
:00000001FF
