:020000040000FA
:040000001EEF00F0FF
:1000080005829EA015D09E90042A1E0E0418D8A41E
:100018000FD0000E046E81A802D0010E01D0000E90
:10002800FF0A016E013A81500118EF0B0118816E29
:100038000592110061EF00F09398939E0F0109510A
:10004800F00B0C09096F3F0E5117020ECA6E7C0E99
:10005800CB6E700E0A6F0951CF0B2009096FCA8445
:10006800040E036E0C0E026E340EE82EFED7022E1E
:10007800FCD7032EFAD74B0E0F010A6FCF0E0917C4
:10008800000ECC6E1200300ECD6E150ECF6EA00E87
:10009800CE6EF28EF28C9E909D80CD8012005AEC2E
:1000A80000F047EC00F020EC00F0FFD70F014869A2
:1000B8001F0E496F9398939E1200046A059005924B
:0600C800000153EF00F0FF
:020000040001F9
:08FFF800AAF7FDFFF3F9FFFB7E
:00000001FF
