:020000040000FA
:0400000046EF00F0D7
:100008005982D9CF01F0DACF02F0F3CF03F0F4CF61
:1000180004F0F2A20BD0F2925850050DF3CFDFF0A6
:10002800000E586E010E0001E06F22D09EAA18D073
:10003800AFCF05F0500E0518D8A406D0010E000168
:10004800DE6F000E576E14D005C0AEFFC40E5724E5
:10005800D96EDA6A000EDA2205C0DFFF572A08D007
:1000680098A406D098940F0124696A0E236F582A21
:1000780004C0F4FF03C0F3FF02C0DAFF01C0D9FFD8
:0800880059921100FBEF18F082
:100F00000025332E326620636D00494E46004E4167
:100F10004E00696E66006E616E006C660000000E29
:100F200000017B6F000E7A6F43C08CF044C08DF0DF
:100F300045C08EF046C08FF08FAF16D0000E7B6F8D
:100F4000010E7A6F8CC006F08DC007F08EC008F0DD
:100F50008FC009F01DEC1AF006C08CF007C08DF0B0
:100F600008C08EF009C08FF0000E0001936F000ED4
:100F7000926FDCC07FF0DDC080F07A517B11D8A485
:100F800002D055A413D07A517B11D8A404D0000EFE
:100F9000656F2B0E03D0000E656F2D0E646F64C05D
:100FA00000F1924B932B7F07D8A080078CC006F0EE
:100FB0008DC007F08EC008F08FC009F0ABEC15F0C3
:100FC00006040710D8A44CD0BF0E486EFF0E496E21
:100FD00047504A6E4B6A48504A2649504B224B5064
:100FE00006E11A0E4A5CD8B002D0010E01D0000E04
:100FF0000001666F676B66516711D8B40DD0000EA3
:101000009225066E010E9321076E0A0E086E0F0ED2
:10101000096EA8EC18F00CD0000E9225066E010E99
:101020009321076E120E086E0F0E096EA8EC18F0D1
:101030000001FD0E7F27FF0E802341C016F042C045
:1010400017F0000E186E010E196E7FC01AF080C0E6
:101050001BF071EC17F016C041F017C042F01200FF
:101060008CC006F08DC007F08EC008F08FC009F06C
:10107000ABEC15F006500710D8A435D0BF0E486E63
:10108000FF0E496E47504A6E4B6A48504A264950F7
:101090004B224B5006E11A0E4A5CD8B002D0010E2A
:1010A00001D0000E0001686F696B68516911D8B4F6
:1010B0000DD0000E9225066E010E9321076E0E0EC6
:1010C000086E0F0E096EA8EC18F0B2D7000E92252C
:1010D000066E010E9321076E160E086E0F0E096E36
:1010E000A8EC18F0A5D7000E0001946F000E956FC4
:1010F000800E966F3F0E976F000E916F000E906FEF
:101100008CC006F08DC007F08EC008F08FC009F0CB
:10111000000E0A6E000E0B6E000E0C6E000E0D6EB1
:10112000BCEC17F0D8A01ED076D094C006F095C0C5
:1011300007F096C008F097C009F0000E0A6E000E86
:101140000B6E200E0C6E410E0D6EABEC0EF006C059
:1011500094F007C095F008C096F009C097F0000120
:10116000904B912B8CC01FF08DC020F08EC021F0D1
:101170008FC022F0000E0A6E000E0B6E200E0C6E59
:10118000410E0D6E94C006F095C007F096C008F0B1
:1011900097C009F0ABEC0EF006C023F007C024F0B6
:1011A00008C025F009C026F043EC15F0D8A01FD0E8
:1011B000BCD794C014F095C015F096C016F097C037
:1011C00017F0000E186E000E196E200E1A6E410EEA
:1011D0001B6EDAEC11F014C094F015C095F016C037
:1011E00096F017C097F000019007D8A091078CC027
:1011F0001FF08DC020F08EC021F08FC022F094C06F
:1012000023F095C024F096C025F097C026F043EC5B
:1012100015F0D8A0CED747C00CF00D6A49EC19F0F4
:101220000C500001816F81C07EF0670E8119D8A437
:1012300019D053505410D8A404D0000E546E010E8F
:10124000536E54BE05D0545008E15304D8B005D0B5
:10125000000E7D6F060E7C6F08D053C07CF054C02A
:101260007DF003D054AEF9D7F3D7670E8119D8A417
:1012700022D091AF06D0FC0E905DFF0E9159D8A000
:1012800018D0FF0E486EFF0E496E7CC04AF07DC03C
:101290004BF048504A2649504B2290514A5C4B50E3
:1012A000800A4C6E9151800A4C58D8A002D0660E2C
:1012B00001D0650E7E6F7CC074F07DC075F0670E46
:1012C0008119D8A405D0660E7E19D8B491AF02D08A
:1012D000744B752B660E7E19D8A416D091AF0CD026
:1012E000000E946F000E956F800E966F3F0E976FF5
:1012F000000E916F000E906F670E8119D8B404D064
:101300009051742791517523000E8B6F000E8A6FD8
:101310008CC082F08DC083F08EC084F08FC085F0C9
:1013200094C060F095C061F096C062F097C063F021
:101330007BD082C014F083C015F084C016F085C045
:1013400017F094C018F095C019F096C01AF097C025
:101350001BF0DAEC11F014C02DF015C02EF016C001
:101360002FF017C030F01EEC13F02DC086F02EC009
:1013700087F02FC088F030C089F086C006F087C0A3
:1013800007F088C008F089C009F011EC16F006C01B
:1013900078F007C079F082C01FF083C020F084C0CD
:1013A00021F085C022F094C00AF095C00BF096C0E1
:1013B0000CF097C00DF086C006F087C007F088C01B
:1013C00008F089C009F0ABEC0EF006C023F007C0AE
:1013D00024F008C025F009C026F06FEC19F01FC0FA
:1013E00082F020C083F021C084F022C085F094C038
:1013F00014F095C015F096C016F097C017F0000EC7
:10140000186E000E196E200E1A6E410E1B6EDAEC6D
:1014100011F014C094F015C095F016C096F017C0E6
:1014200097F000018A4B8B2B74518A5D8B51800A97
:10143000486E7551800A4858D8A07BD794C006F0F2
:1014400095C007F096C008F097C009F0000E0A6E2C
:10145000000E0B6EA00E0C6E400E0D6EABEC0EF07F
:1014600006C086F007C087F008C088F009C089F080
:1014700082C01FF083C020F084C021F085C022F01C
:1014800086C023F087C024F088C025F089C026F0EC
:1014900043EC15F0D8B003D0000E000118D082C084
:1014A00006F083C007F084C008F085C009F086C04C
:1014B0000AF087C00BF088C00CF089C00DF0BCECBE
:1014C00017F0D8A00BD0000178B108D0000E866FBD
:1014D000000E876F000E886F000E896F8CC006F0BB
:1014E0008DC007F08EC008F08FC009F086C00AF0EA
:1014F00087C00BF088C00CF089C00DF054EC10F0E0
:1015000006C082F007C083F008C084F009C085F0EF
:1015100060C094F061C095F062C096F063C097F02F
:10152000650E00017E19D8B405D090C076F091C048
:1015300077F004D0000E776F000E766F000E736F99
:10154000000E726F000E716F000E706F000E8B6FC9
:10155000000E8A6FC7D082C014F083C015F084C01B
:1015600016F085C017F094C018F095C019F096C019
:101570001AF097C01BF0DAEC11F014C02DF015C072
:101580002EF016C02FF017C030F01EEC13F02DC057
:1015900086F02EC087F02FC088F030C089F086C05A
:1015A00006F087C007F088C008F089C009F011EC88
:1015B00016F006C078F007C079F055B80DD00001DC
:1015C00078517911D8A408D0670E8119D8B477AFB3
:1015D00003D0704B712B3AD0000172517311D8B403
:1015E00077AF22D0000E9225D96E010E9321DA6ECC
:1015F0002E0EDF6E924B932B7F07D8A08007000E34
:10160000736F010E726F10D0000E9225D96E010E0D
:101610009321DA6E300EDF6E924B932B7F07D8A0AA
:1016200080077007D8A0710770517111D8A4ECD74A
:10163000000E9225D96E010E9321DA6E7851300F8B
:10164000DF6E924B932B7F07D8A0800782C01FF0DC
:1016500083C020F084C021F085C022F094C00AF03D
:1016600095C00BF096C00CF097C00DF086C006F048
:1016700087C007F088C008F089C009F0ABEC0EF015
:1016800006C023F007C024F008C025F009C026F0EA
:101690006FEC19F01FC082F020C083F021C084F0ED
:1016A00022C085F094C014F095C015F096C016F0D5
:1016B00097C017F0000E186E000E196E200E1A6EED
:1016C000410E1B6EDAEC11F014C094F015C095F0C9
:1016D00016C096F017C097F000017607D8A07707DC
:1016E0008A4B8B2B74518A5D8B51800A486E7551E1
:1016F000800A4858D8B008D093BF2DD7935104E141
:101700004B0E925DD8A027D772517311D8B455A84B
:101710000AD0000E9225D96E010E9321DA6E2E0E9C
:10172000DF6E924B932B000E9225D96E010E932102
:10173000DA6E000EDF6E650E7E19D8A47ED4000E20
:101740008B6F4F0E8A6F000E8A25D96E010E8B218A
:10175000DA6E000EDF6E000E7B6F000E7A6F91AFB7
:1017600008D0000E7B6F010E7A6F906D911FD8B07C
:10177000912B000E7D6F020E7C6F2BD08A07D8A0B4
:101780008B07000E8A25D96E010E8B21DA6E90C070
:1017900006F091C007F0000E096E0A0E086E43ECC9
:1017A00018F00650300FDF6E90C006F091C007F0C1
:1017B000000E096E0A0E086E01EC18F006C090F0DB
:1017C00007C091F000017C07D8A07D077F07D8A053
:1017D000800790519111D8A4D1D77DBF05D07D51FC
:1017E000CDE17C05D8B0CAD78A07D8A08B077A513B
:1017F0007B11D8A404D0000E6B6F2B0E03D0000E0B
:101800006B6F2D0E6A6F000E8A25D96E010E8B212B
:10181000DA6E6AC0DFFF7F07D8A080078A07D8A0EA
:101820008B07BF0E486EFF0E496E47504A6E4B6ADB
:1018300048504A2649504B224B5006E11A0E4A5C4A
:10184000D8B002D0010E01D0000E6E6F6F6B6E51DA
:101850006F11D8A404D0000E6D6F650E03D0000E7A
:101860006D6F450E6C6F000E8A25D96E010E8B21AF
:10187000DA6E6CC0DFFF7F07D8A08007000E9225CC
:10188000066E010E9321076E000E8A25086E010E6A
:101890008B21096EA8EC18F01DEF08F04FC0D9FF9E
:1018A00050C0DAFFDECFF6FFDDCFF7FF000EF86E97
:1018B0000800F550250AD8A432D24FC0D9FF50C035
:1018C000DAFFDE2A000EDD22000E0001DD6F000EC1
:1018D000DC6FDCC055F0DDC056F0536854684FC073
:1018E000D9FF50C0DAFFDECFF6FFDDCFF7FF000EE5
:1018F000F86E0800F5502A0AD8A423D04FC0D9FFAB
:1019000050C0DAFFDE2A000EDD2251C0D9FF52C0DE
:10191000DAFFDFCF98F0020EDE26DFCF99F0000E5F
:10192000DD2298C0D9FF99C0DAFFDECFDCF0DDCF31
:10193000DDF0DDAF42D05580DC6DDD1FD8B0DD2B92
:101940003CD04FC0D9FF50C0DAFFDECF0DF0DDCF65
:101950000EF0F9EC13F00DC0DCF00EC0DDF007D096
:101960004FC0D9FF50C0DAFFDE2A000EDD22D00EB4
:101970000001986FFF0E996F4FC0D9FF50C0DAFF7A
:10198000DECFF6FFDDCFF7FF000EF86E0800F55052
:101990009A6F9B6B98519A2799519B239B5106E113
:1019A0000A0E9A5DD8B002D0010E01D0000E9C6FD5
:1019B0009D6B9C519D11D8A4D3D74FC0D9FF50C067
:1019C000DAFFDECFF6FFDDCFF7FF000EF86E08007E
:1019D000F5502E0AD8A472D0000E546E000E536E2D
:1019E0004FC0D9FF50C0DAFFDE2A000EDD224FC003
:1019F000D9FF50C0DAFFDECFF6FFDDCFF7FF000ED4
:101A0000F86E0800F5502A0AD8A41CD04FC0D9FFA0
:101A100050C0DAFFDE2A000EDD2251C0D9FF52C0CD
:101A2000DAFFDFCF98F0020EDE26DFCF99F0000E4E
:101A3000DD2298C0D9FF99C0DAFFDECF53F0DDCFA9
:101A400054F03CD04FC0D9FF50C0DAFFDECF0DF0CC
:101A5000DDCF0EF0F9EC13F00DC053F00EC054F0D2
:101A600007D04FC0D9FF50C0DAFFDE2A000EDD22BA
:101A7000D00E0001986FFF0E996F4FC0D9FF50C074
:101A8000DAFFDECFF6FFDDCFF7FF000EF86E0800BD
:101A9000F5509A6F9B6B98519A2799519B239B51B4
:101AA00006E10A0E9A5DD8B002D0010E01D0000EF8
:101AB0009E6F9F6B9E519F11D8A4D3D74FC0D9FF63
:101AC00050C0DAFFDECFF6FFDDCFF7FF000EF86E75
:101AD0000800F5500C6E0D6A49EC19F00C5000012D
:101AE000A66FA651D8B439D04FC0D9FF50C0DAFF85
:101AF000DECF98F0DDCF99F0010E9827000E9923E4
:101B000098C0F6FF99C0F7FF000EF86E0800F55078
:101B10000C6E0D6A49EC19F00C500001A76FA7512B
:101B2000D8B41BD04FC0D9FF50C0DAFFDECF98F039
:101B3000DDCF99F0020E9827000E992398C0F6FF8A
:101B400099C0F7FF000EF86E0800F5500C6E0D6A94
:101B500049EC19F00C500001A86F660EA619D8A424
:101B600041D04FC0D9FF50C0DAFFDECFF6FFDDCF46
:101B7000F7FF000EF86E0800F5CFA9F04FC0D9FFAF
:101B800050C0DAFFDE2A000EDD2251C0D9FF52C05C
:101B9000DAFFDFCF98F0040EDE26DFCF99F0000EDB
:101BA000DD2298C0D9FF99C0DAFFDECFA2F0DECFE8
:101BB000A3F0DECFA4F0DECFA5F04DC041F04EC0C3
:101BC00042F0A2C043F0A3C044F0A4C045F0A5C0B9
:101BD00046F0A9C047F08FEC07F041C04DF042C07D
:101BE0004EF01200A60E066E000E076E1A0E086E5C
:101BF0000F0E096E000E0B6E020E0A6ECAEC16F086
:101C000006500710D8A45AD04FC0D9FF50C0DAFFF1
:101C1000DECF98F0DDCF99F0010E00019827000E7D
:101C2000992398C0F6FF99C0F7FF000EF86E0800E0
:101C3000F5CFA9F0BF0E986FFF0E996F4FC0D9FF77
:101C400050C0DAFFDECFF6FFDDCFF7FF000EF86EF3
:101C50000800F5509A6F9B6B98519A2799519B23D6
:101C60009B5106E11A0E9A5DD8B002D0010E01D048
:101C7000000EA06FA16BA051A11151C0D9FF52C09D
:101C8000DAFFDFCF98F0040EDE26DFCF99F0000EEA
:101C9000DD2298C0D9FF99C0DAFFDECFA2F0DECFF7
:101CA000A3F0DECFA4F0DECFA5F0020E4FC0D9FF27
:101CB00050C0DAFFDE26000EDD227FD74FC0D9FFED
:101CC00050C0DAFFDECFF6FFDDCFF7FF000EF86E73
:101CD0000800F550250AD8A416D04FC0D9FF50C02F
:101CE000DAFFDE2A000EDD22000E076E250E066EDC
:101CF0004DC008F04EC009F021EC17F0000E4E6EFA
:101D0000010E4D6E12004FC0D9FF50C0DAFFDE2A1F
:101D1000000EDD22000E4E6E000E4D6E12004FC002
:101D2000D9FF50C0DAFFDECFF6FFDDCFF7FF000EA0
:101D3000F86E0800F550066E076A4DC008F04EC0F8
:101D400009F021EC17F04FC0D9FF50C0DAFFDE2AAE
:101D5000000EDD22D3D70950800B126E09500924E2
:101D6000186E08BE18801850D8B40DD01828D8A402
:101D700008D0000E066E000E076E000E086E000EF4
:101D8000096E088E08D0000E066E000E076E000E5B
:101D9000086E000E096E0D50800B121A0D500D24A6
:101DA000136E0CBE13801350D8B40DD01328D8A4D2
:101DB00008D0000E0A6E000E0B6E000E0C6E000EA8
:101DC0000D6E0C8E08D0000E0A6E000E0B6E000E0B
:101DD0000C6E000E0D6E1350D8B403D01850D8A45A
:101DE00009D0000E066E000E076E000E086E000E83
:101DF000096E12000C500602F3CF1DF0F4CF1EF056
:101E00001D50146E156A166A176A1E50196E1A6AEA
:101E10001B6A1C6A0B500702F3CF1DF0F4CF1EF0B3
:101E20001D501426000E1522162217221E501926A8
:101E3000000E1A221B221C220A500802F3CF1DF0AA
:101E4000F4CF1EF01D501426000E15221622172264
:101E50001E501926000E1A221B221C2216C017F033
:101E600015C016F014C015F0146A0A500702F3CF1B
:101E70001DF0F4CF1EF01D5014261E501522000E2A
:101E80001622000E17220B500602F3CF1DF0F4CFDE
:101E90001EF01D5014261E501522000E1622000E94
:101EA000172216C017F015C016F014C015F0146AEA
:101EB0000A500602F3CF1DF0F4CF1EF01D50142679
:101EC0001E501522000E1622000E17220C5007027B
:101ED000F3CF1DF0F4CF1EF01D5019261E501A220C
:101EE000000E1B22000E1C220B500802F3CF1DF027
:101EF000F4CF1EF01D5019261E501A22000E1B2270
:101F0000000E1C220C500802F3CF1DF0F4CF1EF07F
:101F10001D500E6E1E500F6E106A116A10C011F027
:101F20000FC010F00EC00FF00E6A0E5019260F50A1
:101F30001A2210501B2211501C2214C00EF015C082
:101F40000FF016C010F017C011F0190E05D0D89080
:101F5000113210320F320E32E82EF9D70E501926F8
:101F60000F501A2210501B2211501C2216C017F0BD
:101F700015C016F014C015F0146A135018C00EF0F6
:101F80000F6A0E26000E0F22820E0E241D6EFF0E0B
:101F90000F201E6E0FD0D89019361A361B361C36FD
:101FA00017BE1980D89014361536163617361D060A
:101FB000D8A01E061BAEEFD7000E136E17AE17D0BB
:101FC000FF0E14140E6EFF0E15140F6EFF0E161476
:101FD000106E7F0E1714116E0E500F10101011108E
:101FE000D8B403D0010E136E02D019B0FBD7135032
:101FF000D8B41FD0010E1926000E1A221B221C2253
:102000001CA017D019C00EF01AC00FF01BC010F0A2
:102010001CC011F01134113210320F320E320EC0CA
:1020200019F00FC01AF010C01BF011C01CF01D4AAF
:102030001E2A1EBE0DD01E5003E11D28D8A008D0B8
:10204000000E196E000E1A6E800E1B6E7F0E20D0D1
:102050001EBE05D01E500EE11D04D8B00BD0000EE0
:10206000196E000E1A6E000E1B6E000E1C6E000E16
:10207000126E0FD01DC018F0FF0E1916FF0E1A16A3
:102080007F0E1B16000E1C1618B01B8ED890183031
:102090001C6E12501C1219C006F01AC007F01BC0AB
:1020A00008F01CC009F012000950800B126E095094
:1020B0000924146E08BE14801450D8B40DD014280E
:1020C000D8A408D0000E066E000E076E000E086E33
:1020D000000E096E088E06D0000E066E000E076E0A
:1020E000000E086E000E096E0D50800B136E12501C
:1020F0001318D8A4128C0D500D24136E0CBE13802F
:102100001350D8B40DD01328D8A408D0000E0A6EEE
:10211000000E0B6E000E0C6E000E0D6E0C8E06D0B7
:10212000000E0A6E000E0B6E000E0C6E000E0D6E91
:102130001450135CD8B022D012AC02D0800E121A08
:1021400014C015F013C014F015C013F006C015F03C
:102150000AC006F015C00AF007C015F00BC007F062
:1021600015C00BF008C015F00CC008F015C00CF03D
:1021700009C015F00DC009F015C00DF0000E156E68
:10218000145013C00EF00F6A0E5E000E0F5A0FBEF1
:102190002CD00F5004E11A0E0E5CD8A026D00650A9
:1021A000071008100910D8B402D0010E01D0000E9B
:1021B000156E000E066E000E076E000E086E000E05
:1021C000096E13C014F015D015A005D0D8901530A5
:1021D0000109156E02D0D890153206B0158E09345B
:1021E0000932083207320632142A1350145CD8A080
:1021F000EBD712BC28D01450D8A409D0000E066E1C
:10220000000E076E000E086E000E096E12000A50D6
:1022100006260B5007220C5008220D50092209A057
:1022200071D015A005D0D89015300109156E02D0D7
:10223000D890153206B0158E0934093208320732AB
:102240000632142A5FD00A50065C0B5007580C5017
:1022500008580950800A0E6E0D50800A0E58D8B0EA
:1022600025D006500A5C0E6E07500B580F6E0850B2
:102270000C58106E09500D58116EFF0E0E24066E8C
:10228000FF0E0F20076EFF0E1020086EFF0E1120AC
:10229000096E800E121A156C1550D8A40FD0010EBD
:1022A0000626000E07220822092208D00A50065EE0
:1022B0000B50075A0C50085A0D50095A0650071077
:1022C00008100910D8A41CD01550D8A419D0000E9D
:1022D000066E000E076E000E086E000E096E1200EC
:1022E000D890063607360836093615BE068015A082
:1022F00002D0D88001D0D89015361450D8A4140636
:1023000008AEEED7000E136E15AE0BD015C00EF052
:102310007F0E0E16D8B403D0010E136E02D006B095
:10232000FBD71350D8B420D0010E0626000E07228A
:102330000822092209A018D006C00EF007C00FF02D
:1023400008C010F009C011F01134113210320F32F0
:102350000E320EC006F00FC007F010C008F011C01A
:1023600009F01428D8A4142A1428D8B403D014507F
:10237000D8A40DD0000E066E000E076E000E086E7B
:10238000000E096E1450D8A402D0000E126E14A0D4
:1023900002D0088E01D0089ED8901430096E12BE6B
:1023A000098E06C006F007C007F008C008F009C093
:1023B00009F012001750800B246E175017242B6E53
:1023C00016BE2B802B50D8B40DD02B28D8A408D003
:1023D000000E146E000E156E000E166E000E176EB7
:1023E000168E06D0000E146E000E156E000E166EC0
:1023F000000E176E1B50800B241A1B501B242C6ED2
:102400001ABE2C802C50D8B40DD02C28D8A408D0BB
:10241000000E186E000E196E000E1A6E000E1B6E66
:102420001A8E06D0000E186E000E196E000E1A6E6F
:10243000000E1B6E185019101A101B10D8A417D0BC
:10244000000E146E000E156E000E166E000E176E46
:10245000800E16127F0E17122450171214C014F09B
:1024600015C015F016C016F017C017F012002B504B
:10247000D8A409D0000E146E000E156E000E166E54
:10248000000E176E12002C502BC01CF01D6A1C5E33
:10249000000E1D5A7F0E1C24256E000E1D20266E78
:1024A00014C020F015C021F016C022F017C023F090
:1024B000000E146E000E156E000E166E000E176ED6
:1024C000000E276E000E286E000E296E000E2A6E7A
:1024D000000E2C6E28D02C50D8B411D0D8902036B5
:1024E000213622362336D89014361536163617364E
:1024F0002ABE1480D8902736283629362A36185016
:10250000205C195021581A5022581B502358D8A02B
:1025100009D02A8C1850205E1950215A1A50225A7C
:102520001B50235A2C2A190E2C64D5D72050211069
:1025300022102310D8B411D027800FD0D890143691
:102540001536163617362ABE1480D8902736283608
:1025500029362A362506D8A0260616AEEFD7000E55
:102560002C6E2AAE17D0FF0E27141C6EFF0E2814F7
:102570001D6EFF0E29141E6E7F0E2A141F6E1C5036
:102580001D101E101F10D8B403D0010E2C6E02D0E7
:1025900014B0FBD72C50D8B41FD0010E1426000E57
:1025A00015221622172217A017D014C01CF015C030
:1025B0001DF016C01EF017C01FF01F341F321E3250
:1025C0001D321C321CC014F01DC015F01EC016F0C8
:1025D0001FC017F0254A262A26BE10D0265003E138
:1025E0002528D8A00BD0000E266E2568000E146E8C
:1025F000000E156E000E166E000E176E26BE05D06C
:10260000265011E12504D8B00ED0000E266E000E23
:10261000256E000E146E000E156E000E166E000E66
:10262000176E000E246E25C02BF02BA002D0168E44
:1026300001D0169ED8902B30176E0ED7CEC03DF02D
:10264000CFC03EF0D0C03FF0D1C040F02DC03DF033
:102650002EC03EF02FC03FF030C040F0810E316EF2
:10266000FF0E326E3DC033F03EC034F03FC035F057
:1026700040C036F0180E05D0D8903632353234329C
:102680003332E82EF9D7335031243B6E000E32201E
:102690003C6E3CBE0FD03C5004E1170E3B5CD8A012
:1026A00009D02DC02DF02EC02EF02FC02FF030C03D
:1026B00030F012003CBE5ED03BC031F0FF0E326EF7
:1026C000FF0E336E7F0E346E000E356E316601D014
:1026D00007D035343532343233323232312EF6D7F8
:1026E00032C037F033C038F034C039F035C03AF07A
:1026F00037503D14316E38503E14326E39503F140D
:10270000336E3A504014346E31503210331034105E
:10271000D8B4C7D73DC031F03EC032F03FC033F02F
:1027200040C034F0200E05D0D890343233323232EB
:102730003132E82EF9D73150321033103410D8B47A
:1027400008D037503D2638503E2239503F223A506B
:102750004022371C316E381C326E391C336E3A1CE5
:10276000346E31503D1632503E1633503F163450C1
:10277000401636D03DC031F03EC032F03FC033F09D
:1027800040C034F0200E05D0D8903432333232328B
:102790003132E82EF9D73150321033103410D8A42A
:1027A00008D0000E3D6E000E3E6E000E3F6E000E15
:1027B00016D0D8903D34316E3E34326E3F34336E95
:1027C0004034346E3150321033103410D8B408D045
:1027D000000E3D6E000E3E6E800E3F6EBF0E406ED0
:1027E0003DC02DF03EC02EF03FC02FF040C030F075
:1027F0001200000E1B6E000E1A6E000E146E000EFC
:10280000136E02D00D4A0E2A010E196E0DC0F6FF8E
:102810000EC0F7FF000EF86E0800F550200AD8B47D
:102820001AD0F70E0F6EFF0E106E0DC0F6FF0EC021
:10283000F7FF000EF86E0800F550116E126A0F5087
:10284000112610501222125004E1050E115CD8A07E
:1028500002D0000E196E19C015F0166A1550161028
:10286000D8B408D0CFD7000E146E010E136E0D4AE7
:102870000E2A32D00DC0F6FF0EC0F7FF000EF86E24
:102880000800F5500F6E106A1050000AD8A424D02A
:102890000F502B0AD8B4EBD7060AD8B4E4D71CD013
:1028A0001AC006F01BC007F0000E096E0A0E086E73
:1028B00049EC1AF00DC0F6FF0EC0F7FF000EF86EDF
:1028C0000800F550065E000E075A300E06241A6EF8
:1028D000000E07201B6ECBD7D00E0F6EFF0E106EB2
:1028E0000DC0F6FF0EC0F7FF000EF86E0800F550A1
:1028F000116E126A0F50112610501222125006E16A
:102900000A0E115CD8B002D0010E01D0000E176E75
:10291000186A17501810D8A4C3D713501410D8A48D
:102920000DD01AC00FF01BC010F00F1E101E0F4A62
:10293000102A0FC00DF010C00EF012001AC00DF0DA
:102940001BC00EF012000E6E0E50D8A409AE1AD0A5
:1029500006C00AF007C00BF008C00CF009C00DF06B
:102960000A1E0B1E0C1E0D1E0A2A000E0B220C2224
:102970000D220AC010F00BC011F00CC012F00DC0F7
:1029800013F008D006C010F007C011F008C012F014
:1029900009C013F00650071008100910D8A409D078
:1029A000000E066E000E076E000E086E000E096E19
:1029B0001200960E0F6E06D00F2AD89013321232E4
:1029C00011321032000E10140A6E000E11140B6E2C
:1029D000000E12140C6EFE0E13140D6E0A500B1026
:1029E0000C100D10D8B40DD0E7D70F2A010E102609
:1029F000000E112212221322D890133212321132F9
:102A00001032000E10140A6E000E11140B6E000E20
:102A100012140C6EFF0E13140D6E0A500B100C10D6
:102A20000D10D8B407D0E1D70F06D8901036113664
:102A30001236133612BE03D0020E0F60F5D70FA068
:102A4000129ED8900F320FC00AF00B6A0C6A0D6A02
:102A50000AC00DF00C6A0B6A0A6A0A5010120B5079
:102A600011120C5012120D5013120E50D8A409AEB0
:102A700001D0138E10C006F011C007F012C008F08C
:102A800013C009F01200000E1F14276E000E201450
:102A9000286E800E2114296E7F0E22142A6E275074
:102AA000281029102A10D8A408D0000E1F6E000E7E
:102AB000206E000E216E000E226E000E2314276E73
:102AC000000E2414286E800E2514296E7F0E261405
:102AD0002A6E2750281029102A10D8A408D0000EDA
:102AE000236E000E246E000E256E000E266E22AEA2
:102AF00009D01F6C201ED8B0202A211ED8B0212A50
:102B0000800E225626AE09D0236C241ED8B0242A6B
:102B1000251ED8B0252A800E2656000E1F1A000E3C
:102B2000201A000E211A800E221A000E231A000EFF
:102B3000241A000E251A800E261A23501F5C2450DA
:102B400020582550215826502258D8B002D0D8906D
:102B50001200D8801200D2C010F0D3C011F0D4C03F
:102B600012F0D5C013F006C010F007C011F008C075
:102B700012F009C013F010C00AF011C00BF012C01F
:102B80000CF013C00DF0180E05D0D8900D320C3299
:102B90000B320A32E82EF9D70A500E6E0F6A0E5029
:102BA0000F10D8A419D0D89010340A6E11340B6EBF
:102BB00012340C6E13340D6E0A500B100C100D10E5
:102BC000D8A405D0000E076E020E066E1200000E8D
:102BD000076E030E066E12000E280F10D8A41CD02C
:102BE00010C00AF011C00BF012C00CF013C00DF0B1
:102BF000090ED8900A360B360C360D36E82EF9D76A
:102C00000A500B100C100D10D8A402D0010E01D0E8
:102C1000000E066E076A1200000E076E040E066EA6
:102C20001200083409340F6E0F50D8A409D0000EDA
:102C3000066E000E076E000E086E000E096E120082
:102C400006C00AF007C00BF008C00CF009C00DF078
:102C5000200E05D0D8900D320C320B320A32E82EFD
:102C6000F9D70A500E6E088EFF0E0616FF0E0716D5
:102C7000FF0E0816000E0916960E0F5E0FAE0DD051
:102C80000F50800A970FD8A0D2D7D89009320832B7
:102C9000073206320F3EF9D70DD01F0E0F6407D052
:102CA000C6D7D89006360736083609360F060F50B5
:102CB000D8A4F7D70E50D8B408D0091E081E071E96
:102CC000066C000E07220822092206C006F007C083
:102CD00007F008C008F009C009F0120073EC1AF000
:102CE0009392480EAE6E0001DE05D8A4FCD7000E0C
:102CF000DE6F770EC419D8A40BD08192080EE82E8F
:102D0000FED78182280EE82EFED78192000E586EE3
:102D10000001E005D8A4E7D7000EE06FDF51066E92
:102D2000076A086A096A010EA3EC14F006C014F0E1
:102D300007C015F008C016F009C017F0CD0E186EC8
:102D4000CC0E196EE80E1A6E410E1B6EDAEC11F005
:102D500014C0D6F015C0D7F016C0D8F017C0D9F0FF
:102D6000E20E0001B26F000EB36F010EB46F0F0ED2
:102D7000B56FD6C0B6F0D7C0B7F0D8C0B8F0D9C0DC
:102D8000B9F0D2EC18F0E20E0C6E000E0D6E22ECD3
:102D900019F0A9D706C00DF007C00EF008C00FF05B
:102DA00009C010F00A06D8A00B060A280FE10B286C
:102DB000D8A40CD0000E076E000E066E12000D4A4D
:102DC0000E2A0F4A102A0A06D8A00B060DC0D9FFFA
:102DD0000EC0DAFFDF50D8B420D00FC0F6FF10C00D
:102DE000F7FF000EF86E0800F5500009D8B415D0B2
:102DF0000A500B10D8B411D00DC0D9FF0EC0DAFFA5
:102E0000DF500C6E0FC0F6FF10C0F7FF000EF86E1B
:102E10000800F5500C18D8B4D2D70DC0D9FF0EC099
:102E2000DAFFDF500C6E0FC0F6FF10C0F7FF000E88
:102E3000F86E0800F5500C5C066E076AD8A007060D
:102E4000120008500910D8B404D008500910D8A4B2
:102E500004D006508DEC1AF0120020EE04F0085059
:102E6000D9260950DA22DE50DE10D8B416D020EE72
:102E700004F00850D9260950DA2210EE02F008506A
:102E8000E1260950E222DE50E65CE650800A0E6E32
:102E9000DE50800A0E58D8B0120020EE02F0085022
:102EA000D9260950DA22DECF0AF0DDCF0BF008C0B8
:102EB000D9FF09C0DAFFDECF0CF0DDCF0DF00A50EC
:102EC0000C24D96E0B500D20DA6E06C0DFFF20EE09
:102ED00002F00850D9260950DA22DE2A000EDD223F
:102EE000120055A00AD018C00FF019C010F016C07B
:102EF00011F017C012F0D1EC19F01BBE05D01AC0AA
:102F00001FF01BC020F004D0000E206E000E1F6EBC
:102F1000000E1E6E000E1D6E0CD0000E076E200EF1
:102F2000066E16C008F017C009F021EC17F01D4A14
:102F30001E2A1F501D5C1E50800A1C6E2050800AE5
:102F40001C58D8A0EAD755B00AD018C00FF019C045
:102F500010F016C011F017C012F0D1EC19F018C023
:102F600006F019C007F034EC1AF01F500624166E54
:102F700020500720176E1200000E06140E6E000E71
:102F800007140F6E800E0814106E7F0E0914116E58
:102F90000E500F1010101110D8A408D0000E066E9D
:102FA000000E076E000E086E000E096E000E0A1469
:102FB0000E6E000E0B140F6E800E0C14106E7F0E32
:102FC0000D14116E0E500F1010101110D8A408D04F
:102FD000000E0A6E000E0B6E000E0C6E000E0D6ED3
:102FE0000A5006180AE10B50071807E10C500818A0
:102FF00004E10D500918D8B402D0D8901200D8803E
:103000001200000E0B6E09AE06D0086C091ED8B077
:10301000092A010E0B6E07AE06D0066C071ED8B04B
:10302000072A010E0B1A000E0D6E000E0C6E0850D2
:103030000910D8B41CD0010E0A6E04D0D8900836FE
:1030400009360A2A09AEFAD7D8900C360D36085040
:10305000065C09500758D8A005D00850065E0950F4
:10306000075A0C80D890093208320A2EEDD70B503F
:10307000D8B404D00C6C0D1ED8B00D2A0CC006F0CC
:103080000DC007F01200000E0B6E07AE06D0066CE6
:10309000071ED8B0072A010E0B6E09AE04D0086CCB
:1030A000091ED8B0092A08500910D8B418D0010E4A
:1030B0000A6E04D0D890083609360A2A09AEFAD723
:1030C0000850065C09500758D8A004D00850065E86
:1030D0000950075AD890093208320A2EF1D70B50FE
:1030E000D8B404D0066C071ED8B0072A06C006F074
:1030F00007C007F01200ACC0B0F0ADC0B1F0000ED8
:103100000001DB6F000EDA6F13D0AAC04DF0ABC028
:103110004EF0B00E4F6E000E506EAEC051F0AFC00C
:1031200052F04EEC0CF04D500001DA274E50DB23EC
:10313000B0C0F6FFB1C0F7FF000EF86E0800F55002
:103140000009D8A4E2D7DAC0AAF0DBC0ABF01200C5
:1031500008C00CF009C00DF006C00EF007C00FF05B
:103160000C500A6E0D500B6E0C4A0D2A0AC0F6FF69
:103170000BC0F7FF000EF86E0EC0D9FF0FC0DAFFCC
:103180000E4A0F2A0E0EF76403D00800F55005D042
:10319000F6CFE9FFF7CFEAFFEF50DF6EDF50D8B48C
:1031A0001200DED7B60E0001BC6F000EBD6FB2C0BC
:1031B000BEF0B3C0BFF0000EC16F000EC06F000EB6
:1031C000C36F000EC26FBE0EAA6F000EAB6FB4C00D
:1031D000ACF0B5C0ADF0BC0EAE6F000EAF6F7BECC7
:1031E00018F00001C051B225D96EC151B321DA6E79
:1031F000000EDF6E1200160EF66E350EF76E000E24
:10320000F86E00EEE8F010EE04F00900F5CFEEFFE6
:10321000E550E150FAE101EE00F0500EEE6AE806EA
:10322000FDE100EEC4F0240EEE6AE806FDE1586A06
:10323000576A566A556A546A536A599059920001FE
:103240006EEF16F00CC006F00DC007F092EC19F00E
:1032500006C010F007C011F0000E126E10D0125010
:103260000C24D96E000E0D20DA6EDF50AE6E2F0EDC
:103270000E6EC00EE82EFED70E2EFCD7122A12506C
:103280000E6E0F6A10500E5C11500F58D8B012001D
:10329000E6D7BF0E0E6EFF0E0F6E0CC010F00DC005
:1032A00011F00E5010260F501122115006E11A0E87
:1032B000105CD8B002D0010E01D0000E126E136A5D
:1032C00012501310D8B406D0200E0C100C6E0D50F6
:1032D0000D6E12000CC00CF00DC00DF01200000EAF
:1032E000231A000E241A000E251A800E261A1FC05B
:1032F00006F020C007F021C008F022C009F023C06A
:103300000AF024C00BF025C00CF026C00DF054ECE0
:1033100010F006C01FF007C020F008C021F009C05F
:1033200022F0120006C0D9FF07C0DAFFDF500A6E94
:10333000010E0B6E000E096E000E086E0BD00B50C6
:103340000624D96E000E0720DA6EDF500A6E0B2AB3
:10335000084A092A0A50D8A4F2D708C006F009C0C2
:1033600007F01200010E0C6E200E06180710D8B4DC
:1033700014D0F70E086EFF0E096E06C00AF007C0E3
:103380000BF008500A2609500B220B5004E1050EE1
:103390000A5CD8A002D0000E0C6E0CC006F0076AC2
:1033A0001200000E156E000E146E0BD013C006F046
:1033B000076A11C008F012C009F021EC17F0144A96
:1033C000152A14500F24D96E15501020DA6EDF50D4
:1033D000136E1350D8B41200E9D7BF0E086EFF0E5B
:1033E000096E06C00AF007C00BF008500A26095003
:1033F0000B220B5006E11A0E0A5CD8B002D0010E67
:1034000001D0000E066E076A1200D00E086EFF0E85
:10341000096E06C00AF007C00BF008500A260950D2
:103420000B220B5006E10A0E0A5CD8B002D0010E46
:1034300001D0000E066E076A120006500710081031
:103440000910D8B408D0000E061A000E071A000E94
:10345000081A800E091A06C006F007C007F008C057
:1034600008F009C009F0120006C008F007C009F012
:1034700002D0064A072A06C0D9FF07C0DAFFDF508C
:10348000D8A4F7D70850065C066E09500758076E97
:10349000120006500802F3CF0AF0F4CF0BF00650EA
:1034A0000902F3500B2607500802F3500B260AC0FE
:1034B00006F00BC007F01200948E949C220EAD6EA5
:1034C000900EAC6E7E964D0EB06E9E9A9D8A120046
:1034D00095988398320E0F01226F24696A0E236F2C
:1034E0009184989412007CEC1AF084EC1AF05CEC55
:1034F0001AF068EC1AF012007F0E0F01486F1F0ED1
:10350000496F9290929212009380F28EF28CF19C0D
:0C351000F292F2881200C201C201120007
:020000040001F9
:08FFF800AAF7FDFFF3F9FFFB7E
:00000001FF
